:020000040800F2
:10000000B00C00209D0100089D0200089902000824
:100010009B0200089502000845040008000000004B
:100020000000000000000000000000009F02000827
:1000300097020008000000001F0200085903000892
:10004000B7010008B7010008B7010008B7010008B0
:10005000B7010008B7010008B7010008B7010008A0
:10006000B7010008B7010008B7010008B701000890
:10007000B7010008B7010008B7010008B701000880
:10008000B7010008B7010008B7010008B701000870
:10009000B7010008B7010008B7010008B701000860
:1000A000B7010008B7010008B7010008B701000850
:1000B000B7010008B7010008B7010008B701000840
:1000C000B7010008B7010008B7010008B701000830
:1000D000B7010008C9030008B7010008B70100080C
:1000E000B7010008B7010008B7010008B701000810
:1000F000B7010008B7010008B7010008B701000800
:10010000B7010008B7010008B7010008B7010008EF
:10011000B7010008B7010008B7010008B7010008DF
:10012000B7010008B7010008B7010008B7010008CF
:10013000B7010008B7010008B7010008B7010008BF
:10014000B7010008B7010008B7010008B7010008AF
:10015000B7010008B7010008B7010008B70100089F
:10016000B7010008B7010008B7010008B70100088F
:10017000B7010008B7010008B7010008B70100087F
:10018000B7010008B7010008DFF80CD000F070F8E4
:10019000004800472D0B0008B00C0020064880479F
:1001A00006480047FEE7FEE7FEE7FEE7FEE7FEE75C
:1001B000FEE7FEE7FEE7FEE76D03000889010008A1
:1001C000EFF3108072B6704780F3108870472349B0
:1001D000086023494FF00000086022494FF00100F9
:1001E000086021484FF47F01D0F8002041EA020165
:1001F00001601E484FF08051016061B662B6194A35
:100200001368012B04D04FF001031360144A1060EF
:10021000124A116015484FF0805101607047EFF3AA
:10022000108272B60F48016891B14FF00001016071
:100230000B48016829B1EFF3098121E9F00F00684B
:100240000160064909680968B1E8F00F81F309887F
:1002500082F310884EF0040E704700000800002062
:10026000040000200C00002020ED00E004ED00E080
:10027000064C074D06E0E06840F0010394E80700F3
:1002800098471034AC42F6D3FFF782FFDC0B00082E
:10029000FC0B0008FEE77047FEE7FEE7704770477B
:1002A0000CB50022019200922749086840F4803082
:1002B00008604FF4A043086800F4003000900198F3
:1002C000401C0190009810B901989842F3D1086839
:1002D000800302D50120009000E0009200980128E0
:1002E00031D119484030026842F08052026017480C
:1002F000026842F44042026013480830026802601B
:10030000026842F400420260026842F4A0520260B5
:10031000021F0F4B13600A6842F080720A600A687D
:100320009201FCD50B4A40F205711160016821F081
:1003300003010160016841F0020101600168C1F33D
:1003400081010229FAD10CBD003802400070004042
:1003500019544007003C024010B500F001F900F0CC
:10036000E5FABDE8104000F009B9000010B51248E8
:10037000016841F4700101601048016841F0010119
:1003800001600E4A00210832116002680C4B1A40CD
:100390000260031D0B4A1A60026822F48022026088
:1003A00006480C300160FFF77BFF03494FF0006007
:1003B0008039086010BD000088ED00E00038024080
:1003C000FFFFF6FE1030002410B5094C40F2255115
:1003D000204600F00FF8002808D0204600F02AF848
:1003E000C1B22046BDE8104000F028B810BD0000A2
:1003F0000010014070B5002440F66A12C1F34213A8
:1004000001F01F05012606FA05F2012B0CD0022B84
:100410000DD0838A1340090A8E40008830400BB10A
:1004200000B10124204670BD83891340F3E7038A9D
:100430001340F0E78088C0F308007047C1F308015B
:1004400081807047FEE7002801D0002103E00020F2
:1004500070474010491CC207FBD00846704702E0B5
:1004600008C8121F08C1002AFAD17047704700203F
:1004700001E001C1121F002AFBD1704710B5029C98
:1004800024F001044472C16102620021816243626E
:10049000002200EBC201143109604960521C012A9C
:1004A000F7DB10BD10B5002200EBC2011431D1E919
:1004B00000342360D1E90043636049600960521C45
:1004C000012AF1DB10BD00E0401E0028FCD170477E
:1004D0000026054C01252570032000F039F926700F
:1004E000032000F035F9F6E700000020002305495D
:1004F00001224A706420FFF7E6FF4B706420FFF78B
:10050000E2FFF6E7000000200023054901228A707F
:100510006420FFF7D8FF8B706420FFF7D4FFF6E765
:100520000000002030B50546121D22F00700A0F1A2
:10053000400420460022094B40F82230521C102A69
:10054000FAD30162002141628162C16201634163A9
:1005500085634FF08071C163204630BDEFBEADDED4
:1005600010B5FFF72DFE044A1178491C1170BDE843
:100570001040FFF729BE00001400002010B5FFF75F
:100580001FFE044A1178491E1170BDE81040FFF7A4
:100590001BBE0000140000204268116042684A60DF
:1005A000416008607047D0E900121160D0E9002175
:1005B00051604060006070470021074A02EB011360
:1005C0001B78834202D102EB01107047491C0229BB
:1005D000F4DD002070470000180000202DE9F041F4
:1005E00005460E4617463046FFF7E6FF044646F03E
:1005F0008000287208223946284600F081F8FFF76B
:10060000DFFD0C35241D69680C60696861606C60F1
:100610002560BDE8F041FFF7D7BD000070B5FFF7DA
:10062000CFFD05460E4CA068FFF70DFF0D4901EB0D
:10063000C00149682839626891420BD0616020701E
:10064000143102F11400FFF7DAFD2846BDE87040CE
:10065000FFF7BABD2846BDE87040FFF7B5BD000002
:1006600038000020AC07002070B50546FFF7A8FD54
:10067000012185F8441095F838100A4A05F128043C
:1006800002EBC1010A6854600A6822600C60616074
:100690000549EA6B8B681A438A60BDE87040FFF732
:1006A00093BD0000AC0700203800002070B505465F
:1006B000FFF786FD014605F12804D4E90002106029
:1006C000D4E9002050606460246095F838000A4A3C
:1006D00002EBC0004268824201D1012000E000200C
:1006E00020B10648EB6B82689A438260BDE8704097
:1006F0000846FFF769BD0000AC0700203800002065
:1007000010B5002A07D0034611F8014B03F8014B3E
:1007100014B1521EF8D110BD002101E003F8011BF5
:10072000521EFBD110BD000010B5074CA068FFF7AA
:100730008AFE064901EBC000406828386060BDE8C9
:1007400010401430FFF743BD38000020AC070020F4
:1007500000F05AB82DE9FC470446DDE90A89DDE9D5
:100760000C6592461F460A4600212046FFF736FFD9
:1007700004F12800006040605046C4F818A0E7610A
:10078000C4F82080C4F8249008EB0902121F3946EF
:10079000FFF7C8FE606184F8386084F83960002093
:1007A000E063206484F84400656325630090019051
:1007B0002346044A214604F1480000F01FF90020B6
:1007C000BDE8FC87A108000870B5044694F8440011
:1007D00000F00F00022802D04FF0FF3070BDFFF78D
:1007E000EFFC054604F12800FFF7DDFE2846FFF781
:1007F000EBFC2046FFF738FF002070BD0148006881
:10080000704700003C00002031B5FFF7D9FC0546D9
:100810000A480468204600F026F804F148006A46B9
:100820000021044600F0D0F8204600F0FDF82846EC
:10083000FFF7CAFCFFF7F2FE002038BD3C000020A5
:1008400010B538304178017001228A40426002219F
:1008500001733838FFF7B8FFFFF7D0FF08B1FFF793
:10086000DDFE002010BD70B5044694F8440000F091
:100870000F00012802D04FF0FF3070BDFFF7A0FC41
:100880000546022084F844002046FFF70FFF04F1DC
:10089000480000F033F92846FFF796FC002070BDB1
:1008A00010B504466FF00100206404F12800FFF742
:1008B0007AFE2046FFF7D8FEBDE81040FFF7AEBE37
:1008C00070B5FFF77DFC06461348046894F84400B1
:1008D00000F00F0001281AD1D4E90A10884216D07E
:1008E00004F128000546FFF75EFE94F838000B4936
:1008F00001EBC00001684D60016829600560686017
:100900003046FFF761FCFFF789FE002070BD3046DE
:10091000FFF75AFC002070BD3C000020AC0700200F
:1009200001480068704700001000002010B5094918
:100930000868401C0860FFF761FF016B491E0163F6
:1009400019B9416B0163FFF7BBFFBDE8104000F030
:1009500003B800001000002070B5FFF7E1FF054666
:10096000FFF72EFC06461EE0143C6FF00041A06A23
:10097000281A884220D22046FFF794FDD4E90710B8
:100980008847FFF7CDFF0546607A810708D5C10784
:1009900006D020F001006072204600F045F802E029
:1009A00020F00100607207484468844201D10120B0
:1009B00000E000200028D7D03046BDE87040FFF7A7
:1009C00003BC000048000020002909D0012904D000
:1009D000022908D003290FD10AE0406A10600BE019
:1009E0001168416208E0417A21F00201417203E09E
:1009F000417A41F002014172002070472DE9F8432D
:100A00000746DDE9088415461E460A460921384690
:100A1000FFF7E4FD43463246294638460094FFF787
:100A20002DFDBDE8F88300002DE9F84305460024BC
:100A3000FFF7C6FB06462846FFF734FD687A20F02C
:100A4000010068723046FFF7BFFBFFF769FF696A74
:100A50000844A862FFF7B4FB0746DFF89CC0CDF856
:100A600000C06E466FF000485CF834300BE0406820
:100A7000A0EBC401AA6A4969914202D0891A414592
:100A800005D346F8240056F824009842EFD12CB143
:100A900056F824100831621C46F82210641C002C01
:100AA000E0D01548001FD0F8008008F10108C0F818
:100AB000008005F114010098FFF76EFD02240EE09E
:100AC0005FEA88700DD1C4F1010005EBC00114315B
:100AD00056F82000FFF760FD4FEA9808641C012CCF
:100AE000EED9687A40F0010068723846FFF76CFB77
:100AF0000020BDE8F88300004800002070B50446DF
:100B0000607AC0070ED0FFF75BFB05462046FFF773
:100B1000C9FC2846FFF758FB607A20F0010060729C
:100B2000002070BD4FF0FF3070BD00007FB5042481
:100B30001A480226E5018DE861000023184A19A130
:100B40000394A0F5AE70FFF705FE1948FFF778FE95
:100B50001848CDE90005CDE902460023164A17A141
:100B6000A0F53A70FFF7F6FD11487430FFF768FE04
:100B7000CDE9015403200390134908480091002354
:100B8000124A13A17438FFF7E5FD04487438FFF7E3
:100B900057FEFFF7C9FD04B0002070BDAC01002076
:100BA000D1040008746872656164317673000000D6
:100BB00050000020AC030020ED040008746872654A
:100BC0006164327673000000AC050020090500085E
:100BD000746872656164337673000000FC0B000872
:100BE00000000020500000005E0400084C0C0008CB
:100BF00050000020600C00006E040008000000009F
:100C000000000000000000000000000000000000E4
:100C100000000000000000001C0000201C0000205C
:100C20007400000000000000000000000000000050
:100C300000000000000000000000000000000000B4
:0C0C4000000000000000000000000000A8
:040000050800018965
:00000001FF
