:020000040800F2
:10000000580F00209D0100083B040008DD03000894
:10001000390400089502000871080008000000007B
:10002000000000000000000000000000BD05000806
:1000300097020008000000001F020008790600086F
:10004000B7010008B7010008B7010008B7010008B0
:10005000B7010008B7010008B7010008B7010008A0
:10006000B7010008B7010008B7010008B701000890
:10007000B7010008B7010008B7010008B701000880
:10008000B7010008B7010008B7010008B701000870
:10009000B7010008B7010008B7010008B701000860
:1000A000B7010008B7010008B7010008B701000850
:1000B000B7010008B7010008B7010008B701000840
:1000C000B7010008B7010008B7010008B701000830
:1000D000B7010008E9060008B7010008B7010008E9
:1000E000B7010008B7010008B7010008B701000810
:1000F000B7010008B7010008B7010008B701000800
:10010000B7010008B7010008B7010008B7010008EF
:10011000B7010008B7010008B7010008B7010008DF
:10012000B7010008B7010008B7010008B7010008CF
:10013000B7010008B7010008B7010008B7010008BF
:10014000B7010008B7010008B7010008B7010008AF
:10015000B7010008B7010008B7010008B70100089F
:10016000B7010008B7010008B7010008B70100088F
:10017000B7010008B7010008B7010008B70100087F
:10018000B7010008B7010008DFF80CD000F070F8E4
:100190000048004725100008580F002006488047F7
:1001A00006480047FEE7FEE7FEE7FEE7FEE7FEE75C
:1001B000FEE7FEE7FEE7FEE78D060008890100087E
:1001C000EFF3108072B6704780F3108870472349B0
:1001D000086023494FF00000086022494FF00100F9
:1001E000086021484FF47F01D0F8002041EA020165
:1001F00001601E484FF08051016061B662B6194A35
:100200001368012B04D04FF001031360144A1060EF
:10021000124A116015484FF0805101607047EFF3AA
:10022000108272B60F48016891B14FF00001016071
:100230000B48016829B1EFF3098121E9F00F00684B
:100240000160064909680968B1E8F00F81F309887F
:1002500082F310884EF0040E704700002800002042
:10026000240000202C00002020ED00E004ED00E040
:10027000064C074D06E0E06840F0010394E80700F3
:1002800098471034AC42F6D3FFF782FFD010000835
:10029000F0100008FEE7704770B586B001210846EF
:1002A00000F01EF90121102000F028F900248DF83B
:1002B000164001208DF8170002258DF815508DF895
:1002C0001450400204901C4E04A9304600F038F847
:1002D0008DF814506902049104A9304600F030F8FA
:1002E00007220A21304600F069F80722092130462A
:1002F00000F064F84FF4E1300090ADF80440ADF840
:100300000640ADF80840ADF80C400C20ADF80A00EE
:100310000A4C6946204600F045FA00F08FF80122A9
:1003200040F22551204600F021FA0121204600F03C
:10033000F1F906B070BD000000000240001001405D
:100340002DE9F041002201274FF0030C07FA02F5D6
:100350000B682B40AB422CD1066853000CFA03F417
:10036000A64306600E79D0F800809E4046EA080653
:1003700006600E79012E01D0022E12D18668A643A6
:1003800086604E79D0F808809E4046EA080686606E
:100390004668AE43466045688E799640B6B23543AE
:1003A0004560C568A543C560CC799C40C3681C43C3
:1003B000C460521C102AC9D3BDE8F08110B54B07A8
:1003C000DB0E9A40C90800EB8100016A0F249C40B3
:1003D000A1430162016A1143016210BDFEE7000002
:1003E0002DE9FC410121202000F07AF840240094FE
:1003F00001208DF8040000218DF806108DF807000B
:100400008DF805100B4F69463846FFF799FF802697
:10041000009669463846FFF793FFA50000956946A8
:100420003846FFF78DFF03481830048006800580AA
:10043000BDE8FC8100140240FEE7704708B54FF4A8
:10044000A06000F043F825208DF8000001208DF811
:1004500001008DF802008DF80300684600F002F8F4
:1004600008BD000030B50F23C27801250178002AAD
:100470001FD0154A126802F4E062C2F5E062C2F3CE
:100480000722C2F10404D3404278A24084781C4081
:100490001443220101F1E02181F80024007800F0EA
:1004A0001F018D404009800000F1E020C0F800519C
:1004B00030BD01F01F0085404809800000F1E020B8
:1004C000C0F8805130BD00000CED00E00249084347
:1004D00002490860704700000000FA050CED00E0DA
:1004E000054A002903D01168014311607047116863
:1004F000814311607047000030380240054A0029EE
:1005000003D0116801431160704711688143116085
:10051000704700004438024070B5244B196801F060
:100520000C01234C00291ED0224E04291DD008297D
:100530001DD00460196801F0F00109091E4A545CDD
:100540000168E14041601C6804F4E054A40A145DB1
:1005500021FA04F484601B6803F460435B0BD25CF3
:10056000D140C16070BD0460E4E70660E2E70F4A75
:10057000121F1168C1F38055116801F03F0135B1B8
:10058000B6FBF1F11468C4F38814614305E0B4FBD1
:10059000F1F11468C4F3881461431268C2F3014294
:1005A000521C5200B1FBF2F10160C3E7083802406F
:1005B0000024F40040787D01140000207047000002
:1005C0000CB50022019200922749086840F480305F
:1005D00008604FF4A043086800F4003000900198D0
:1005E000401C0190009810B901989842F3D1086816
:1005F000800302D50120009000E0009200980128BD
:1006000031D119484030026842F0805202601748E8
:10061000026842F4404202601348083002680260F7
:10062000026842F400420260026842F4A052026092
:10063000021F0F4B13600A6842F080720A600A685A
:100640009201FCD50B4A40F205711160016821F05E
:1006500003010160016841F0020101600168C1F31A
:1006600081010229FAD10CBD00380240007000401F
:1006700019544007003C024010B500F07DF900F02D
:10068000D1FBBDE8104000F085B9000010B512485C
:10069000016841F4700101601048016841F00101F6
:1006A00001600E4A00210832116002680C4B1A40AA
:1006B0000260031D0B4A1A60026822F48022026065
:1006C00006480C300160FFF77BFF03494FF00060E4
:1006D0008039086010BD000088ED00E0003802405D
:1006E000FFFFF6FE1030002410B5094C40F22551F2
:1006F000204600F01BF8002808D0204600F0B0F893
:10070000C1B22046BDE8104000F0AEB810BD0000F8
:1007100000100140002904D0818941F400518181F9
:100720007047818921F400518181704770B50024A0
:1007300040F66A12C1F3421301F01F05012606FAC2
:1007400005F2012B0CD0022B0DD0838A1340090A2D
:100750008E40008830400BB100B10124204670BDAE
:1007600083891340F3E7038A1340F0E710B540F69E
:100770006A13C1F3421301F01F040121A140012BB0
:1007800007D0022B07D014303AB102680A43026046
:1007900010BD0C30F8E71030F6E702688A430260BB
:1007A00010BD00007FB504460D46208A20F440515C
:1007B000E88808432082A08941F20C618843A98817
:1007C0002A8911436A8902431143A181A08A20F436
:1007D0004071A8890843A0826846FFF79DFE1E4825
:1007E000844202D01D48844201D1039800E002985F
:1007F000A189090408D500EBC00101EB00102968AC
:100800004900B0FBF1F007E000EBC00101EB001084
:1008100029688900B0FBF1F06422B0FBF2F1090114
:100820000B096FF018056B4300EB8300A3891D04CF
:100830004FF0320307D503EBC000B0FBF2F000F03D
:100840000700084306E003EB0010B0FBF2F000F0F5
:100850000F00084320817FBD0010014000140140BB
:100860008088C0F308007047C1F308018180704799
:10087000FEE7002801D0002103E00020704740106F
:10088000491CC207FBD00846704702E008C8121F87
:1008900008C1002AFAD170477047002001E001C169
:1008A000121F002AFBD1704710B5029C24F00104EE
:1008B0004472C1610262002181624362002200EB46
:1008C000C201143109604960521C012AF7DB10BDD6
:1008D00010B5002200EBC2011431D1E900342360CD
:1008E000D1E90043636049600960521C012AF1DBD1
:1008F00010BD0000044C206880F040002060022001
:1009000000F07AF9F7E7000014140240044C206864
:1009100080F080002060022000F06EF9F7E7000010
:1009200014140240044C206880F48070206002207F
:1009300000F062F9F7E700001414024030B50546F4
:10094000121D22F00700A0F1400420460022094BAE
:1009500040F82230521C102AFAD301620021416271
:100960008162C1620163416385634FF08071C1633D
:10097000204630BDEFBEADDE10B5FFF721FC044AC6
:100980001178491C1170BDE81040FFF71DBC000034
:100990003800002010B5FFF713FC044A1178491EF7
:1009A0001170BDE81040FFF70FBC000038000020B8
:1009B0004268116042684A60416008607047D0E94F
:1009C00000121160D0E90021516040600060704762
:1009D0000021074A02EB01131B78834202D102EB8C
:1009E00001107047491C0329F4DD00207047000006
:1009F0003C0000202DE9F04105460E4617463046E2
:100A0000FFF7E6FF044646F08000287208223946C8
:100A1000284600F081F8FFF7D3FB0C35241D6968E8
:100A20000C60696861606C602560BDE8F041FFF7AB
:100A3000CBBB000070B5FFF7C3FB05460E4CA068AA
:100A4000FFF717FF0D4901EBC001496828396268BB
:100A500091420BD061602070143102F11400FFF755
:100A6000CEFB2846BDE87040FFF7AEBB2846BDE888
:100A70007040FFF7A9BB00006C000020540A002062
:100A800070B50546FFF79CFB012185F8441095F8E9
:100A900038100A4A05F1280402EBC1010A685460C3
:100AA0000A6822600C6061600549EA6B8B681A4332
:100AB0008A60BDE87040FFF787BB0000540A002041
:100AC0006C00002070B50546FFF77AFB014605F182
:100AD0002804D4E900021060D4E90020506064606A
:100AE000246095F838000A4A02EBC000426882424E
:100AF00001D1012000E0002020B10648EB6B8268A4
:100B00009A438260BDE870400846FFF75DBB000075
:100B1000540A00206C00002010B5002A07D00346BC
:100B200011F8014B03F8014B14B1521EF8D110BD5E
:100B3000002101E003F8011B521EFBD110BD000093
:100B40000021074A02EBC10000604060491C2029D7
:100B5000F8DB04481F21017000214160816070476B
:100B6000540A00206C00002010B5074CA068FFF765
:100B700080FE064901EBC000406828386060BDE88F
:100B800010401430FFF723BB6C000020540A0020F3
:100B90000021044A02EBC10000604060491C0029AA
:100BA000F8D070477C00002010B5FFF709FB104813
:100BB0004FF47A710068B0FBF1F0401EB0F1807F15
:100BC00009D24FF0E02148610A4AF020107000205D
:100BD000886107200861FFF7DBFFFFF7B1FF00F036
:100BE00015F8FFF7FDFBBDE81040FFF755BB00000F
:100BF0000000002023ED00E000F082B80248016808
:100C0000491C0160FBE70000340000201FB50220F2
:100C100002021F21084BCDE90032CDE9021000236A
:100C2000064A07A1084800F011F804B00648BDE8DC
:100C3000104000F081B80000E0070020FD0B000824
:100C400069646C6500000000E00900202DE9FC47A4
:100C50000446DDE90A89DDE90C6592461F460A462D
:100C600000212046FFF7C6FE04F128000060406026
:100C70005046C4F818A0E761C4F82080C4F8249056
:100C800008EB0902121F3946FFF758FE606184F82D
:100C9000386084F839600020E063206484F8440000
:100CA00065632563009001902346044A214604F1C0
:100CB000480000F01FF90020BDE8FC87990D0008EE
:100CC00070B5044694F8440000F00F00022802D0EA
:100CD0004FF0FF3070BDFFF773FA054604F12800AE
:100CE000FFF76DFE2846FFF76FFA2046FFF7C8FEB4
:100CF000002070BD014800687047000070000020AF
:100D000031B5FFF75DFA05460A480468204600F051
:100D100026F804F148006A460021044600F0D0F8A5
:100D2000204600F0FDF82846FFF74EFAFFF782FE56
:100D3000002038BD7000002010B5383041780170B7
:100D400001228A404260022101733838FFF7B8FF60
:100D5000FFF7D0FF08B1FFF76DFE002010BD70B5A2
:100D6000044694F8440000F00F00012802D04FF030
:100D7000FF3070BDFFF724FA0546022084F84400D6
:100D80002046FFF79FFE04F1480000F033F92846A3
:100D9000FFF71AFA002070BD10B504466FF001008D
:100DA000206404F12800FFF70AFE2046FFF768FEE2
:100DB000BDE81040FFF73EBE70B5FFF701FA0646EA
:100DC0001348046894F8440000F00F0001281AD179
:100DD000D4E90A10884216D004F128000546FFF72E
:100DE000EEFD94F838000B4901EBC00001684D603E
:100DF00001682960056068603046FFF7E5F9FFF794
:100E000019FE002070BD3046FFF7DEF9002070BDEE
:100E100070000020540A002001480068704700005C
:100E20003000002010B509490868401C0860FFF731
:100E300061FF016B491E016319B9416B0163FFF743
:100E4000BBFFBDE8104000F003B8000030000020F8
:100E500070B5FFF7E1FF0546FFF7B2F906461EE061
:100E6000143C6FF00041A06A281A884220D2204624
:100E7000FFF72EFDD4E907108847FFF7CDFF0546A1
:100E8000607A810708D5C10706D020F001006072A2
:100E9000204600F045F802E020F0010060720748AB
:100EA0004468844201D1012000E000200028D7D00E
:100EB0003046BDE87040FFF787B900007C00002095
:100EC000002909D0012904D0022908D003290FD113
:100ED0000AE0406A10600BE01168416208E0417A64
:100EE00021F00201417203E0417A41F002014172B6
:100EF000002070472DE9F8430746DDE908841546D0
:100F00001E460A4609213846FFF774FD434632461D
:100F1000294638460094FFF7C7FCBDE8F883000077
:100F20002DE9F84305460024FFF74AF9064628460E
:100F3000FFF7CEFC687A20F0010068723046FFF7B8
:100F400043F9FFF769FF696A0844A862FFF738F9B7
:100F50000746DFF89CC0CDF800C06E466FF0004831
:100F60005CF834300BE04068A0EBC401AA6A496920
:100F7000914202D0891A414505D346F8240056F81B
:100F800024009842EFD12CB156F824100831621C8D
:100F900046F82210641C002CE0D01548001FD0F841
:100FA000008008F10108C0F8008005F114010098E4
:100FB000FFF7FEFC02240EE05FEA88700DD1C4F159
:100FC000010005EBC001143156F82000FFF7F0FCDA
:100FD0004FEA9808641C012CEED9687A40F00100B1
:100FE00068723846FFF7F0F80020BDE8F88300008B
:100FF0007C00002070B50446607AC0070ED0FFF771
:10100000DFF805462046FFF763FC2846FFF7DCF8CB
:10101000607A20F001006072002070BD4FF0FF3058
:1010200070BD00007FB5FFF7BFFD04241A480226FB
:10103000E5018DE861000023184A19A10394A0F589
:10104000AE70FFF703FE1748FFF776FE1648CDE9AE
:101050000005CDE902460023144A15A1A0F53A7017
:10106000FFF7F4FD0F487430FFF766FECDE9015439
:10107000032003901149084800910023104A11A150
:101080007438FFF7E3FD04487438FFF755FEFFF7A7
:101090006BFD04B0002070BDE0010020F5080008E1
:1010A0006C65640084000020E00300200D09000846
:1010B000746872656164327673000000E005002098
:1010C0002509000874687265616433767300000056
:1010D000F010000800000020840000008A080008CA
:1010E0007411000884000020D40E00009A08000843
:1010F000007A030A0000000000000000010203045F
:1011000006070809000000000102030401020304AD
:1011100006070809000000000000000000000000B1
:1011200000000000000000000000000000000000BF
:10113000400000204000002074000000010000007A
:1011400050000020500000201800000000000000A7
:10115000000000000000000000000000000000008F
:10116000000000000000000000000000000000007F
:04117000000000007B
:040000050800018965
:00000001FF
