:020000040800F2
:10000000502E00209D010008B30400081D040008C4
:10001000B1040008D5020008010900080000000032
:10002000000000000000000000000000350600088D
:10003000D7020008000000001F020008F1060008B7
:10004000B7010008B7010008B7010008B7010008B0
:10005000B7010008B7010008B7010008B7010008A0
:10006000B7010008B7010008B7010008B701000890
:10007000B7010008B7010008B7010008B701000880
:10008000B7010008B7010008B7010008B701000870
:10009000B7010008B7010008B7010008B701000860
:1000A000B7010008B7010008B7010008B701000850
:1000B000B7010008B7010008B7010008B701000840
:1000C000B7010008B7010008B7010008B701000830
:1000D000B701000861070008B7010008B701000870
:1000E000B7010008B7010008B7010008B701000810
:1000F000B7010008B7010008B7010008B701000800
:10010000B7010008B7010008B7010008B7010008EF
:10011000B7010008B7010008B7010008B7010008DF
:10012000B7010008B7010008B7010008B7010008CF
:10013000B7010008B7010008B7010008B7010008BF
:10014000B7010008B7010008B7010008B7010008AF
:10015000B7010008B7010008B7010008B70100089F
:10016000B7010008B7010008B7010008B70100088F
:10017000B7010008B7010008B7010008B70100087F
:10018000B7010008B7010008DFF80CD000F090F8C4
:100190000048004761190008502E0020064880479B
:1001A00006480047FEE7FEE7FEE7FEE7FEE7FEE75C
:1001B000FEE7FEE7FEE7FEE7050700088901000805
:1001C000EFF3108072B6704780F3108870472349B0
:1001D000086023494FF00000086022494FF00100F9
:1001E000086021484FF47F01D0F8002041EA020165
:1001F00001601E484FF08051016061B662B6194A35
:100200001368012B04D04FF001031360144A1060EF
:10021000124A116015484FF0805101607047EFF3AA
:10022000108272B60F48016891B14FF00001016071
:100230000B48016829B1EFF3098121E9F00F00684B
:100240000160064909680968B1E8F00F81F309887F
:1002500082F310884EF0040E70470000300000203A
:100260002C0000203400002020ED00E004ED00E030
:10027000034611F8012B00F8012B002AF9D118468A
:10028000704730B50B46014600202022012409E0CA
:1002900021FA02F59D4205D303FA02F5491B04FA3F
:1002A00002F52844151EA2F10102F1DC30BD000068
:1002B000064C074D06E0E06840F0010394E80700B3
:1002C00098471034AC42F6D3FFF762FF541D000884
:1002D000741D0008FEE7704770B586B0012108461E
:1002E00000F03AF90121102000F044F900248DF8C3
:1002F000164001208DF8170002258DF815508DF855
:100300001450400204901C4E04A9304600F038F806
:100310008DF814506902049104A9304600F030F8B9
:1003200007220A21304600F069F8072209213046E9
:1003300000F064F84FF4E1300090ADF80440ADF8FF
:100340000640ADF80840ADF80C400C20ADF80A00AE
:100350000A4C6946204600F06DFA00F0ABF8012225
:1003600040F22551204600F04AFA0121204600F0D3
:1003700013FA06B070BD00000000024000100140FA
:100380002DE9F041002201274FF0030C07FA02F596
:100390000B682B40AB422CD1066853000CFA03F4D7
:1003A000A64306600E79D0F800809E4046EA080613
:1003B00006600E79012E01D0022E12D18668A64366
:1003C00086604E79D0F808809E4046EA080686602E
:1003D0004668AE43466045688E799640B6B235436E
:1003E0004560C568A543C560CC799C40C3681C4383
:1003F000C460521C102AC9D3BDE8F08110B54B0768
:10040000DB0E9A40C90800EB8100016A0F249C4072
:10041000A1430162016A1143016210BDFEE70000C1
:100420001CB50121052000F097F801200090002064
:100430008DF804008DF8070069460548FFF7A0FF16
:100440004FF40050009069460248FFF799FF1CBD29
:1004500000000240000802402DE9FC41012120205B
:1004600000F07AF84024009401208DF80400002167
:100470008DF806108DF807008DF805100B4F6946B2
:100480003846FFF77DFF8026009669463846FFF71D
:1004900077FFA500009569463846FFF771FF0348CE
:1004A0001830048006800580BDE8FC8100140240FD
:1004B000FEE7704708B54FF4A06000F043F8252030
:1004C0008DF8000001208DF801008DF802008DF8F4
:1004D0000300684600F002F808BD000030B50F23A5
:1004E000C27801250178002A1FD0154A126802F44B
:1004F000E062C2F5E062C2F30722C2F10404D34015
:100500004278A24084781C401443220101F1E0218A
:1005100081F80024007800F01F018D404009800020
:1005200000F1E020C0F8005130BD01F01F0085400F
:100530004809800000F1E020C0F8805130BD000083
:100540000CED00E0024908430249086070470000D2
:100550000000FA050CED00E0054A002903D01168FF
:1005600001431160704711688143116070470000BA
:1005700030380240054A002903D011680143116058
:100580007047116881431160704700004438024091
:1005900070B5244B196801F00C01234C00291ED0C2
:1005A000224E04291DD008291DD00460196801F0CD
:1005B000F00109091E4A545C0168E14041601C6871
:1005C00004F4E054A40A145D21FA04F484601B6866
:1005D00003F460435B0BD25CD140C16070BD04602A
:1005E000E4E70660E2E70F4A121F1168C1F3805585
:1005F000116801F03F0135B1B6FBF1F11468C4F3A5
:100600008814614305E0B4FBF1F11468C4F3881465
:1006100061431268C2F30142521C5200B1FBF2F175
:100620000160C3E7083802400024F40040787D01EF
:1006300014000020704700000CB5002201920092C7
:100640002749086840F4803008604FF4A0430868E8
:1006500000F4003000900198401C0190009810B9FF
:1006600001989842F3D10868800302D501200090D8
:1006700000E000920098012831D11948403002680A
:1006800042F0805202601748026842F44042026021
:100690001348083002680260026842F400420260B7
:1006A000026842F4A0520260021F0F4B13600A68F6
:1006B00042F080720A600A689201FCD50B4A40F24F
:1006C00005711160016821F003010160016841F0CA
:1006D000020101600168C1F381010229FAD10CBD58
:1006E000003802400070004019544007003C0240AE
:1006F00010B500F0DBFC01F033F8BDE8104000F06D
:10070000E3BC000010B51248016841F470010160BB
:100710001048016841F0010101600E4A00210832D1
:10072000116002680C4B1A400260031D0B4A1A60EC
:10073000026822F48022026006480C300160FFF754
:100740007BFF03494FF000608039086010BD000056
:1007500088ED00E000380240FFFFF6FE1030002474
:1007600070B50B4D40F22551284600F028F80028BE
:100770000DD0284600F0BCF8C4B22146054800F070
:1007800047FD21462846BDE8704000F0B5B870BD71
:10079000001001408C220020002904D0818941F4FE
:1007A000005181817047818921F400518181704716
:1007B0000246002012880A4200D00120704770B51E
:1007C000002440F66A12C1F3421301F01F0501260E
:1007D00006FA05F2012B0CD0022B0DD0838A1340B0
:1007E000090A8E40008830400BB100B10124204638
:1007F00070BD83891340F3E7038A1340F0E710B517
:1008000040F66A13C1F3421301F01F040121A14015
:10081000012B07D0022B07D014303AB102680A43EB
:10082000026010BD0C30F8E71030F6E702688A432A
:10083000026010BD7FB504460D46208A20F4405169
:10084000E88808432082A08941F20C618843A98886
:100850002A8911436A8902431143A181A08A20F4A5
:100860004071A8890843A0826846FFF791FE1E48A0
:10087000844202D01D48844201D1039800E00298CE
:10088000A189090408D500EBC00101EB001029681B
:100890004900B0FBF1F007E000EBC00101EB0010F4
:1008A00029688900B0FBF1F06422B0FBF2F1090184
:1008B0000B096FF018056B4300EB8300A3891D043F
:1008C0004FF0320307D503EBC000B0FBF2F000F0AD
:1008D0000700084306E003EB0010B0FBF2F000F065
:1008E0000F00084320817FBD00100140001401402B
:1008F0008088C0F308007047C1F308018180704709
:10090000FEE700000FB4054B10B503A9044A029896
:1009100000F048F810BC5DF814FB00004D10000812
:10092000B4000020002801D0002103E0002070471F
:100930004010491CC207FBD00846704702E008C8B7
:10094000121F08C1002AFAD170477047002001E049
:1009500001C1121F002AFBD1704710B5029C24F080
:10096000010404744162826200210163C3620022B7
:1009700000EBC2011C3109604960521C012AF7DBFF
:1009800010BD10B5002200EBC2011C31D1E90034CA
:100990002360D1E90043636049600960521C012A69
:1009A000F1DB10BD2DE9FF4F8BB0884605460026D0
:1009B00006E025280BD0DDE90D1290476D1C761C52
:1009C00028780028F5D10FB03046BDE8F08F00241C
:1009D000A146A2460122AE4900E0044315F8013FBA
:1009E000203B02FA03F00842F7D128782A2810D0D9
:1009F0006FF02F022878A0F13001092915D809EBF2
:100A0000890102EB410144F0020400EB01096D1C75
:100A1000F0E758F8041B5FEA010903D544F40054D9
:100A2000C9F1000944F002046D1C28782E2817D162
:100A300015F8010F44F004042A280ED06FF02F029D
:100A40002878A0F1300109290AD80AEB8A0102EBC3
:100A5000410100EB010A6D1CF2E758F804AB6D1C74
:100A600028786C280FD006DC4C2817D068280DD0C9
:100A70006A2814D104E0742810D07A280FD10DE030
:100A800044F400140AE044F4801401E044F44014F7
:100A90006978814202D104F580146D1C6D1C2878A0
:100AA000692865D006DC00288DD0632827D064280B
:100AB00006D15DE06E2808D073282AD0752877D03B
:100AC000DDE90D129047761CE0E0C4F302500228E5
:100AD00009D003280DD0D8F8001004280DD00E60DE
:100AE00008F10408D2E0D8F80010F217C1E900625A
:100AF000F6E7D8F800100E80F2E70E70F0E718F86D
:100B0000041B8DF8001000208DF80100EB46012039
:100B100003E058F804BB4FF0FF3061074FF00007C7
:100B200001D40AE07F1C57450DDA8742FADB1BF837
:100B300007100029F6D106E07F1C8742FCDB1BF87A
:100B400007100029F8D1DDE90D23A9EB0700814644
:100B5000214600F0B1F83044C61904E0DDE90D1279
:100B60001BF8010B90477F1EF8D22146484688E0CB
:100B700058F8040BC4F302514FF00A0B032900D1BB
:100B800000B2042900D140B2002802DA40422D21EF
:100B900002E0210505D52B218DF82410012104E068
:100BA00006E0E10710D02021F6E708AF089113E036
:100BB00058F8040BC4F302514FF00A0B032900D17B
:100BC00080B2042900D1C0B20021EEE75946FFF7F8
:100BD00058FB303107F8011D0028F7D1ADEB0700B5
:100BE00000F1200B600702D524F4803401E04FF0BF
:100BF000010ADA4502DDAAEB0B0000E00020824684
:100C000000EB0B0108980144A9EB01000A90E003F6
:100C100006D4DDE90D2321460A9800F04DF806447C
:100C20004FF0000908E009A911F80900DDE90D12EB
:100C3000904709F10109761C08998945F3DBE00327
:100C40000CD5DDE90D2321460A9800F035F806445D
:100C500004E0DDE90D1230209047761CBAF1000166
:100C6000AAF1010AF5DC05E0DDE90D1217F8010B28
:100C70009047761CBBF10001ABF1010BF4DC0A9844
:100C80002146DDE90D2300F005F806446D1C97E6CA
:100C9000092801002DE9F041044600251E461746AB
:100CA000880404D405E039462020B0476D1C641E3A
:100CB000F9D52846BDE8F0812DE9F041044600252C
:100CC0001E469046C80301D5302700E0202788043F
:100CD00004D505E041463846B0476D1C641EF9D581
:100CE0002846BDE8F081000010B523A0FFF70AFEFA
:100CF00021A0FFF707FE20A0FFF704FE1EA0FFF7CC
:100D000001FE1DA0FFF7FEFD1BA0FFF7FBFD1AA0D3
:100D1000FFF7F8FD18A0FFF7F5FD17A0FFF7F2FDAC
:100D200015A0FFF7EFFD14A0FFF7ECFD12A0FFF7F1
:100D3000E9FD11A0FFF7E6FD0FA0FFF7E3FD0EA010
:100D4000FFF7E0FD0CA0FFF7DDFD0BA0FFF7DAFDDC
:100D500009A0FFF7D7FD08A0FFF7D4FD06A0FFF715
:100D6000D1FD05A0FFF7CEFD03A0FFF7CBFDBDE849
:100D7000104001A0FFF7C6BD202020202020202009
:100D80002020202020202020202020202020202063
:100D900020202020202020202020202020200D0A7C
:100DA0000000000010B507A0FFF7ACFD11A0FFF791
:100DB000A9FD1EA0FFF7A6FDBDE8104027A0FFF784
:100DC000A1BD0000707320202020202020202020A2
:100DD00020202020092D4C6973742074687265618D
:100DE000647320696E207468652073797374656D0F
:100DF0000D0A000076657273696F6E202020202036
:100E000020202020092D73686F772047532D5468C8
:100E1000726561642076657273696F6E20696E66B3
:100E20006F726D6174696F6E0D0A0000636C6561AD
:100E30007220202020202020202009092D636C65AD
:100E4000617220746865207465726D696E616C20D2
:100E500073637265656E0D0A000000007265626F53
:100E60006F7420202020202020202009092D526589
:100E7000626F6F742053797374656D0D0A00000002
:100E80002DE9F04184460D4616461F460A4CDFF810
:100E900024806146206808EB00100068FFF7E8F93D
:100EA000216808EB011045608660C760491C21601D
:100EB000BDE8F0810C160020A400002070B51BA036
:100EC000FFF720FD20A0FFF71DFD0024264D274E33
:100ED00028E055F8241026A091F84020FFF712FDD5
:100EE00055F8240090F84C00012807D0032809D0B9
:100EF00002280BD070B1042810D012E01FA0FFF719
:100F000001FD0EE01FA0FFF7FDFC0AE020A0FFF7A7
:100F1000F9FC06E021A0FFF7F5FC02E021A0FFF7B5
:100F2000F1FC641C30688442D3D370BD7468726570
:100F300061642020202020202070726920202073EE
:100F400074617475730D0A002D2D2D2D2D2D2D2DF1
:100F50002D2D2D2D202D2D2D2D202D2D2D2D2D2DDB
:100F60002D2D0D0A00000000BC280020B00000203C
:100F7000252D31327320252D346420007265616483
:100F8000790D0A0072756E6E696E670D0A000000B9
:100F900073757370656E640D0A000000696E697484
:100FA0000D0A0000636C6F73650D0A00BFF34F8F6D
:100FB00005480168054A01F4E06111430160BFF38F
:100FC0004F8F00BFFDE700000CED00E00400FA05C4
:100FD00000F028BE054C4FF47A75216881F040017D
:100FE0002160284600F086FAF7E70000141402405A
:100FF000054C4FF47A75216881F080012160284604
:1010000000F07AFAF7E7000014140240054C4FF4A0
:101010007A75216881F480712160284600F06AFAAF
:10102000F7E70000141402404FF4FA74204600F071
:1010300061FAFBE74FF4FA74204600F05BFAFBE735
:101040004FF4FA74204600F055FAFBE770B50446F9
:10105000064DE1B22846FFF74FFC80212846FFF7F6
:10106000A7FB0028F9D0204670BD00000010014009
:1010700030B50546121D22F00700A0F140042046BD
:101080000022094B40F82230521C102AFAD3016288
:10109000002141628162C1620163416385634FF057
:1010A0008071C163204630BDEFBEADDE10B5FFF7E5
:1010B00087F8044A1178491C1170BDE81040FFF709
:1010C00083B800004000002010B5FFF779F8044A0B
:1010D0001178491E1170BDE81040FFF775B8000087
:1010E000400000204268116042684A604160086028
:1010F0007047D0E900121160D0E9002151604060D2
:101100000060704770B503460D4A5068441C546037
:101110000C4A02EB401404F1140000604060E173DB
:10112000012020820025E5740E221946204600F099
:101130006BF92571FF20A074E561204670BD0000A9
:101140009C000020CC0F00200021074A02EB011375
:101150001B78834202D102EB01107047491C04291D
:10116000F4DD002070470000440000202DE9F0412C
:1011700005460E4617463046FFF7E6FF044646F0A2
:101180008000E8730F223946284600F03DF9FFF74A
:1011900017F81435241D69680C60696861606C601B
:1011A0002560BDE8F041FFF70FB88388026802EBC5
:1011B000530212780A70B0F908208188521EB2EBEF
:1011C000510F03D101F00101818005E0012202EB02
:1011D000510262F34F0181800120704710B50379FD
:1011E00000238479002403F00103838004F00103C9
:1011F000C380016022F00301018110BDC188808895
:101200004908B1EB500F01D1012070470020704711
:10121000C388026802EB53021170B0F90820C1883C
:10122000521EB2EB510F03D101F00101C18005E064
:10123000012202EB510262F34F01C180012070478D
:1012400070B5FEF7BDFF05460E4CA068FFF76AFBC0
:101250000D4901EBC00149683039626891420BD0F9
:10126000616020701C3102F11C00FEF7C8FF2846A7
:10127000BDE87040FEF7A8BF2846BDE87040FEF705
:10128000A3BF0000840000205409002070B505466B
:10129000FEF796FF012185F84C1095F840100A4A98
:1012A00005F1300402EBC1010A6854600A6822604B
:1012B0000C60616005496A6C8B681A438A60BDE8FE
:1012C0007040FEF781BF0000540900208400002018
:1012D00070B50546FEF774FF014605F13004D4E908
:1012E00000021060D4E9002050606460246095F82A
:1012F00040000A4A02EBC0004268824201D101204C
:1013000000E0002020B106486B6C82689A4382603E
:10131000BDE870400846FEF757BF000054090020A2
:101320008400002070B503460D4616460B480C4C51
:101330000168C1EBC10204EB8204491C016004F1A5
:101340001000006040600E221946204600F05CF854
:101350000020A0732583E673204670BD9C0000200A
:10136000540A00201FB500F0B7FC0F49C822A1F1B4
:101370000C00FFF733FF0A204FF47A71CDE901101A
:1013800003900A4A094800920023094A09A18438B7
:1013900000F0DCF80548843800F06CF904B007A0D0
:1013A000BDE81040FFF7AEBA98220020E4230020E9
:1013B000191600087368656C6C0000007368656C32
:1013C0006CC6F4B6AFB3C9B9A66F766572200D0AC4
:1013D0000000000010B500E0521C835C002BFBD124
:1013E0000BE0002200E0521C835C8C5CA34201D124
:1013F000002BF8D1825C2AB1491C0A78002AF0D16E
:10140000002010BD012010BD10B5002A07D00346F2
:1014100011F8014B03F8014B14B1521EF8D110BD65
:10142000002101E003F8011B521EFBD110BD00009A
:101430000021074A02EBC10000604060491C2029DE
:10144000F8DB04481F210170002141608160704772
:10145000540900208400002010B5074CA068FFF755
:1014600061FA064901EBC000406830386060BDE8B1
:1014700010401C30FEF7ABBE840000205409002051
:101480000021044A02EBC10000604060491C0029B1
:10149000F8D070479400002010B5FEF791FE134875
:1014A0004FF47A710068B0FBF1F0401EB0F1807F1C
:1014B00009D24FF0E02148610D4AF0201070002061
:1014C000886107200861FFF7DBFFFFF7B1FF00F03D
:1014D0001DF8FEF7C1FFFEF7A3FFFEF7FDFE00F0CB
:1014E000A1FBBDE81040FFF73DBF00000000002059
:1014F00023ED00E000F0A2B8FFF7FCBF024801684E
:10150000491C0160FBE700003C0000201FB50220E1
:1015100002021F21084BCDE90032CDE90210002361
:10152000064A07A1084800F011F804B00648BDE8D3
:10153000104000F09FB80000D0060020FD14000805
:1015400069646C6500000000D00800202DE9FC47AC
:101550000446DDE90A89DDE90C6592461F460A4624
:1015600000212046FFF702FE04F1300000604060D9
:101570001749164A086842F82040401C0860504647
:10158000C4F820A06762C4F82880C4F82C9008EB47
:101590000902121F3946FFF76BFDE06184F84060D5
:1015A00084F8416000206064A06484F84C00E56326
:1015B000A563009001902346064A214604F150009D
:1015C00000F036F90020BDE8FC870000BC280020B0
:1015D000B0000020D516000870B5044694F84C0001
:1015E00000F00F00022802D04FF0FF3070BDFEF770
:1015F000E7FD054604F13000FFF77BFD2846FEF7C6
:10160000E3FD2046FFF742FE002070BD0148006860
:101610007047000088000020054900224968AC316D
:101620004A600A6003A0FFF76DF9204600F050FA07
:10163000A40000206773202F3E00000031B5FEF7A4
:10164000BFFD05460A480468204600F026F804F16C
:1016500050006A460021044600F0D0F8204600F011
:10166000FDF82846FEF7B0FDFFF7EAFD002038BD83
:101670008800002010B540304178017001228A4076
:101680004260022101734038FFF7A6FFFFF7BEFF5B
:1016900008B1FFF7D5FD002010BD70B5044694F8E1
:1016A0004C0000F00F00012802D04FF0FF3070BD59
:1016B000FEF786FD0546022084F84C002046FFF721
:1016C00007FE04F1500000F033F92846FEF77CFDD8
:1016D000002070BD10B504466FF00100A06404F155
:1016E0003000FFF706FD2046FFF7D0FDBDE81040B3
:1016F000FFF7A6BD70B5FEF763FD06461348046804
:1017000094F84C0000F00F0001281AD1D4E90C1015
:10171000884216D004F130000546FFF7EAFC94F841
:1017200040000B4901EBC00001684D600168296071
:10173000056068603046FEF747FDFFF781FD002039
:1017400070BD3046FEF740FD002070BD88000020CF
:10175000540900200148006870470000380000204C
:1017600010B509490868401C0860FFF74FFF816BFE
:10177000491E816319B9C16B8163FFF7BBFFBDE8E7
:10178000104000F003B800003800002070B5FFF7EB
:10179000E1FF0546FEF714FD06461EE01C3C6FF017
:1017A0000041206B281A884220D22046FFF7E9F832
:1017B000D4E909108847FFF7CDFF0546207C810753
:1017C00008D5C10706D020F001002074204600F0A3
:1017D00045F802E020F00100207407484468844284
:1017E00001D1012000E000200028D7D03046BDE81C
:1017F0007040FEF7E9BC000094000020002909D0E9
:10180000012904D0022908D003290FD10AE0C06AB7
:1018100010600BE01168C16208E0017C21F0020158
:10182000017403E0017C41F0020101740020704763
:101830002DE9F8430746DDE9088415461E460A46A9
:1018400009213846FFF792FC43463246294638467E
:101850000094FFF782F8BDE8F88300002DE9F84313
:1018600005460024FEF7ACFC06462846FFF789F83B
:10187000287C20F0010028743046FEF7A5FCFFF715
:1018800069FFE96A08442863FEF79AFC0746DFF817
:101890009CC0CDF800C06E466FF000485CF8343054
:1018A0000BE04068A0EBC4012A6B4969914202D069
:1018B000891A414505D346F8240056F82400984279
:1018C000EFD12CB156F824100831621C46F82210D2
:1018D000641C002CE0D01548001FD0F8008008F1EF
:1018E0000108C0F8008005F11C010098FFF7FAFB21
:1018F00002240EE05FEA88700DD1C4F1010005EB0F
:10190000C0011C3156F82000FFF7ECFB4FEA9808A5
:10191000641C012CEED9287C40F001002874384664
:10192000FEF752FC0020BDE8F88300009400002080
:1019300070B50446207CC0070ED0FEF741FC05467A
:101940002046FFF71EF82846FEF73EFC207C20F0DC
:1019500001002074002070BD4FF0FF3070BD00000A
:101960007FB5FFF799FD0022012138A0FFF7DAFCCF
:10197000384C2060002138A0FFF7C4FB6060394874
:101980000426022580248DE871000023364A37A101
:10199000A0F54670FFF7DAFD3648FFF76BFE3148D9
:1019A000002380308DE85100334A34A10395A0F51F
:1019B0004570FFF7CBFD2F488430FFF75BFE3248C0
:1019C00003258DE851000023304A31A10395A0F58D
:1019D0004470FFF7BBFD3148FFF74CFE05202A4954
:1019E000CDE902058031CDE900142C4800232C4AB2
:1019F0002CA18430FFF7AAFD28488430FFF73AFE77
:101A000006202949CDE90205CDE900140023274A23
:101A100027A12A48FFF79AFD2848FFF72BFE072049
:101A20002149CDE902058031CDE900140D4800239C
:101A3000234A24A18438FFF789FD0A488438FFF738
:101A400019FEFFF709FD04B0002070BD47535F5336
:101A5000454D00002400002047535F6D7574657884
:101A600000000000D0030020D50F00086C65645F03
:101A700072656400B8000020F10F00086C65645FB7
:101A8000677265656E000000D00400200D1000082C
:101A90006C65645F79656C6C6F770000C001002035
:101AA0002910000853454D00D005002035100008CE
:101AB0004D555445585F445256000000C80200205E
:101AC000411000084D555445585F545354000000D0
:101AD000104E0025104C0EE00D2912D00A2910D00E
:101AE000A068421CA26031540CA0FEF70BFFA06856
:101AF000322800DBA56000F01BF80146FF29FAD070
:101B0000EAE7A1680029F6DD7554024800F024F8E0
:101B1000A560F0E7CC270020A40000207265636573
:101B2000697665206368203A202563200D0A00004D
:101B300008B50848FFF762FB20B10A20FFF7DCFC7C
:101B4000FF2008BD69460348FFF72FFB9DF8000002
:101B500008BD00008C2200202DE9F04781460F4689
:101B60000024184EDFF860800AE006EB0415686870
:101B7000B84204D148462968FFF72CFCA0B1641C88
:101B8000D8F800008442F0D33A4649460FA0FEF749
:101B9000B9FE15A0FEF7B6FE17A0FEF7B3FEBDE82E
:101BA000F04716A0FEF7AEBE06EB0410A968C068A9
:101BB0008847494613A0FEF7A5FEBDE8F04717A0E9
:101BC000FEF7A0BE0C160020A40000206D61746317
:101BD0006820636D643A2025732C206C656E3A2072
:101BE00025640D0A00000000636D64206E6F742090
:101BF000666F756E642100000D0A00006773202F68
:101C00003E0000006773202F3E20636D64203A2061
:101C10002573206F766572200D0A00006773202FF0
:101C20003E20000010B50BA0FEF76CFE0AA0FEF7E8
:101C300069FE0FA0FEF766FE13A0FEF763FE18A074
:101C4000FEF760FE1DA0FEF75DFEBDE8104002A09D
:101C5000FEF758BE0D0A00002D2D2D2D2D2D2D2DFA
:101C60002D2D2D2D2D2D2D2D2D2D2D2D0D0A000041
:101C70007C20202020202077656C636F6D652020FC
:101C80002020207C0D0A00007C20202020204753AB
:101C90002D746872656164202020207C0D0A00008C
:101CA0007C2020202076657273696F6E2020697316
:101CB00020202020207C0D0A000000007C20202015
:101CC000202020202056312E3020202020202020AF
:101CD0002020207C0D0A000010B500230F4A0721A8
:101CE0000FA0FFF7CDF800230F4A05210FA0FFF743
:101CF000C7F800230F4A02210FA0FFF7C1F8002305
:101D00000E4A06210EA0FFF7BBF80023BDE81040E5
:101D10000D4A04210DA0FFF7B3B80000D10F000851
:101D200076657273696F6E00E90C0008636C65611B
:101D300072000000BD0E000870730000AD0F0008B7
:101D40007265626F6F740000A50D000868656C70A5
:101D500000000000741D000800000020B800000012
:101D60003C0900082C1E0008B8000020982D000037
:101D70004C090008007A030A00000000000000007F
:101D80000102030406070809000000000102030421
:101D9000010203040607080900000000000000001B
:101DA0000000000000000000000000000000000033
:101DB00000000000000000000000000048000020BB
:101DC00048000020840000000100000058000020AE
:101DD000580000201C0000000200000068000020E5
:101DE000680000202000000000000000000000004B
:101DF00000000000000000000000000000000000E3
:101E000000000000000000000000000000000000D2
:101E1000000000000000000000000000002800207A
:0C1E2000000000000000000000000000B6
:040000050800018965
:00000001FF
