:020000040800F2
:10000000182600209D010008B30400081D04000804
:10001000B1040008D5020008F5080008000000003F
:10002000000000000000000000000000350600088D
:10003000D7020008000000001F020008F1060008B7
:10004000B7010008B7010008B7010008B7010008B0
:10005000B7010008B7010008B7010008B7010008A0
:10006000B7010008B7010008B7010008B701000890
:10007000B7010008B7010008B7010008B701000880
:10008000B7010008B7010008B7010008B701000870
:10009000B7010008B7010008B7010008B701000860
:1000A000B7010008B7010008B7010008B701000850
:1000B000B7010008B7010008B7010008B701000840
:1000C000B7010008B7010008B7010008B701000830
:1000D000B701000861070008B7010008B701000870
:1000E000B7010008B7010008B7010008B701000810
:1000F000B7010008B7010008B7010008B701000800
:10010000B7010008B7010008B7010008B7010008EF
:10011000B7010008B7010008B7010008B7010008DF
:10012000B7010008B7010008B7010008B7010008CF
:10013000B7010008B7010008B7010008B7010008BF
:10014000B7010008B7010008B7010008B7010008AF
:10015000B7010008B7010008B7010008B70100089F
:10016000B7010008B7010008B7010008B70100088F
:10017000B7010008B7010008B7010008B70100087F
:10018000B7010008B7010008DFF80CD000F090F8C4
:1001900000480047A516000818260020064880479A
:1001A00006480047FEE7FEE7FEE7FEE7FEE7FEE75C
:1001B000FEE7FEE7FEE7FEE7050700088901000805
:1001C000EFF3108072B6704780F3108870472349B0
:1001D000086023494FF00000086022494FF00100F9
:1001E000086021484FF47F01D0F8002041EA020165
:1001F00001601E484FF08051016061B662B6194A35
:100200001368012B04D04FF001031360144A1060EF
:10021000124A116015484FF0805101607047EFF3AA
:10022000108272B60F48016891B14FF00001016071
:100230000B48016829B1EFF3098121E9F00F00684B
:100240000160064909680968B1E8F00F81F309887F
:1002500082F310884EF0040E70470000300000203A
:100260002C0000203400002020ED00E004ED00E030
:10027000034611F8012B00F8012B002AF9D118468A
:10028000704730B50B46014600202022012409E0CA
:1002900021FA02F59D4205D303FA02F5491B04FA3F
:1002A00002F52844151EA2F10102F1DC30BD000068
:1002B000064C074D06E0E06840F0010394E80700B3
:1002C00098471034AC42F6D3FFF762FF3C190008A0
:1002D0005C190008FEE7704770B586B0012108463A
:1002E00000F03AF90121102000F044F900248DF8C3
:1002F000164001208DF8170002258DF815508DF855
:100300001450400204901C4E04A9304600F038F806
:100310008DF814506902049104A9304600F030F8B9
:1003200007220A21304600F069F8072209213046E9
:1003300000F064F84FF4E1300090ADF80440ADF8FF
:100340000640ADF80840ADF80C400C20ADF80A00AE
:100350000A4C6946204600F067FA00F0ABF801222B
:1003600040F22551204600F044FA0121204600F0D9
:100370000DFA06B070BD0000000002400010014000
:100380002DE9F041002201274FF0030C07FA02F596
:100390000B682B40AB422CD1066853000CFA03F4D7
:1003A000A64306600E79D0F800809E4046EA080613
:1003B00006600E79012E01D0022E12D18668A64366
:1003C00086604E79D0F808809E4046EA080686602E
:1003D0004668AE43466045688E799640B6B235436E
:1003E0004560C568A543C560CC799C40C3681C4383
:1003F000C460521C102AC9D3BDE8F08110B54B0768
:10040000DB0E9A40C90800EB8100016A0F249C4072
:10041000A1430162016A1143016210BDFEE70000C1
:100420001CB50121052000F097F801200090002064
:100430008DF804008DF8070069460548FFF7A0FF16
:100440004FF40050009069460248FFF799FF1CBD29
:1004500000000240000802402DE9FC41012120205B
:1004600000F07AF84024009401208DF80400002167
:100470008DF806108DF807008DF805100B4F6946B2
:100480003846FFF77DFF8026009669463846FFF71D
:1004900077FFA500009569463846FFF771FF0348CE
:1004A0001830048006800580BDE8FC8100140240FD
:1004B000FEE7704708B54FF4A06000F043F8252030
:1004C0008DF8000001208DF801008DF802008DF8F4
:1004D0000300684600F002F808BD000030B50F23A5
:1004E000C27801250178002A1FD0154A126802F44B
:1004F000E062C2F5E062C2F30722C2F10404D34015
:100500004278A24084781C401443220101F1E0218A
:1005100081F80024007800F01F018D404009800020
:1005200000F1E020C0F8005130BD01F01F0085400F
:100530004809800000F1E020C0F8805130BD000083
:100540000CED00E0024908430249086070470000D2
:100550000000FA050CED00E0054A002903D01168FF
:1005600001431160704711688143116070470000BA
:1005700030380240054A002903D011680143116058
:100580007047116881431160704700004438024091
:1005900070B5244B196801F00C01234C00291ED0C2
:1005A000224E04291DD008291DD00460196801F0CD
:1005B000F00109091E4A545C0168E14041601C6871
:1005C00004F4E054A40A145D21FA04F484601B6866
:1005D00003F460435B0BD25CD140C16070BD04602A
:1005E000E4E70660E2E70F4A121F1168C1F3805585
:1005F000116801F03F0135B1B6FBF1F11468C4F3A5
:100600008814614305E0B4FBF1F11468C4F3881465
:1006100061431268C2F30142521C5200B1FBF2F175
:100620000160C3E7083802400024F40040787D01EF
:1006300014000020704700000CB5002201920092C7
:100640002749086840F4803008604FF4A0430868E8
:1006500000F4003000900198401C0190009810B9FF
:1006600001989842F3D10868800302D501200090D8
:1006700000E000920098012831D11948403002680A
:1006800042F0805202601748026842F44042026021
:100690001348083002680260026842F400420260B7
:1006A000026842F4A0520260021F0F4B13600A68F6
:1006B00042F080720A600A689201FCD50B4A40F24F
:1006C00005711160016821F003010160016841F0CA
:1006D000020101600168C1F381010229FAD10CBD58
:1006E000003802400070004019544007003C0240AE
:1006F00010B500F023FC00F0D5FEBDE8104000F07E
:100700002BBC000010B51248016841F47001016073
:100710001048016841F0010101600E4A00210832D1
:10072000116002680C4B1A400260031D0B4A1A60EC
:10073000026822F48022026006480C300160FFF754
:100740007BFF03494FF000608039086010BD000056
:1007500088ED00E000380240FFFFF6FE1030002474
:1007600010B5094C40F22551204600F022F800282F
:1007700008D0204600F0B6F8C1B22046BDE81040CF
:1007800000F0B4B810BD000000100140002904D0F2
:10079000818941F4005181817047818921F40051A0
:1007A000818170470246002012880A4200D0012051
:1007B000704770B5002440F66A12C1F3421301F08D
:1007C0001F05012606FA05F2012B0CD0022B0DD0D5
:1007D000838A1340090A8E40008830400BB100B173
:1007E0000124204670BD83891340F3E7038A134038
:1007F000F0E710B540F66A13C1F3421301F01F048D
:100800000121A140012B07D0022B07D014303AB1AF
:1008100002680A43026010BD0C30F8E71030F6E7BA
:1008200002688A43026010BD7FB504460D46208AE7
:1008300020F44051E88808432082A08941F20C61ED
:100840008843A9882A8911436A8902431143A181F7
:10085000A08A20F44071A8890843A0826846FFF767
:1008600097FE1E48844202D01D48844201D103985D
:1008700000E00298A189090408D500EBC00101EB52
:10088000001029684900B0FBF1F007E000EBC0015F
:1008900001EB001029688900B0FBF1F06422B0FB85
:1008A000F2F109010B096FF018056B4300EB8300AF
:1008B000A3891D044FF0320307D503EBC000B0FB42
:1008C000F2F000F00700084306E003EB0010B0FB75
:1008D000F2F000F00F00084320817FBD00100140BE
:1008E000001401408088C0F308007047C1F308017C
:1008F00081807047FEE700000FB4054B10B503A9D7
:10090000044A029800F048F810BC5DF814FB00009F
:10091000DD0E0008AC000020002801D0002103E01B
:10092000002070474010491CC207FBD008467047A2
:1009300002E008C8121F08C1002AFAD170477047A8
:10094000002001E001C1121F002AFBD1704710B541
:10095000029C24F001044472C161026200218162A0
:100960004362002200EBC201143109604960521C4D
:10097000012AF7DB10BD10B5002200EBC2011431D3
:10098000D1E900342360D1E9004363604960096024
:10099000521C012AF1DB10BD2DE9FF4F8BB08846B8
:1009A0000546002606E025280BD0DDE90D1290470C
:1009B0006D1C761C28780028F5D10FB03046BDE8B4
:1009C000F08F0024A146A2460122AE4900E0044374
:1009D00015F8013F203B02FA03F00842F7D12878CE
:1009E0002A2810D06FF02F022878A0F130010929B1
:1009F00015D809EB890102EB410144F0020400EB38
:100A000001096D1CF0E758F8041B5FEA010903D5E2
:100A100044F40054C9F1000944F002046D1C287824
:100A20002E2817D115F8010F44F004042A280ED0FF
:100A30006FF02F022878A0F1300109290AD80AEBBB
:100A40008A0102EB410100EB010A6D1CF2E758F844
:100A500004AB6D1C28786C280FD006DC4C2817D00E
:100A600068280DD06A2814D104E0742810D07A28A0
:100A70000FD10DE044F400140AE044F4801401E0C6
:100A800044F440146978814202D104F580146D1C4D
:100A90006D1C2878692865D006DC00288DD0632875
:100AA00027D0642806D15DE06E2808D073282AD0AC
:100AB000752877D0DDE90D129047761CE0E0C4F38D
:100AC0000250022809D003280DD0D8F800100428BD
:100AD0000DD00E6008F10408D2E0D8F80010F2172B
:100AE000C1E90062F6E7D8F800100E80F2E70E7058
:100AF000F0E718F8041B8DF8001000208DF80100B5
:100B0000EB46012003E058F804BB4FF0FF306107CB
:100B10004FF0000701D40AE07F1C57450DDA8742E9
:100B2000FADB1BF807100029F6D106E07F1C87428C
:100B3000FCDB1BF807100029F8D1DDE90D23A9EB38
:100B400007008146214600F0B1F83044C61904E0A0
:100B5000DDE90D121BF8010B90477F1EF8D22146EC
:100B6000484688E058F8040BC4F302514FF00A0BD2
:100B7000032900D100B2042900D140B2002802DAD2
:100B800040422D2102E0210505D52B218DF82410AE
:100B9000012104E006E0E10710D02021F6E708AFCC
:100BA000089113E058F8040BC4F302514FF00A0BFC
:100BB000032900D180B2042900D1C0B20021EEE7A0
:100BC0005946FFF75EFB303107F8011D0028F7D1C9
:100BD000ADEB070000F1200B600702D524F4803450
:100BE00001E04FF0010ADA4502DDAAEB0B0000E05C
:100BF0000020824600EB0B0108980144A9EB01009C
:100C00000A90E00306D4DDE90D2321460A9800F09E
:100C10004DF806444FF0000908E009A911F8090051
:100C2000DDE90D12904709F10109761C0899894503
:100C3000F3DBE0030CD5DDE90D2321460A9800F033
:100C400035F8064404E0DDE90D1230209047761CAB
:100C5000BAF10001AAF1010AF5DC05E0DDE90D12A7
:100C600017F8010B9047761CBBF10001ABF1010BAB
:100C7000F4DC0A982146DDE90D2300F005F806446E
:100C80006D1C97E6092801002DE9F0410446002576
:100C90001E461746880404D405E039462020B04794
:100CA0006D1C641EF9D52846BDE8F0812DE9F041A0
:100CB000044600251E469046C80301D5302700E0B3
:100CC0002027880404D505E041463846B0476D1C0E
:100CD000641EF9D52846BDE8F081000010B51FA0BC
:100CE000FFF70AFE1DA0FFF707FE1CA0FFF704FE9A
:100CF0001AA0FFF701FE19A0FFF7FEFD17A0FFF7EE
:100D0000FBFD16A0FFF7F8FD14A0FFF7F5FD13A0FB
:100D1000FFF7F2FD11A0FFF7EFFD10A0FFF7ECFDCC
:100D20000EA0FFF7E9FD0DA0FFF7E6FD0BA0FFF712
:100D3000E3FD0AA0FFF7E0FD08A0FFF7DDFD07A037
:100D4000FFF7DAFD05A0FFF7D7FD04A0FFF7D4FDFC
:100D5000BDE8104001A0FFF7CFBD000020202020FB
:100D60002020202020202020202020202020202083
:100D70002020202020202020202020202020202073
:100D800020200D0A00000000704700002DE9F0410E
:100D900084460D4616461F460A4CDFF824806146FD
:100DA000206808EB00100068FFF762FA216808EB82
:100DB000011045608660C760491C2160BDE8F08174
:100DC00004140020A400002070B51BA0FFF794FDC0
:100DD0001FA0FFF791FD0024234D244E28E055F875
:100DE000241023A091F83820FFF786FD55F8240041
:100DF00090F84400012807D0032809D002280BD01E
:100E000070B1042810D012E01CA0FFF775FD0EE0B1
:100E10001CA0FFF771FD0AE01DA0FFF76DFD06E0C5
:100E20001EA0FFF769FD02E01EA0FFF765FD641C30
:100E300030688442D3D370BD7468726561642020C9
:100E4000202070726920207374617475730D0A001C
:100E50002D2D2D2D2D2D2D2D20202D2D2D20202DF6
:100E60002D2D2D2D2D0D0A0084200020A8000020FE
:100E7000252D38732020252D3564000072656164AE
:100E8000790D0A0072756E6E696E670D0A000000BA
:100E900073757370656E640D0A000000696E697485
:100EA0000D0A0000636C6F73650D0A00704700F057
:100EB000B1BC4FF4FA74204600F0CCF9FBE74FF4D4
:100EC000FA74204600F0C8F9FBE74FF4FA742046A4
:100ED00000F0C0F9FBE7FEE7FEE7FEE770B5044669
:100EE000064DE1B22846FFF701FD80212846FFF7B5
:100EF00059FC0028F9D0204670BD000000100140C8
:100F000030B50546121D22F00700A0F1400420462E
:100F10000022094B40F82230521C102AFAD30162F9
:100F2000002141628162C1620163416385634FF0C8
:100F30008071C163204630BDEFBEADDE10B5FFF756
:100F40003FF9044A1178491C1170BDE81040FFF7C1
:100F50003BB900004000002010B5FFF731F9044A0A
:100F60001178491E1170BDE81040FFF72DB900003F
:100F7000400000204268116042684A604160086099
:100F80007047D0E900121160D0E900215160406043
:100F90000060704770B503460E4A5068441C5460A8
:100FA0000D4AC0EBC00002EB800404F110000060A9
:100FB0004060217201206081002565730722194677
:100FC000204600F0D1F82571FF202073A56120464E
:100FD00070BD00009C0000208C0E00200021074AFC
:100FE00002EB01131B78834202D102EB0110704720
:100FF000491C0429F4DD0020704700004400002053
:101000002DE9F04105460E4617463046FFF7E6FF4C
:10101000044646F08000287208223946284600F02F
:10102000A3F8FFF7CDF80C35241D69680C606968DA
:1010300061606C602560BDE8F041FFF7C5B8000055
:1010400070B5FFF7BDF805460E4CA068FFF764FCCD
:101050000D4901EBC00149682839626891420BD003
:1010600061602070143102F11400FFF7C8F82846BF
:10107000BDE87040FFF7A8B82846BDE87040FFF70C
:10108000A3B8000084000020DC08002070B50546ED
:10109000FFF796F8012185F8441095F838100A4AB0
:1010A00005F1280402EBC1010A6854600A68226055
:1010B0000C6061600549EA6B8B681A438A60BDE881
:1010C0007040FFF781B80000DC0800208400002099
:1010D00070B50546FFF774F8014605F12804D4E918
:1010E00000021060D4E9002050606460246095F82C
:1010F00038000A4A02EBC0004268824201D1012056
:1011000000E0002020B10648EB6B82689A438260C1
:10111000BDE870400846FFF757B80000DC08002023
:101120008400002070B503460D4616460B480C4C53
:10113000016801EB410204EBC204491C016004F1A7
:101140000C000060406007221946204600F00CF8B1
:101150000020E071A5822672204670BD9C00002010
:10116000DC09002000F0ACBB10B5002A07D0034614
:1011700011F8014B03F8014B14B1521EF8D110BD08
:10118000002101E003F8011B521EFBD110BD00003D
:101190000021074A02EBC10000604060491C202981
:1011A000F8DB04481F210170002141608160704715
:1011B000DC0800208400002010B5074CA068FFF771
:1011C000ABFB064901EBC000406828386060BDE811
:1011D00010401430FEF7FBBF84000020DC08002024
:1011E0000021044A02EBC10000604060491C002954
:1011F000F8D070479400002010B5FEF7E1FF1348C7
:101200004FF47A710068B0FBF1F0401EB0F1807FBE
:1012100009D24FF0E02148610D4AF0201070002003
:10122000886107200861FFF7DBFFFFF7B1FF00F0DF
:1012300021F8FFF711F9FFF7F3F8FFF74DF800F089
:10124000E9FABDE81040FFF78DBF00000000002064
:1012500023ED00E000F094B84FF47A714843FFF7B3
:10126000F9BF000002480168491C0160FBE700006B
:101270003C0000201FB5022002021F21084BCDE9CF
:101280000032CDE902100023064A07A1084800F009
:1012900011F804B00648BDE8104000F08DB8000019
:1012A000680600206512000869646C650000000093
:1012B000680800202DE9FC470446DDE90A89DDE9DC
:1012C0000C6592461F460A4600212046FFF798FE0D
:1012D00004F12800006040601749164A086842F887
:1012E0002040401C08605046C4F818A0E761C4F8CC
:1012F0002080C4F8249008EB0902121F3946FFF73A
:10130000FFFD606184F8386084F839600020E06394
:10131000206484F8440065632563009001902346AF
:10132000064A214604F1480000F024F90020BDE8F7
:10133000FC87000084200020A80000201914000869
:1013400070B5044694F8440000F00F00022802D063
:101350004FF0FF3070BDFEF733FF054604F1280063
:10136000FFF70FFE2846FEF72FFF2046FFF78EFE01
:10137000002070BD01480068704700008800002010
:1013800031B5FEF71DFF05460A480468204600F007
:1013900026F804F148006A460021044600F0D0F81F
:1013A000204600F0FDF82846FEF70EFFFFF748FE46
:1013B000002038BD8800002010B538304178017019
:1013C00001228A404260022101733838FFF7B8FFDA
:1013D000FFF7D0FF08B1FFF733FE002010BD70B556
:1013E000044694F8440000F00F00012802D04FF0AA
:1013F000FF3070BDFEF7E4FE0546022084F844008D
:101400002046FFF765FE04F1480000F033F9284656
:10141000FEF7DAFE002070BD10B504466FF0010043
:10142000206404F12800FFF7ACFD2046FFF72EFEF4
:10143000BDE81040FFF704BE70B5FEF7C1FE0646DA
:101440001348046894F8440000F00F0001281AD1F2
:10145000D4E90A10884216D004F128000546FFF7A7
:1014600090FD94F838000B4901EBC00001684D6015
:1014700001682960056068603046FEF7A5FEFFF749
:10148000DFFD002070BD3046FEF79EFE002070BDDF
:1014900088000020DC080020014800687047000038
:1014A0003800002010B509490868401C0860FFF7A3
:1014B00061FF016B491E016319B9416B0163FFF7BD
:1014C000BBFFBDE8104000F003B80000380000206A
:1014D00070B5FFF7E1FF0546FEF772FE06461EE017
:1014E000143C6FF00041A06A281A884220D220469E
:1014F000FFF741FAD4E907108847FFF7CDFF05460B
:10150000607A810708D5C10706D020F0010060721B
:10151000204600F045F802E020F001006072074824
:101520004468844201D1012000E000200028D7D087
:101530003046BDE87040FEF747BE00009400002032
:10154000002909D0012904D0022908D003290FD18C
:101550000AE0406A10600BE01168416208E0417ADD
:1015600021F00201417203E0417A41F0020141722F
:10157000002070472DE9F8430746DDE90884154649
:101580001E460A4609213846FFF73AFD43463246D1
:10159000294638460094FFF7DAF9BDE8F8830000E1
:1015A0002DE9F84305460024FEF70AFE06462846C4
:1015B000FFF7E1F9687A20F0010068723046FEF723
:1015C00003FEFFF769FF696A0844A862FEF7F8FDA9
:1015D0000746DFF89CC0CDF800C06E466FF00048AB
:1015E0005CF834300BE04068A0EBC401AA6A49699A
:1015F000914202D0891A414505D346F8240056F895
:1016000024009842EFD12CB156F824100831621C06
:1016100046F82210641C002CE0D01548001FD0F8BA
:10162000008008F10108C0F8008005F1140100985D
:10163000FFF7A0FC02240EE05FEA88700DD1C4F130
:10164000010005EBC001143156F82000FFF792FCB1
:101650004FEA9808641C012CEED9687A40F001002A
:1016600068723846FEF7B0FD0020BDE8F883000040
:101670009400002070B50446607AC0070ED0FEF7D3
:101680009FFD05462046FFF776F92846FEF79CFDAC
:10169000607A20F001006072002070BD4FF0FF30D2
:1016A00070BD00007FB5FFF7A7FD0022012139A022
:1016B000FFF738FD394C2060002139A0FFF76AFCA4
:1016C00060603A480426022580248DE871000023DA
:1016D000374A38A1A0F52E70FFF7ECFD3748FFF729
:1016E0006BFE3248002380308DE85100344A35A12A
:1016F0000395A0F53170FFF7DDFD30487430FFF73A
:101700005BFE334803258DE851000023314A32A1A6
:101710000395A0F53470FFF7CDFD2848E830FFF7BA
:101720004BFE2B4905208031CDE90205CDE900149F
:1017300000232C4A2CA12D48FFF7BCFD2B48FFF7B6
:101740003BFE0620CDE902052949CDE900142748D2
:101750000023284A28A17430FFF7ACFD23487430D9
:10176000FFF72AFE07202249CDE902058031CDE9A5
:1017700000140E480023234A23A17438FFF79AFD72
:101780000A487438FFF718FEFFF716FD04B0002072
:1017900070BD000047535F53454D000024000020FA
:1017A00047535F6D75746578000000006803002082
:1017B000B30E00086C65645F72656400B0000020C1
:1017C000BF0E00086C65645F677265656E0000009F
:1017D00068040020CB0E00086C65645F79656C6C52
:1017E0006F770000D70E000853454D000C02002013
:1017F00068050020D90E00084D555445585F4452E5
:1018000056000000DB0E00084D555445585F5453F8
:101810005400000010B50AA0FFF76EF80EA0FFF705
:101820006BF813A0FFF768F817A0FFF765F81DA085
:10183000FFF762F8BDE8104001A0FFF75DB80000B7
:101840002D2D2D2D2D2D2D2D2D2D2D2D2D2D2D2DC8
:101850002D2D2D2D0D0A00007C202020202020770A
:10186000656C636F6D6520202020207C0D0A0000D0
:101870007C202020202047532D74687265616420ED
:101880002020207C0D0A00007C202020207665721C
:1018900073696F6E2020697320202020207C0D0A40
:1018A000000000007C202020202020202056312E07
:1018B00030202020202020202020207C0D0A000025
:1018C00010B500230F4A07210FA0FFF75FFA00238E
:1018D0000F4A05210FA0FFF759FA00230F4A0221F2
:1018E0000FA0FFF753FA00230E4A06210EA0FFF7C0
:1018F0004DFA0023BDE810400D4A04210DA0FFF76A
:1019000045BA0000AF0E000876657273696F6E000D
:10191000DD0C0008636C656172000000C90D0008F1
:1019200070730000AD0E00087265626F6F74000086
:10193000890D000868656C70000000005C190008E3
:1019400000000020B0000000300900080C1A000858
:10195000B00000206825000040090008007A030A52
:10196000000000000000000001020304060708094F
:101970000000000001020304010203040607080935
:101980000000000000000000000000000000000057
:101990000000000000000000000000000000000047
:1019A00000000000480000204800002074000000F3
:1019B000010000005800002058000020180000001E
:1019C0000200000068000020680000201C000000E9
:1019D0000000000000000000000000000000000007
:1019E00000000000000000000000000000000000F7
:1019F00000000000000000000000000000000000E7
:0C1A0000000000000000000000000000DA
:040000050800018965
:00000001FF
