:020000040800F2
:10000000281700209D010008A5010008A302000890
:10001000A9010008AB010008AD01000800000000C4
:10002000000000000000000000000000AF01000818
:10003000B101000800000000EF01000849070008B6
:10004000B7010008B7010008B7010008B7010008B0
:10005000B7010008B7010008B7010008B7010008A0
:10006000B7010008B7010008B7010008B701000890
:10007000B7010008B7010008B7010008B701000880
:10008000B7010008B7010008B7010008B701000870
:10009000B7010008B7010008B7010008B701000860
:1000A000B7010008B7010008B7010008B701000850
:1000B000B7010008B7010008B7010008B701000840
:1000C000B7010008B7010008B7010008B701000830
:1000D000B7010008B7010008B7010008B701000820
:1000E000B7010008B7010008B7010008B701000810
:1000F000B7010008B7010008B7010008B701000800
:10010000B7010008B7010008B7010008B7010008EF
:10011000B7010008B7010008B7010008B7010008DF
:10012000B7010008B7010008B7010008B7010008CF
:10013000B7010008B7010008B7010008B7010008BF
:10014000B7010008B7010008B7010008B7010008AF
:10015000B7010008B7010008B7010008B70100089F
:10016000B7010008B7010008B7010008B70100088F
:10017000B7010008B7010008B7010008B70100087F
:10018000B7010008B7010008DFF80CD000F0A0F8B4
:1001900000480047F502000828170020064880475D
:1001A00006480047FEE7FEE7FEE7FEE7FEE7FEE75C
:1001B000FEE7FEE7FEE7FEE75D07000889010008AD
:1001C000EFF3108072B6704780F3108870473A4A98
:1001D0001368012B04D04FF001031360374A1060FD
:1001E000374A116037484FF0805101607047EFF394
:1001F000108272B63048016851B34FF000010160BF
:100200002E48016891B1EFF309811EF0100F08BF6D
:1002100021ED108B21E9F00F4FF000041EF0100FBC
:1002200008BF012441F8044D0068016024490968B1
:10023000096808C9B1E8F00F002B18BFB1EC108BAA
:1002400081F309884EF0100E002B18BF2EF0100E0F
:1002500082F310884EF0040E704719490860EFF3DE
:10026000148222F0040282F3148814494FF0000033
:10027000086011494FF00100086013484FF47F01F6
:10028000D0F8002041EA020101600E484FF0805191
:1002900001600E480068006880F3088861B662B6A5
:1002A0007047EFF3098000B500F0EEFE5DF804EB57
:1002B0004EF0040E70470000CC000020C400002067
:1002C000C800002004ED00E020ED00E008ED00E0B3
:1002D000064C074D06E0E06840F0010394E8070093
:1002E00098471034AC42F6D3FFF752FFF4250008CC
:1002F0001426000810B5FFF763FF02F053F8002042
:1003000010BD000070B586B00121084600F052F91A
:100310000121102000F05CF900248DF81640012026
:100320008DF8170002258DF815508DF814504002F5
:1003300004901C4E04A9304600F038F88DF8145093
:100340006902049104A9304600F030F807220A211E
:10035000304600F069F807220921304600F064F8C1
:100360004FF4E1300090ADF80440ADF80640ADF830
:100370000840ADF80C400C20ADF80A000A4C694664
:10038000204600F047FA00F0C3F8012240F2255160
:10039000204600F024FA0121204600F00DFA06B0B4
:1003A00070BD000000000240001001402DE9F04146
:1003B000002201274FF0030C07FA02F50B682B40CF
:1003C000AB422CD1066853000CFA03F4A643066036
:1003D0000E79D0F800809E4046EA080606600E7945
:1003E000012E01D0022E12D18668A64386604E7976
:1003F000D0F808809E4046EA080686604668AE430C
:10040000466045688E799640B6B235434560C5680A
:10041000A543C560CC799C40C3681C43C460521C92
:10042000102AC9D3BDE8F08110B54B07DB0E9A4006
:10043000C90800EB8100016A0F249C40A1430162BE
:10044000016A1143016210BD0246002012690A428E
:1004500000D00120704700001CB50121052000F0EC
:10046000A9F80120009000208DF804008DF8070005
:1004700069460548FFF79AFF4FF40050009069461F
:100480000248FFF793FF1CBD000002400008024035
:1004900070B504460D4629462046FFF7D5FF0128D2
:1004A00001D0002070BD29462046FFF7CDFF01286E
:1004B000F9D0012070BD00002DE9FC410121202070
:1004C00000F078F84024009401208DF80400002109
:1004D0008DF806108DF807008DF805100B4F694652
:1004E0003846FFF763FF8026009669463846FFF7D7
:1004F0005DFFA500009569463846FFF757FF0348A2
:100500001830048006800580BDE8FC81001402409C
:1005100008B54FF4A06000F043F825208DF80000E6
:1005200001208DF801008DF802008DF80300684667
:1005300000F002F808BD000030B50F23C278012595
:100540000178002A1FD0154A126802F4E062C2F551
:10055000E062C2F30722C2F10404D3404278A24011
:1005600084781C401443220101F1E02181F8002429
:10057000007800F01F018D404009800000F1E0206C
:10058000C0F8005130BD01F01F00854048098000CF
:1005900000F1E020C0F8805130BD00000CED00E01B
:1005A0000249084302490860704700000000FA054C
:1005B0000CED00E0054A002903D0116801431160E9
:1005C0007047116881431160704700003038024065
:1005D000054A002903D01168014311607047116872
:1005E00081431160704700004438024070B5244BCD
:1005F000196801F00C01234C00291ED0224E042959
:100600001DD008291DD00460196801F0F001090906
:100610001E4A545C0168E14041601C6804F4E054E7
:10062000A40A145D21FA04F484601B6803F4604397
:100630005B0BD25CD140C16070BD0460E4E7066032
:10064000E2E70F4A121F1168C1F38055116801F0EB
:100650003F0135B1B6FBF1F11468C4F3881461436E
:1006600005E0B4FBF1F11468C4F388146143126827
:10067000C2F30142521C5200B1FBF2F10160C3E728
:10068000083802400024F40040787D011400002066
:100690000CB50022019200922749086840F480308E
:1006A00008604FF4A043086800F4003000900198FF
:1006B000401C0190009810B901989842F3D1086845
:1006C000800302D50120009000E0009200980128EC
:1006D00031D119484030026842F080520260174818
:1006E000026842F440420260134808300268026027
:1006F000026842F400420260026842F4A0520260C2
:10070000021F0F4B13600A6842F080720A600A6889
:100710009201FCD50B4A40F205711160016821F08D
:1007200003010160016841F0020101600168C1F349
:1007300081010229FAD10CBD00380240007000404E
:1007400019544007003C024010B500F03FFD01F095
:10075000CBFBBDE8104000F047BD000010B51248CB
:10076000016841F4700101601048016841F0010125
:1007700001600E4A00210832116002680C4B1A40D9
:100780000260031D0B4A1A60026822F48022026094
:1007900006480C300160FFF77BFF03494FF0006013
:1007A0008039086010BD000088ED00E0003802408C
:1007B000FFFFF6FE10300024002904D0818941F4A7
:1007C000005181817047818921F4005181817047F6
:1007D0000246002012880A4200D00120704710B55E
:1007E00040F66A13C1F3421301F01F040121A14036
:1007F000012B07D0022B07D014303AB102680A430C
:10080000026010BD0C30F8E71030F6E702688A434A
:10081000026010BD7FB504460D46208A20F4405189
:10082000E88808432082A08941F20C618843A988A6
:100830002A8911436A8902431143A181A08A20F4C5
:100840004071A8890843A0826846FFF7CFFE1E4882
:10085000844202D01D48844201D1039800E00298EE
:10086000A189090408D500EBC00101EB001029683B
:100870004900B0FBF1F007E000EBC00101EB001014
:1008800029688900B0FBF1F06422B0FBF2F10901A4
:100890000B096FF018056B4300EB8300A3891D045F
:1008A0004FF0320307D503EBC000B0FBF2F000F0CD
:1008B0000700084306E003EB0010B0FBF2F000F085
:1008C0000F00084320817FBD00100140001401404B
:1008D000C1F3080181807047002807D00F4910F04C
:1008E000FF0F05D0C0B2085C401C70470020704765
:1008F00010F47F4F04D0C0F30720085C0930704724
:1009000010F47F0F04D0C0F30740085C113070472B
:1009100001EB10600078193070470000C024000817
:1009200002E008C8121F08C1002AFAD170477047B8
:10093000002001E001C1121F002AFBD17047000016
:1009400003480168814201D00120704700207047B0
:10095000AC0000202DE9FC411F46DDE90A65DDE918
:100960000831044604F11400406000601C346260E9
:10097000A760E36021610A462321184600F085FD47
:10098000D4E903014218D4E90101121F0D4B00F014
:10099000FDFB2060A67666760020E0612562656238
:1009A000606120766065A0651C3C00900190234644
:1009B000054A214604F1440001F00CFB0020BDE88B
:1009C000FC810000191C00085D1E000810B5029C87
:1009D00024F001044472C161026200218162436219
:1009E00000EBC102143252601260491C0129F7DB8E
:1009F00010BD10B5002200EBC2011431D1E9004353
:100A00006360D1E90034236049600960521C012A07
:100A1000F1DB10BD2DE9FC4128A000F03FFC35A022
:100A200000F03CFC3BA000F039FC02203226CDE96E
:100A3000000647023B4600223F4940A001F0C3F8B0
:100A4000414C20604FF0FF35002828D001F0D2F94A
:100A500001463EA000F022FC44A000F01FFC032051
:100A6000CDE900063B46002249494AA001F0ABF817
:100A70006060002818D001F0BDF9014648A000F0E0
:100A80000DFC4FA000F00AFC00230A22282155A0EB
:100A900000F01EFDA06060B10020BDE8FC8153A005
:100AA00000F0FCFB2846F8E758A000F0F7FB2846CA
:100AB000F3E75EA000F0F2FB2846EEE7D5E2CAC7F6
:100AC000D2BBB8F65BD2B0BBF05D2D53544D333280
:100AD00020C8ABCFB5C1D0BFAAB7A2B0E520525451
:100AE0005420CFFBCFA2B6D3C1D0CAB5D1E9A3A1C0
:100AF0000A000000B0B4CFC2204B3120BBF2D5DFDA
:100B0000204B3220B7A2CBCDB6D3C1D0CFFBCFA2E2
:100B10000A0000007265636569766520CFDFB3CC9B
:100B2000BDD3CAD5B5BDCFFBCFA2D4DAB4AEBFDA40
:100B3000BBD8CFD40A000000D123000873656E64CF
:100B40005F746872656164002400002073656E64E0
:100B50005F7468726561642073746172747570206B
:100B60007265743A2025640D0A00000073656E6496
:100B70005F74687265616420737461727465642067
:100B80007375636365737366756C6C79210D0A0008
:100B9000D90D0008726563765F74687265616400E0
:100BA000726563765F7468726561642073746172E4
:100BB000747570207265743A2025640D0A00000077
:100BC000726563765F7468726561642073746172C4
:100BD000746564207375636365737366756C6C7993
:100BE000210D0A00746573745F6D710073656E6426
:100BF0005F74687265616420637265617465206604
:100C000061696C6564210D0A0000000072656376FD
:100C10005F746872656164206372656174652066E3
:100C200061696C6564210D0A000000004D657373F5
:100C300061676520717565756520637265617469AA
:100C40006F6E206661696C6564210A0010B500F062
:100C50002BF9BDE81040FFF7DDBE000030B5134CA6
:100C600041682268114402F1080388420DD04D8882
:100C70005DB96568A94208D0A5688D4200D1A06021
:100C80004D6845604968851ACD508168114481429C
:100C90000BD04D88002D08D1A568854200D1A160F8
:100CA00044684C604068891AC15030BD380000204B
:100CB0002DE9FF4FDDE90DB60F9D6C0602D5DFF87B
:100CC00014A103E0DFF80CA1AAF1110AEC0601D58A
:100CD00025F00105EC0702D04FF0300901E04FF09C
:100CE00020090027AC070BD5002A02DA2D27524233
:100CF00006E06C0701D52B2702E02C0700D5202742
:100D00000024EE467AB9302201248DF800200CE050
:100D10000A2B15D002F00F081209A4461AF8088011
:100D2000641C0EF80C80002AF2D1B44200DD264685
:100D3000ABEB060215F0110F4FF0200309D016E0BF
:100D40004FF00A0CB2FBFCF80CFB1828B2FBFCF2CB
:100D5000E3E73FB1002A05DD521E03E0884200D8D8
:100D60000370401CB2F1000CA2F10102F6DC27B1C5
:100D7000884201D80770521E401CED0605D508E0D8
:100D8000884201D880F80090401C151EA2F1010293
:100D9000F6DC302703E0884200D80770401C354657
:100DA000761EA542F7DC05E0884202D81EF8045002
:100DB0000570401C251EA4F10104F5DC03E0884207
:100DC00000D80370401C141EA2F10102F7DC04B02D
:100DD000BDE8F08FD125000808B54FF0FF350B4C6A
:100DE0000AE00BA0009900F059FA02E011A000F00F
:100DF00055FAC82000F00DFF2B4604226946A06872
:100E000000F0AEFB01460029F0D1EAE72400002003
:100E100072656365697665207468726561642067D0
:100E20006574206D6573736167653A2025640D0AEA
:100E300000000000726563656976652074687265FC
:100E4000616420676574206D6573736167652066F2
:100E500061696C65643A203078256C780D0A000071
:100E60001CB502211420CDE900100B020022044918
:100E700004A000F0A8FEBDE81C4000F0BBBF0000CD
:100E80004D0C00086D61696E0000000070B5044CE7
:100E9000044D02E020688047241DAC42FAD370BDA7
:100EA000E8250008EC25000870B5044C044D02E06C
:100EB00020688047241DAC42FAD370BDEC250008A1
:100EC000F025000810B5FFF77BF9044A5188491C4A
:100ED0005180BDE81040FFF777B90000A000002066
:100EE00010B5FFF76DF9094A5188491E09B25180C2
:100EF000002907DC00215180FFF766F9BDE81040AA
:100F000000F066BCBDE81040FFF75EB9A00000200D
:100F100070B5002833D01A4D296888422FD36968EC
:100F200088422CD2A0F10C044FF0FF31154800F09C
:100F30000CFD60884FF4F55610B12088B04208D0FF
:100F400011A000F0ABF923886288214615A000F0BB
:100F5000A5F9002060802680A868844200D2AC6099
:100F600029686068611A401A2969081A28612046B0
:100F7000FFF774FEBDE87040024800F0C6BC70BDCB
:100F800038000020C8120020746F2066726565204A
:100F90006120626164206461746120626C6F636BC4
:100FA0003A0A00006D656D3A203078253038782C8B
:100FB000207573656420666C61673A2025642C2077
:100FC0006D6167696320636F64653A20307825300E
:100FD00034780A0000487047D0000020004870476D
:100FE000D010002010B513484FF47A710068B0FBA0
:100FF000F1F0401EB0F1807F09D24FF0E02148614E
:101000000D4AF02010700020886107200861FFF76A
:1010100053FAFFF721FAFFF775F9FFF737FFFFF7EC
:10102000DDFF0446FFF7D6FF2146BDE8104000F083
:1010300037BD00000000002023ED00E070B504463D
:10104000FFF740FF0F4D16E00A2809D10D21284671
:10105000FFF73EFC80212846FFF7BAFB0028F9D0B5
:1010600014F8011B2846FFF733FC80212846FFF7C0
:10107000AFFB0028F9D020780028E5D1BDE870400A
:10108000FFF72EBF0010014010B504461748016855
:10109000002903D020468847002826D014A0E16903
:1010A00000F0FCF816A0A16900F0F8F818A061693A
:1010B00000F0F4F81AA0216900F0F0F81CA0E16833
:1010C00000F0ECF81EA0A16800F0E8F820A061682C
:1010D00000F0E4F822A0216800F0E0F800F064FEDF
:1010E000014623A000F0DAF8FEE710BDC0000020A2
:1010F0007073723A203078253038780A000000008A
:101100002070633A203078253038780A00000000DB
:10111000206C723A203078253038780A00000000C0
:101120007231323A203078253038780A00000000D9
:101130007230333A203078253038780A00000000C9
:101140007230323A203078253038780A00000000BA
:101150007230313A203078253038780A00000000AB
:101160007230303A203078253038780A000000009C
:1011700068617264206661756C74206F6E2074689B
:10118000726561643A2025730A00000070B5064656
:10119000121D22F00700A0F14405284600220A4C47
:1011A00040F82240521C112AFAD341620021816288
:1011B000C162016341638363C6634FF0807202645E
:1011C0000160284670BD0000EFBEADDE10B5FEF731
:1011D000F7FF044A1178491C1170BDE81040FEF772
:1011E000F3BF00003400002010B5FEF7E9FF044A09
:1011F0001178491E1170BDE81040FEF7E5BF0000F0
:101200003400002010B50068143800F0AFFD002055
:1012100010BD70B505464FF0FF340AE0FEF7D0FF71
:10122000064628681438046300F0A0FD3046FEF737
:10123000CBFF284600F060F80028EFD0002070BDFA
:101240002DE9F04105460E461446304600F0E5FD16
:1012500006F1140714B1012C1DD104E039462846CB
:1012600000F043F817E02C680DE0A4F1140096F8A4
:10127000351090F83520914204D23946143000F0F0
:1012800034F802E02468AC42EFD1AC4203D13946D5
:10129000284600F02AF80020BDE8F0810FB408B518
:1012A00003AB00937F210548029A00F02BFF03480F
:1012B000FFF7C4FE01B05DF814FB000048120020E7
:1012C0000268516002680A60016048607047026805
:1012D000516002680A6001604860704702685160AE
:1012E00002680A60016048607047426811604268A5
:1012F0004A604160086070470168814201D1012065
:101300007047002070470168814201D10120704779
:1013100000207047D0E900215160D0E9001211602F
:10132000406000607047D0E900215160D0E90012B0
:1013300011604060006070472DE9F047002809D037
:10134000C01C20F003053B4EF068854204D9002004
:10135000BDE8F0870020FBE70C2D00D20C254FF0F4
:10136000FF31354800F0F1FAB7683168781AD6F8DD
:101370000CC0ACEB050356E00C1862888ABB6268AF
:10138000121A0C3AAA424DD3626805F11803121AD8
:101390000C3A4FF001094FF4F5589A4222D3431901
:1013A0000C33CA18A2F800804FF0000AA2F802A07D
:1013B000D4F804A0C2F804A090606360A4F802907E
:1013C00050680CF10C0C604502D001F1080283500A
:1013D000306928440C303061726982420ED27061EB
:1013E0000CE01FE0A4F802906068621A801A32696B
:1013F000104430617269824200D27061A4F80080AA
:10140000BC4203D008E040680844B060B06842883D
:1014100012B172689042F6D1074800F076FA04F1F2
:101420000C0095E760688342A6D8034800F06DFA87
:1014300000208DE738000020C812002030B5034698
:10144000102A1ED301F0030403F003052C430BD034
:1014500017E00C681C604C685C608C689C60CC6811
:101460001031DC601033103A102AF2D202E010C9B9
:1014700010C3121F042AFAD203E011F8014B03F83B
:10148000014B521E541CF8D130BD10B50346CCB2EE
:10149000042A15D3810713D1014644EA042343EA01
:1014A000034305E00B604B608B60CB601031103A5A
:1014B000102AF7D201E008C1121F042AFBD20B4602
:1014C000E1B201E003F8011B521E541CFAD110BD19
:1014D0002DE9F0410D4616461F460146052000F055
:1014E000FAF80446200016D067721430406000609D
:1014F000ED1C4FF6FC7005402584B0B260842D1DB4
:101500006843FFF719FFE06140B10022A262E26286
:101510002263002010E02046BDE8F081204600F064
:1015200011F80020F8E7218CE369091D00FB013167
:10153000236B0B602163401C618C8142F3DCA2842D
:101540002046E9E710B5044604F11400FFF761FEF8
:10155000E069FFF7DDFC204600F0E2F8002010BD56
:101560002DE9FF5F04469146002600F01DFC05466C
:10157000FEF726FE0746A08C6FF0010B08B9039812
:1015800010B14FF0000840E03846FEF71DFE584607
:1015900004B0BDE8F09FC5F830800398F0B1627ADE
:1015A000294604F11400FFF74BFE039800280CDDD8
:1015B00000F094FC064605F1440003AA002182468F
:1015C00000F0DEFC504600F01BFD3846FEF7FCFD47
:1015D00000F0FEF8286B40B1286BD9E73846FEF7DB
:1015E000F3FD5846C5F830B0D2E7FEF7E9FD0746EF
:1015F0000398002809DD00F071FC861B0398801B0E
:101600000390002801DACDF80C80A08C0028C2D00D
:10161000A56A2868A062E06AA84201D1C4F82C80BB
:10162000A08C401EA0843846FEF7CEFD208C484595
:1016300000D281464A46291D0198FFF7FFFEFEF7BA
:10164000BFFD216B29602563FEF7BEFD00209FE7EB
:101650002DE9F04104460F461646208CB04203D2D5
:101660004FF0FF30BDE8F081FEF7AAFD256BA5B174
:1016700029682163FEF7A8FD00202860324639461C
:10168000281DFFF7DBFEFEF79BFD0646E06A00B172
:101690000560E562A06A28B105E0FEF795FD6FF0F0
:1016A0000200DFE7A562A08C401CA08404F11400B6
:1016B0000446FFF721FE20B13046FEF785FD0020ED
:1016C000D0E72046FFF79EFD3046FEF77DFD00F097
:1016D0007FF80020C6E72DE9F04106460F46304668
:1016E00000F03EF80546E868FFF726FE0446ACB178
:1016F00026720020607208223946204600F0BCF9AC
:10170000FEF75EFD064604F10C01281DFFF7D8FD2B
:101710003046FEF759FD2046BDE8F0810020FBE78A
:1017200070B50446FEF74CFD054604F10C00FFF7CA
:10173000F1FD2846FEF748FD2046BDE87040FFF762
:10174000E7BB70B50446FEF73BFD054604F10C000F
:10175000FFF7E0FD2846BDE87040FEF735BD00000C
:101760000021074A02EB01131B78834202D102EBEE
:1017700001107047491C0529F4DB00207047000068
:10178000500000202DE9F04104460D46174628463A
:10179000FFF7E6FF064645F0800020720822394632
:1017A000204600F069F9FEF70BFD054604F10C0137
:1017B000301DFFF785FD2846BDE8F041FEF704BD6A
:1017C000007A000601D50120704700207047000014
:1017D00070B5FEF7F5FC0546174C608820B1284629
:1017E000BDE87040FEF7F0BCA068FFF775F8421E38
:1017F000124850F8321014396068814216D02270B5
:1018000061600F4A127842B11C311C30FEF7DFFCD8
:101810002846BDE87040FEF7D7BC1C311C30FEF7EF
:10182000D6FC2846BDE87040FEF7CEBC2846BDE891
:101830007040FEF7C9BC0000A0000020E8120020A4
:101840003400002010B50446FEF7BAFC024614F836
:10185000340F20F00F00401C207060780A49343C9F
:1018600001EBC00104F114004B6818604B68436041
:10187000486001600548A16B836819438160BDE839
:1018800010401046FEF7A0BCE8120020A000002087
:1018900070B50546FEF794FC014605F11404D4E941
:1018A00000205060D4E9000210606460246095F864
:1018B00035000A4A02EBC0000268824201D10120D1
:1018C00000E0002020B10648AB6B82689A4382603A
:1018D000BDE870400846FEF777BC0000E812002023
:1018E000A00000202DE9F041054616461F460A4695
:1018F00001212846FFF746FF2C461434646024601B
:10190000AE836F720020BDE8F0812DE9F0410446FE
:101910000025FEF755FC064604F114000746FFF7C4
:10192000EBFC40B1A08B401CA0833046FEF74CFC82
:10193000012D05D006E03846FFF764FC0125F4E7E9
:10194000FFF746FF0020BDE8F08173B50446FEF7BF
:1019500037FC0646A08B28B1401EA0833046FEF718
:1019600033FC21E0019808B300F01EFA0546002080
:101970002863627A294604F11400FFF761FC01989C
:10198000002809DD05F1440001AA0021044600F009
:10199000F7FA204600F034FB3046FEF715FCFFF75F
:1019A00017FF286B002800D100207CBD3046FEF7D1
:1019B0000BFC6FF001007CBD08B509A0FFF76EFCC1
:1019C0000AA0FFF76BFC12A0032300900022194627
:1019D00012A0FFF763FCBDE8084018A0FFF75EBC4B
:1019E0000A205C207C202F0A000000002D20525489
:1019F000202D2020202020546872656164204F70C3
:101A000065726174696E672053797374656D0A003D
:101A10004A756E203132203230323500202F207C42
:101A2000205C202020202025642E25642E25642083
:101A30006275696C642025730A0000002032303022
:101A400036202D203230313820436F70797269672B
:101A500068742062792072742D74687265616420E4
:101A60007465616D0A000000014600E0491C0A78B7
:101A7000002AFBD1081A704710B5002A07D0034688
:101A800011F8014B03F8014B14B1521EF8D110BDEF
:101A9000002101E003F8011B521EFBD110BD000024
:101AA00070B505460A46E81C20F0030122F0030346
:101AB000182B21D9A3F118048C421DD3114C5A1AAA
:101AC000183AE26021604FF4F5530B800C324A6003
:101AD00000208860488048680844606003800121D5
:101AE0004180426082600023012207A10848FFF77D
:101AF000F9FE2068A06070BD2946BDE8704005A0D1
:101B0000FFF7CCBB38000020686561700000000062
:101B1000C81200206D656D20696E69742C20657295
:101B2000726F7220626567696E20616464726573AA
:101B30007320307825782C20616E6420656E6420D7
:101B40006164647265737320307825780A00000040
:101B500010B50A4B00245C800020094A02EBC0014A
:101B600049600960401C0828F8DB072018705C6099
:101B70009C6002480C304060006010BDA000002056
:101B8000E812002010B5074CA068FEF7A5FE401E25
:101B9000054951F8300014386060BDE810401C3031
:101BA000FEF75BBBA0000020E81200200020044AE2
:101BB00002EBC00149600960401C0028F8D0704762
:101BC000B800002070472DE9FF478046DDE90C672B
:101BD000894692461D4641460020FFF77CFD04469B
:101BE00020000FD02846FFF7A7FB68B18DE8E10081
:101BF00053464A4641462046FEF7ACFE204604B016
:101C0000BDE8F0870020FAE72046FFF789FD0020B5
:101C1000F5E700F0CFB8000070B513480468FEF790
:101C2000CFFA05462046FFF733FE042084F834003F
:101C300004F1440000F0BEF92046FFF7C1FD012881
:101C400001D1206F58B104F114010848FFF73FFBA0
:101C50002846FEF7B9FABDE87040FFF7B9BD204647
:101C6000FFF76FFDF4E70000A4000020AC000020A7
:101C700000F002F8FCE7000070B527E0FEF7A0FADC
:101C80000646FEF75DFE68B319480468A4F1140522
:101C9000D4E900104860D4E9000108606460246061
:101CA000FFF710F9296F09B1284688472846FFF742
:101CB00087FD01280FD0FFF713F93046FEF784FAAD
:101CC000A86AFFF725F92846FFF72AFDFEF738FE38
:101CD0000028D3D170BDFFF703F93046BDE870404E
:101CE000FEF772BA3046BDE87040FEF76DBA0000EC
:101CF000AC0000201FB52020C2000721094BCDE910
:101D00000210CDE9003207480023074A07A17838BE
:101D100000F010F804B00348BDE81040783800F037
:101D200069B8000048110020711C00087469646CD7
:101D3000650000002DE9FF5F8146DDE90E76DDE9F3
:101D40001054884692469B46424600214846FFF77B
:101D500019FDCDE90076CDE902545B465246414675
:101D60004846FEF7F7FD04B0BDE8F09F70B50446A5
:101D700094F8340000F00F00022802D04FF0FF303A
:101D800070BDFEF71DFA054604F11400FFF7CBFA0B
:101D900004F1440000F09EF92846FEF715FA2046AB
:101DA000FFF750FD002070BD01480068704700003B
:101DB000A4000020F1B5FEF703FA05460C480468BC
:101DC000204600F02AF804F144006A460021064645
:101DD00000F0D6F8304600F013F92846FEF7F4F983
:101DE000FFF7F6FC206B801C00D120630020F8BDBB
:101DF000A400002010B534308178417001228A405F
:101E00004260022100F83419FFF7B0FFFFF7CCFF62
:101E100008B1FFF7DDFC002010BD70B5044694F852
:101E2000340000F00F00012802D04FF0FF3070BDE9
:101E3000FEF7C6F9054694F8340020F00F00801C28
:101E400084F834002046FFF723FD04F1440000F03D
:101E500041F92846FEF7B8F9002070BD10B50446D8
:101E60006FF00100206304F11400FFF75CFA2046D4
:101E7000FFF7E8FCBDE81040FFF7AABC70B5FEF71D
:101E80009FF906461348046894F8340000F00F00E8
:101E900001281AD1D4E90501884216D004F11400B2
:101EA0000546FFF740FA94F835000B4901EBC000F6
:101EB00041680D6041686960456028603046FEF702
:101EC00083F9FFF785FC002070BD3046FEF77CF9F2
:101ED000002070BDA4000020E81200200148006826
:101EE000704700003000002010B509490868401C08
:101EF0000860FFF759FF016C491E016419B9C16BF5
:101F00000164FFF7BBFFBDE8104000F003B800001C
:101F10003000002070B5FFF7E1FF0646FEF750F9EC
:101F2000054620E015480468143C6FF00041A06AA3
:101F3000301A88421CD22046FEF75BFDD4E9071018
:101F40008847FFF7CBFF0646607A810708D5C107AF
:101F500006D020F001006072204600F051F802E047
:101F600020F0010060720548FFF7CDF90028D9D0B4
:101F70002846BDE87040FEF727B90000B8000020F1
:101F8000002909D0012904D0022908D003290FD142
:101F90000AE0406A10600BE01168416208E0417A93
:101FA00021F00201417203E0417A41F002014172E5
:101FB0000020704770B50546FEF702F90446284632
:101FC000FEF717FD2046FEF7FFF82846FFF7B9FB9E
:101FD000002070BD2DE9F8430746DDE90884154669
:101FE0001E460A4609213846FFF7CCFB43463246D7
:101FF000294638460094FEF7E9FCBDE8F883000066
:102000002DE9F8430446FEF7DBF805462046FEF7C7
:10201000F0FC607A20F0010060722846FEF7D4F8E8
:10202000FFF75CFF616A0844A062FEF7C9F8074643
:10203000DFF89CC0CDF800C000226E460CEBC20059
:1020400045680DE00068A0EBC201A36A49699942A6
:1020500004D0C91A6FF00043994205D346F8220014
:1020600056F82200A842EDD12AB156F822100831C4
:10207000531C46F82310521C002ADFD01448001FBE
:10208000D0F8008008F10108C0F8008004F11401C4
:102090000098FFF723F902250EE05FEA88700DD162
:1020A000C5F1010004EBC001143156F82000FFF720
:1020B00015F94FEA98086D1C012DEED9607A40F0B1
:1020C000010060723846FEF77FF80020BDE8F88313
:1020D000B800002070B50446607AC0070ED0FEF745
:1020E0006FF805462046FEF784FC2846FEF76CF89C
:1020F000607A20F001006072002070BD4FF0FF3068
:1021000070BD00002DE9FF4F83B082460AEB010746
:102110007F1E5446A74201D24FF0FF374FF02009EF
:102120004FF0250B12E1252804D0BC4200D82070C6
:10213000641C08E100250599491C059108782D28A3
:1021400014D02B2815D0202816D0232817D03028BB
:1021500018D04FF0FF384646059A1278303A0A2ACE
:1021600013D205A800F098F906461AE045F01005CC
:10217000E1E745F00405DEE745F00805DBE745F05B
:102180002005D8E745F00105D5E72A2809D1491CE3
:102190000591069840C80690002E02DA764245F076
:1021A0001005059801782E2918D1401C059001785A
:1021B000A1F130020A2A04D205A800F06DF9804688
:1021C00007E02A2905D1401C0590069850F8048B99
:1021D0000690B8F1000F01DA4FF000080021059ACF
:1021E0001078682801D06C2802D10146521C059253
:1021F0000A23059800786F2871D00CDC632820D062
:1022000004DC25286CD058280DD187E0642801D043
:10221000692808D186E0702863D073282FD07528EC
:1022200071D078287CD0BC4201D884F800B0641CFE
:1022300005990878002868D0BC4200D82070641C3A
:1022400081E0E80605D507E0BC4201D884F800909B
:10225000641C761E002EF7DC069810F8041B06900E
:10226000C8B2BC4200D82070641C04E0BC4201D853
:1022700084F80090641C761E002EF7DC63E006985C
:1022800008C8069003B941A31846FFF7EDFBB8F163
:10229000000F02DD404500DD4046E90605D508E0B7
:1022A000BC4201D884F80090641C3146761E8142FD
:1022B000F6DC002106E0BC4201D81A782270641CCA
:1022C0005B1C491C8142F6DB04E0BC4201D884F867
:1022D0000090641C3146761E8142F6DC33E01BE040
:1022E00014E0701C02D1082645F00105CDE9006814
:1022F00006980295102304C8069039462046FEF73A
:10230000D7FC04461FE00FE00AE028E0BC4201D8F9
:1023100084F800B0641C16E0082305E045F0400591
:10232000102301E045F002056C291BD068291DD05F
:10233000069804C80690CDE9006839462046029503
:10234000FEF7B6FC04460598401C059005980078F9
:1023500000287FF4E8AEBC4211D8207010E0491E7E
:102360000591F0E7069804C80690E4E7069830F86F
:10237000041B06908AB2A807DDD512B2DBE73870DD
:1023800007B0A4EB0A00BDE8F08F0000284E554CC2
:102390004C29000000207047002070470020704743
:1023A0000020704710B5FDF70BFFFEF71BFEFFF78F
:1023B00003FBFFF7FBFBFFF7CBFBFEF751FDFFF73E
:1023C00001FCFFF797FCFFF7DDFB002010BD0000CC
:1023D0001CB50120019002200090194D194F1A4C94
:1023E000060301212846FEF753F8012809D10422EB
:1023F00001A9A068FFF72CF9014649B113A0FEF727
:102400004DFF31463846FEF743F8012805D00EE06F
:1024100019A00199FEF742FFF3E704226946A0687C
:10242000FFF716F9014631B108A0FEF737FF642027
:10243000FFF7EFFBD5E710A00099FEF72FFFF6E7B7
:1024400000000240000802402400002073656E6412
:10245000207468726561642073656E64206D6573B5
:1024600073616765206661696C65643A2030782520
:102470006C780D0A0000000073656E642074687249
:102480006561642073656E64206D65737361676553
:102490003A2025640D0A000010B5024600206FF0B6
:1024A0002F0407E04B1C1360097800EB800004EB5D
:1024B0004000084411680B78303B0A2BF2D310BD62
:1024C0000000010002000100030001000200010001
:1024D00004000100020001000300010002000100ED
:1024E00005000100020001000300010002000100DC
:1024F00004000100020001000300010002000100CD
:1025000006000100020001000300010002000100BA
:1025100004000100020001000300010002000100AC
:10252000050001000200010003000100020001009B
:10253000040001000200010003000100020001008C
:102540000700010002000100030001000200010079
:10255000040001000200010003000100020001006C
:10256000050001000200010003000100020001005B
:10257000040001000200010003000100020001004C
:10258000060001000200010003000100020001003A
:10259000040001000200010003000100020001002C
:1025A000050001000200010003000100020001001B
:1025B000040001000200010003000100020001000C
:1025C00030313233343536373839616263646566A9
:1025D000003031323334353637383941424344459F
:1025E00046000000A1230008992300089523000855
:1025F0009D2300081426000800000020D0000000E1
:1026000020090008E4260008D00000205816000029
:1026100030090008007A030A0000000000000000F2
:102620000102030406070809000000000102030478
:102630000102030406070809000000000000000072
:10264000000000000000000000000000000000008A
:10265000000000000000000000000000000000007A
:102660000000000000000000540000205400002082
:1026700078000000010000006400002064000020D9
:1026800020000000040000007400002074000020FE
:1026900030000000050000008400002084000020BD
:1026A0003400000009000000940000209400002085
:1026B0002C000000000000000000000000000000EE
:1026C000000000000000000000000000000000000A
:1026D00000000000000000000000000000000000FA
:0426E00000000000F6
:040000050800018965
:00000001FF
