:020000040800F2
:10000000301700209D010008A5010008A302000888
:10001000A9010008AB010008AD01000800000000C4
:10002000000000000000000000000000AF01000818
:10003000B101000800000000EF01000811070008EE
:10004000B7010008B7010008B7010008B7010008B0
:10005000B7010008B7010008B7010008B7010008A0
:10006000B7010008B7010008B7010008B701000890
:10007000B7010008B7010008B7010008B701000880
:10008000B7010008B7010008B7010008B701000870
:10009000B7010008B7010008B7010008B701000860
:1000A000B7010008B7010008B7010008B701000850
:1000B000B7010008B7010008B7010008B701000840
:1000C000B7010008B7010008B7010008B701000830
:1000D000B7010008B7010008B7010008B701000820
:1000E000B7010008B7010008B7010008B701000810
:1000F000B7010008B7010008B7010008B701000800
:10010000B7010008B7010008B7010008B7010008EF
:10011000B7010008B7010008B7010008B7010008DF
:10012000B7010008B7010008B7010008B7010008CF
:10013000B7010008B7010008B7010008B7010008BF
:10014000B7010008B7010008B7010008B7010008AF
:10015000B7010008B7010008B7010008B70100089F
:10016000B7010008B7010008B7010008B70100088F
:10017000B7010008B7010008B7010008B70100087F
:10018000B7010008B7010008DFF80CD000F0A0F8B4
:1001900000480047F5020008301700200648804755
:1001A00006480047FEE7FEE7FEE7FEE7FEE7FEE75C
:1001B000FEE7FEE7FEE7FEE72507000889010008E5
:1001C000EFF3108072B6704780F3108870473A4A98
:1001D0001368012B04D04FF001031360374A1060FD
:1001E000374A116037484FF0805101607047EFF394
:1001F000108272B63048016851B34FF000010160BF
:100200002E48016891B1EFF309811EF0100F08BF6D
:1002100021ED108B21E9F00F4FF000041EF0100FBC
:1002200008BF012441F8044D0068016024490968B1
:10023000096808C9B1E8F00F002B18BFB1EC108BAA
:1002400081F309884EF0100E002B18BF2EF0100E0F
:1002500082F310884EF0040E704719490860EFF3DE
:10026000148222F0040282F3148814494FF0000033
:10027000086011494FF00100086013484FF47F01F6
:10028000D0F8002041EA020101600E484FF0805191
:1002900001600E480068006880F3088861B662B6A5
:1002A0007047EFF3098000B500F0ACFE5DF804EB99
:1002B0004EF0040E70470000D0000020C80000205F
:1002C000CC00002004ED00E020ED00E008ED00E0AF
:1002D000064C074D06E0E06840F0010394E8070093
:1002E00098471034AC42F6D3FFF752FF982200082B
:1002F000B822000810B5FFF763FF01F0E1FE00200F
:1003000010BD000070B586B00121084600F036F936
:100310000121102000F040F900248DF81640012042
:100320008DF8170002258DF815508DF814504002F5
:1003300004901C4E04A9304600F038F88DF8145093
:100340006902049104A9304600F030F807220A211E
:10035000304600F069F807220921304600F064F8C1
:100360004FF4E1300090ADF80440ADF80640ADF830
:100370000840ADF80C400C20ADF80A000A4C694664
:10038000204600F02BFA00F0A7F8012240F2255198
:10039000204600F008FA0121204600F0F1F906B0ED
:1003A00070BD000000000240001001402DE9F04146
:1003B000002201274FF0030C07FA02F50B682B40CF
:1003C000AB422CD1066853000CFA03F4A643066036
:1003D0000E79D0F800809E4046EA080606600E7945
:1003E000012E01D0022E12D18668A64386604E7976
:1003F000D0F808809E4046EA080686604668AE430C
:10040000466045688E799640B6B235434560C5680A
:10041000A543C560CC799C40C3681C43C460521C92
:10042000102AC9D3BDE8F08110B54B07DB0E9A4006
:10043000C90800EB8100016A0F249C40A1430162BE
:10044000016A1143016210BD1CB50121052000F0B5
:1004500095F80120009000208DF804008DF8070029
:1004600069460548FFF7A2FF4FF400500090694627
:100470000248FFF79BFF1CBD00000240000802403D
:100480002DE9FC410121202000F078F8402400945F
:1004900001208DF8040000218DF806108DF807006A
:1004A0008DF805100B4F69463846FFF77FFF802611
:1004B000009669463846FFF779FFA5000095694622
:1004C0003846FFF773FF0348183004800680058024
:1004D000BDE8FC810014024008B54FF4A06000F0B4
:1004E00043F825208DF8000001208DF801008DF8DB
:1004F00002008DF80300684600F002F808BD000015
:1005000030B50F23C27801250178002A1FD0154A83
:10051000126802F4E062C2F5E062C2F30722C2F19F
:100520000404D3404278A24084781C401443220142
:1005300001F1E02181F80024007800F01F018D40D6
:100540004009800000F1E020C0F8005130BD01F00A
:100550001F0085404809800000F1E020C0F880516C
:1005600030BD00000CED00E002490843024908607C
:10057000704700000000FA050CED00E0054A002974
:1005800003D0116801431160704711688143116005
:100590007047000030380240054A002903D0116836
:1005A000014311607047116881431160704700007A
:1005B0004438024070B5244B196801F00C01234CFB
:1005C00000291ED0224E04291DD008291DD0046008
:1005D000196801F0F00109091E4A545C0168E14004
:1005E00041601C6804F4E054A40A145D21FA04F488
:1005F00084601B6803F460435B0BD25CD140C16034
:1006000070BD0460E4E70660E2E70F4A121F11685C
:10061000C1F38055116801F03F0135B1B6FBF1F12E
:100620001468C4F38814614305E0B4FBF1F1146865
:10063000C4F3881461431268C2F30142521C520091
:10064000B1FBF2F10160C3E7083802400024F40076
:1006500040787D01140000200CB500220192009228
:100660002749086840F4803008604FF4A0430868C8
:1006700000F4003000900198401C0190009810B9DF
:1006800001989842F3D10868800302D501200090B8
:1006900000E000920098012831D1194840300268EA
:1006A00042F0805202601748026842F44042026001
:1006B0001348083002680260026842F40042026097
:1006C000026842F4A0520260021F0F4B13600A68D6
:1006D00042F080720A600A689201FCD50B4A40F22F
:1006E00005711160016821F003010160016841F0AA
:1006F000020101600168C1F381010229FAD10CBD38
:10070000003802400070004019544007003C02408D
:1007100010B500F019FD01F075FABDE8104000F0C9
:1007200021BD000010B51248016841F4700101605C
:100730001048016841F0010101600E4A00210832B1
:10074000116002680C4B1A400260031D0B4A1A60CC
:10075000026822F48022026006480C300160FFF734
:100760007BFF03494FF000608039086010BD000036
:1007700088ED00E000380240FFFFF6FE1030002454
:10078000002904D0818941F4005181817047818919
:1007900021F40051818170470246002012880A42EC
:1007A00000D00120704710B540F66A13C1F3421320
:1007B00001F01F040121A140012B07D0022B07D01B
:1007C00014303AB102680A43026010BD0C30F8E7F9
:1007D0001030F6E702688A43026010BD7FB5044618
:1007E0000D46208A20F44051E88808432082A089E1
:1007F00041F20C618843A9882A8911436A8902431E
:100800001143A181A08A20F44071A8890843A082E5
:100810006846FFF7CFFE1E48844202D01D4884423E
:1008200001D1039800E00298A189090408D500EBE2
:10083000C00101EB001029684900B0FBF1F007E0AE
:1008400000EBC00101EB001029688900B0FBF1F05A
:100850006422B0FBF2F109010B096FF018056B433C
:1008600000EB8300A3891D044FF0320307D503EB8F
:10087000C000B0FBF2F000F00700084306E003EB15
:100880000010B0FBF2F000F00F00084320817FBDA4
:100890000010014000140140C1F30801818070473D
:1008A000002807D00F4910F0FF0F05D0C0B2085C38
:1008B000401C70470020704710F47F4F04D0C0F3F5
:1008C0000720085C0930704710F47F0F04D0C0F394
:1008D0000740085C1130704701EB10600078193058
:1008E000704700006421000802E008C8121F08C118
:1008F000002AFAD170477047002001E001C1121FA1
:10090000002AFBD17047000003480168814201D0F2
:100910000120704700207047B00000202DE9FC4105
:100920001F46DDE90A65DDE90831044604F11400DB
:10093000406000601C346260A760E36021610A4689
:100940002321184600F022FDD4E903014218D4E91E
:100950000101121F0D4B00F0D7FB2060A6766676D2
:100960000020E06125626562606120766065A065B7
:100970001C3C009001902346054A214604F14400A6
:1009800001F0B6F90020BDE8FC810000351900082F
:10099000791B000810B5029C24F001044472C16167
:1009A000026200218162436200EBC1021432526094
:1009B0001260491C0129F7DB10BD10B5002200EBC5
:1009C000C2011431D1E900436360D1E900342360EE
:1009D00049600960521C012AF1DB10BD2DE9FC4180
:1009E00027A000F003FC36A000F000FC0022114616
:1009F0003EA000F0F5FD404DE8604FF0FF340028C8
:100A00002ED002203226CDE9000647023B460022C6
:100A10003A493BA000F065FF6860002825D001F04E
:100A200077F8014639A000F0E1FB40A000F0DEFBC2
:100A30000320CDE900063B460022454945A000F0D1
:100A400050FFA860002815D001F062F8014644A0CC
:100A500000F0CCFB4AA000F0C9FB0020BDE8FC81FF
:100A600050A000F0C3FB2046F8E755A000F0BEFB05
:100A70002046F3E75AA000F0B9FB2046EEE700005D
:100A8000D5E2CAC7D2BBB8F65BD2B0BBF05D2D20B1
:100A900053544D333220C8ABCFB5C1D0BFAAB7A293
:100AA000B0E52052545420B6FED6B5D0C5BAC5C163
:100AB000BFCDACB2BDCAB5D1E9A3A10A0000000008
:100AC000CDACB2BDB3C9B9A6D4F2CAE4B3F62053D3
:100AD00075636365737366756C2CB7B4D6AECAE480
:100AE000B3F6204661696C0A0000000074657374F7
:100AF0005F73656D0000000024000020ED200008F9
:100B000073656E645F7468726561640073656E64BA
:100B10005F746872656164207374617274757020AB
:100B20007265743A2025640D0A00000073656E64D6
:100B30005F746872656164207374617274656420A7
:100B40007375636365737366756C6C79210D0A0048
:100B50008D0D0008726563765F746872656164006C
:100B6000726563765F746872656164207374617224
:100B7000747570207265743A2025640D0A000000B7
:100B8000726563765F746872656164207374617204
:100B9000746564207375636365737366756C6C79D3
:100BA000210D0A0053656D6170686F726520637274
:100BB000656174696F6E206661696C6564210A0005
:100BC00073656E645F7468726561642063726561E9
:100BD0007465206661696C6564210D0A000000007F
:100BE000726563765F7468726561642063726561C3
:100BF0007465206661696C6564210D0A000000005F
:100C000010B500F00FF9BDE81040FFF7E7BE000097
:100C100030B5134C41682268114402F10803884240
:100C20000DD04D885DB96568A94208D0A5688D4290
:100C300000D1A0604D6845604968851ACD50816833
:100C4000114481420BD04D88002D08D1A568854202
:100C500000D1A16044684C604068891AC15030BD21
:100C60003C0000202DE9FF4FDDE90DB60F9D6C061D
:100C700002D5DFF814A103E0DFF80CA1AAF1110AF4
:100C8000EC0601D525F00105EC0702D04FF0300944
:100C900001E04FF020090027AC070BD5002A02DA4B
:100CA0002D27524206E06C0701D52B2702E02C07C6
:100CB00000D520270024EE467AB9302201248DF891
:100CC00000200CE00A2B15D002F00F081209A446F0
:100CD0001AF80880641C0EF80C80002AF2D1B44285
:100CE00000DD2646ABEB060215F0110F4FF0200396
:100CF00009D016E04FF00A0CB2FBFCF80CFB1828E8
:100D0000B2FBFCF2E3E73FB1002A05DD521E03E02F
:100D1000884200D80370401CB2F1000CA2F101021D
:100D2000F6DC27B1884201D80770521E401CED0640
:100D300005D508E0884201D880F80090401C151EB7
:100D4000A2F10102F6DC302703E0884200D80770E8
:100D5000401C3546761EA542F7DC05E0884202D8E5
:100D60001EF804500570401C251EA4F10104F5DC9A
:100D700003E0884200D80370401C141EA2F1010257
:100D8000F7DC04B0BDE8F08F752200080A4C4FF084
:100D9000FF36254606E009A000F028FA02E00BA085
:100DA00000F024FA3146E86800F05DFC21786078B4
:100DB0008142F4D1EFE7000024000020436F6E73FE
:100DC000697374656E743A2025640A00496E636F16
:100DD0006E73697374656E74210A00001CB502217C
:100DE0001420CDE900100B020022044904A000F0F9
:100DF00078FDBDE81C4000F08BBE0000010C00082F
:100E00006D61696E0000000070B5044C044D02E095
:100E100020688047241DAC42FAD370BD8C220008A4
:100E20009022000870B5044C044D02E02068804711
:100E3000241DAC42FAD370BD902200089422000811
:100E400010B5FFF7BDF9044A5188491C5180BDE82F
:100E50001040FFF7B9B90000A400002010B5FFF75B
:100E6000AFF9094A5188491E09B25180002907DCAF
:100E700000215180FFF7A8F9BDE8104000F026BB23
:100E8000BDE81040FFF7A0B9A400002070B500280D
:100E900033D01A4D296888422FD3696888422CD2F2
:100EA000A0F10C044FF0FF31154800F0DCFB608826
:100EB0004FF4F55610B12088B04208D011A000F0D0
:100EC00095F923886288214615A000F08FF900204B
:100ED00060802680A868844200D2AC60296860687F
:100EE000611A401A2969081A28612046FFF790FE06
:100EF000BDE87040024800F096BB70BD3C00002089
:100F0000CC120020746F20667265652061206261DA
:100F100064206461746120626C6F636B3A0A000044
:100F20006D656D3A203078253038782C20757365E2
:100F30006420666C61673A2025642C206D616769C6
:100F40006320636F64653A203078253034780A0076
:100F500000487047D400002000487047D41000209B
:100F600010B513484FF47A710068B0FBF1F0401EE1
:100F7000B0F1807F09D24FF0E02148610D4AF020A6
:100F800010700020886107200861FFF779FAFFF7E9
:100F90005BFAFFF7B7F9FFF737FFFFF7DDFF04460E
:100FA000FFF7D6FF2146BDE8104000F007BC000067
:100FB0000000002023ED00E070B50446FFF740FF7D
:100FC0000F4D16E00A2809D10D212846FFF764FCD1
:100FD00080212846FFF7E0FB0028F9D014F8011B18
:100FE0002846FFF759FC80212846FFF7D5FB00284B
:100FF000F9D020780028E5D1BDE87040FFF72EBF7A
:101000000010014010B5044617480168002903D0BC
:1010100020468847002826D014A0E16900F0E6F8B1
:1010200016A0A16900F0E2F818A0616900F0DEF8EE
:101030001AA0216900F0DAF81CA0E16800F0D6F8E7
:101040001EA0A16800F0D2F820A0616800F0CEF8E0
:1010500022A0216800F0CAF800F034FD014623A068
:1010600000F0C4F8FEE710BDC40000207073723AAF
:10107000203078253038780A000000002070633A6C
:10108000203078253038780A00000000206C723A51
:10109000203078253038780A000000007231323A6A
:1010A000203078253038780A000000007230333A5A
:1010B000203078253038780A000000007230323A4B
:1010C000203078253038780A000000007230313A3C
:1010D000203078253038780A000000007230303A2D
:1010E000203078253038780A00000000686172648A
:1010F000206661756C74206F6E207468726561641F
:101100003A2025730A00000070B50646121D22F031
:101110000700A0F14405284600220A4C40F822406E
:10112000521C112AFAD3416200218162C16201631B
:1011300041638363C6634FF0807202640160284696
:1011400070BD0000EFBEADDE10B5FFF739F8044A00
:101150001178491C1170BDE81040FFF735B8000048
:101160003800002010B5FFF72BF8044A1178491E0B
:101170001170BDE81040FFF727B8000038000020CC
:1011800010B50068143800F07FFC002010BD2DE978
:10119000F04105460E461446304600F0CCFC06F100
:1011A000140714B1012C1DD104E03946284600F083
:1011B00044F817E02C680DE0A4F1140096F83510FF
:1011C00090F83520914204D23946143000F035F8B9
:1011D00002E02468AC42EFD1AC4203D13946284644
:1011E00000F02BF80020BDE8F08100000FB408B536
:1011F00003AB00937F210548029A00F011FE0348DB
:10120000FFF7DAFE01B05DF814FB00004C1200207D
:101210000268516002680A600160486070470268B5
:10122000516002680A60016048607047026851605E
:1012300002680A6001604860704742681160426855
:101240004A604160086070470168814201D1012015
:101250007047002070470168814201D1012070472A
:1012600000207047D0E900215160D0E900121160E0
:10127000406000607047D0E900215160D0E9001261
:1012800011604060006070472DE9F047002809D0E8
:10129000C01C20F003053B4EF068854204D90020B5
:1012A000BDE8F0870020FBE70C2D00D20C254FF0A5
:1012B000FF31354800F0D7F9B7683168781AD6F8A9
:1012C0000CC0ACEB050356E00C1862888ABB626860
:1012D000121A0C3AAA424DD3626805F11803121A89
:1012E0000C3A4FF001094FF4F5589A4222D34319B2
:1012F0000C33CA18A2F800804FF0000AA2F802A02E
:10130000D4F804A0C2F804A090606360A4F802902E
:1013100050680CF10C0C604502D001F108028350BA
:10132000306928440C303061726982420ED270619B
:101330000CE01FE0A4F802906068621A801A32691B
:10134000104430617269824200D27061A4F800805A
:10135000BC4203D008E040680844B060B0684288EE
:1013600012B172689042F6D1074800F05CF904F1BE
:101370000C0095E760688342A6D8034800F053F953
:1013800000208DE73C000020CC12002010B5034661
:10139000CCB2042A15D3810713D1014644EA0423B1
:1013A00043EA034305E00B604B608B60CB60103178
:1013B000103A102AF7D201E008C1121F042AFBD20A
:1013C0000B46E1B201E003F8011B521E541CFAD196
:1013D00010BD2DE9F04106460F46304600F03EF8BC
:1013E0000546E868FFF750FF0446ACB126720020BE
:1013F000607208223946204600F0CCF9FEF7E0FE84
:10140000064604F10C01281DFFF702FF3046FEF7E7
:10141000DBFE2046BDE8F0810020FBE770B5044606
:10142000FEF7CEFE054604F10C00FFF71BFF284631
:10143000FEF7CAFE2046BDE87040FFF727BD70B535
:101440000446FEF7BDFE054604F10C00FFF70AFF57
:101450002846BDE87040FEF7B7BE00000021074AED
:1014600002EB01131B78834202D102EB011070479B
:10147000491C0529F4DB00207047000054000020BF
:101480002DE9F04104460D4617462846FFF7E6FFD2
:10149000064645F08000207208223946204600F0BA
:1014A00079F9FEF78DFE054604F10C01301DFFF7BA
:1014B000AFFE2846BDE8F041FEF786BE007A000682
:1014C00001D50120704700207047000070B5FEF77D
:1014D00077FE0546174C608820B12846BDE870406D
:1014E000FEF772BEA068FFF7DBF9421E124850F803
:1014F000321014396068814216D0227061600F4A40
:10150000127842B11C311C30FEF761FE2846BDE85E
:101510007040FEF759BE1C311C30FEF758FE2846BD
:10152000BDE87040FEF750BE2846BDE87040FEF7AB
:101530004BBE0000A4000020EC1200203800002068
:1015400010B50446FEF73CFE024614F8340F20F0B6
:101550000F00401C207060780A49343C01EBC00148
:1015600004F114004B6818604B68436048600160E8
:101570000548A16B836819438160BDE8104010469F
:10158000FEF722BEEC120020A400002070B5054634
:10159000FEF716FE014605F11404D4E90020506060
:1015A000D4E9000210606460246095F835000A4AAE
:1015B00002EBC0000268824201D1012000E000205D
:1015C00020B10648AB6B82689A438260BDE87040E8
:1015D0000846FEF7F9BD0000EC120020A400002030
:1015E00070B50C46154601460120FFF7F2FE0028B3
:1015F00005D000F11401496009608483457270BD13
:101600002DE9F041054616461F460A4601212846A7
:10161000FFF736FF2C46143464602460AE836F728B
:101620000020BDE8F0812DE9F04104460025FEF7D9
:10163000C7FD064604F114000746FFF705FE40B15A
:10164000A08B401CA0833046FEF7BEFD012D05D0C7
:1016500006E03846FFF794FD0125F4E7FFF736FF73
:101660000020BDE8F08173B50446FEF7A9FD0646EB
:10167000A08B28B1401EA0833046FEF7A5FD21E0D7
:10168000019808B300F01EFA054600202863627A2C
:10169000294604F11400FFF77AFD0198002809DDBE
:1016A00005F1440001AA0021044600F0F7FA2046A3
:1016B00000F034FB3046FEF787FDFFF707FF286B8D
:1016C000002800D100207CBD3046FEF77DFD6FF084
:1016D00001007CBD08B509A0FFF788FD0AA0FFF74F
:1016E00085FD12A0032300900022194612A0FFF7E7
:1016F0007DFDBDE8084018A0FFF778BD0A205C20FA
:101700007C202F0A000000002D205254202D202084
:10171000202020546872656164204F706572617486
:10172000696E672053797374656D0A004A756E207F
:101730003132203230323500202F207C205C2020B6
:1017400020202025642E25642E2564206275696C76
:10175000642025730A0000002032303036202D200E
:101760003230313820436F70797269676874206253
:10177000792072742D746872656164207465616D7E
:101780000A000000014600E0491C0A78002AFBD14B
:10179000081A704710B5002A07D0034611F8014B0C
:1017A00003F8014B14B1521EF8D110BD002101E025
:1017B00003F8011B521EFBD110BD000070B5054699
:1017C0000A46E81C20F0030122F00303182B21D95C
:1017D000A3F118048C421DD3114C5A1A183AE26036
:1017E00021604FF4F5530B800C324A600020886072
:1017F000488048680844606003800121418042605D
:1018000082600023012207A10848FFF7F9FE206843
:10181000A06070BD2946BDE8704005A0FFF7E6BC9A
:101820003C0000206865617000000000CC120020C0
:101830006D656D20696E69742C206572726F7220FF
:10184000626567696E2061646472657373203078C5
:1018500025782C20616E6420656E6420616464725A
:1018600065737320307825780A00000010B50A4BA4
:1018700000245C800020094A02EBC0014960096035
:10188000401C0828F8DB072018705C609C60024848
:101890000C304060006010BDA4000020EC1200205D
:1018A00010B5074CA068FEF7FBFF401E054951F834
:1018B000300014386060BDE810401C30FEF7CDBC2D
:1018C000A4000020EC1200200020044A02EBC0011A
:1018D00049600960401C0028F8D07047BC00002017
:1018E00070472DE9FF478046DDE90C67894692463F
:1018F0001D4641460020FFF76CFD044620000FD036
:101900002846FFF7C1FC68B18DE8E10053464A461E
:1019100041462046FFF702F8204604B0BDE8F087B4
:101920000020FAE72046FFF779FD0020F5E700F0F8
:10193000CFB8000070B513480468FEF741FC0546B7
:101940002046FFF723FE042084F8340004F144000D
:1019500000F0BEF92046FFF7B1FD012801D1206F4C
:1019600058B104F114010848FFF759FC2846FEF766
:101970002BFCBDE87040FFF7A9BD2046FFF75FFDD7
:10198000F4E70000A8000020B000002000F002F8FA
:10199000FCE7000070B527E0FEF712FC0646FEF7F4
:1019A000B3FF68B319480468A4F11405D4E9001022
:1019B0004860D4E90001086064602460FFF740FAE1
:1019C000296F09B1284688472846FFF777FD012887
:1019D0000FD0FFF743FA3046FEF7F6FBA86AFFF791
:1019E00055FA2846FFF71AFDFEF78EFF0028D3D1DF
:1019F00070BDFFF733FA3046BDE87040FEF7E4BB38
:101A00003046BDE87040FEF7DFBB0000B0000020AC
:101A10001FB52020C2000721094BCDE90210CDE9F6
:101A2000003207480023074A07A1783800F010F871
:101A300004B00348BDE81040783800F069B80000F1
:101A40004C1100208D1900087469646C6500000059
:101A50002DE9FF5F8146DDE90E76DDE91054884609
:101A600092469B46424600214846FFF709FDCDE9D4
:101A70000076CDE902545B46524641464846FEF7A1
:101A80004DFF04B0BDE8F09F70B5044694F83400F3
:101A900000F00F00022802D04FF0FF3070BDFEF7BB
:101AA0008FFB054604F11400FFF7E5FB04F1440049
:101AB00000F09EF92846FEF787FB2046FFF740FD21
:101AC000002070BD0148006870470000A800002099
:101AD000F1B5FEF775FB05460C480468204600F09A
:101AE0002AF804F144006A460021064600F0D6F8C0
:101AF000304600F013F92846FEF766FBFFF7E6FCD8
:101B0000206B801C00D120630020F8BDA8000020BD
:101B100010B534308178417001228A404260022140
:101B200000F83419FFF7B0FFFFF7CCFF08B1FFF75B
:101B3000CDFC002010BD70B5044694F8340000F0D0
:101B40000F00012802D04FF0FF3070BDFEF738FBC8
:101B5000054694F8340020F00F00801C84F834000F
:101B60002046FFF713FD04F1440000F041F9284638
:101B7000FEF72AFB002070BD10B504466FF001008F
:101B8000206304F11400FFF776FB2046FFF7D8FC32
:101B9000BDE81040FFF79ABC70B5FEF711FB064692
:101BA0001348046894F8340000F00F0001281AD19B
:101BB000D4E90501884216D004F114000546FFF768
:101BC0005AFB94F835000B4901EBC00041680D60E9
:101BD00041686960456028603046FEF7F5FAFFF716
:101BE00075FC002070BD3046FEF7EEFA002070BD97
:101BF000A8000020EC120020014800687047000097
:101C00003400002010B509490868401C0860FFF73F
:101C100059FF016C491E016419B9C16B0164FFF7DA
:101C2000BBFFBDE8104000F003B800003400002006
:101C300070B5FFF7E1FF0646FEF7C2FA054620E061
:101C400015480468143C6FF00041A06A301A8842BD
:101C50001CD22046FEF7B1FED4E907108847FFF7F3
:101C6000CBFF0646607A810708D5C10706D020F071
:101C700001006072204600F051F802E020F00100FF
:101C800060720548FFF7E7FA0028D9D02846BDE87A
:101C90007040FEF799BA0000BC000020002909D06E
:101CA000012904D0022908D003290FD10AE0406A93
:101CB00010600BE01168416208E0417A21F00201F6
:101CC000417203E0417A41F0020141720020704705
:101CD00070B50546FEF774FA04462846FEF76DFE19
:101CE0002046FEF771FA2846FFF7A9FB002070BDD9
:101CF0002DE9F8430746DDE9088415461E460A46E5
:101D000009213846FFF7BCFB434632462946384690
:101D10000094FEF73FFEBDE8F88300002DE9F8438C
:101D20000446FEF74DFA05462046FEF746FE607A69
:101D300020F0010060722846FEF746FAFFF75CFFCC
:101D4000616A0844A062FEF73BFA0746DFF89CC0D0
:101D5000CDF800C000226E460CEBC20045680DE0D5
:101D60000068A0EBC201A36A4969994204D0C91A6C
:101D70006FF00043994205D346F8220056F822003E
:101D8000A842EDD12AB156F822100831531C46F86A
:101D90002310521C002ADFD01448001FD0F8008006
:101DA00008F10108C0F8008004F114010098FFF761
:101DB0003DFA02250EE05FEA88700DD1C5F1010001
:101DC00004EBC001143156F82000FFF72FFA4FEA58
:101DD00098086D1C012DEED9607A40F00100607208
:101DE0003846FEF7F1F90020BDE8F883BC0000207A
:101DF00070B50446607AC0070ED0FEF7E1F90546DB
:101E00002046FEF7DAFD2846FEF7DEF9607A20F07C
:101E100001006072002070BD4FF0FF3070BD000007
:101E20002DE9FF4F83B082460AEB01077F1E54461F
:101E3000A74201D24FF0FF374FF020094FF0250B9A
:101E400012E1252804D0BC4200D82070641C08E1AF
:101E500000250599491C059108782D2814D02B28B8
:101E600015D0202816D0232817D0302818D04FF0AE
:101E7000FF384646059A1278303A0A2A13D205A846
:101E800000F05CF906461AE045F01005E1E745F080
:101E90000405DEE745F00805DBE745F02005D8E757
:101EA00045F00105D5E72A2809D1491C0591069876
:101EB00040C80690002E02DA764245F010050598DB
:101EC00001782E2918D1401C05900178A1F130022B
:101ED0000A2A04D205A800F031F9804607E02A2931
:101EE00005D1401C0590069850F8048B0690B8F177
:101EF000000F01DA4FF000080021059A10786828D9
:101F000001D06C2802D10146521C05920A23059883
:101F100000786F2871D00CDC632820D004DC2528E1
:101F20006CD058280DD187E0642801D0692808D1E9
:101F300086E0702863D073282FD0752871D0782858
:101F40007CD0BC4201D884F800B0641C05990878A4
:101F5000002868D0BC4200D82070641C81E0E806EC
:101F600005D507E0BC4201D884F80090641C761EB9
:101F7000002EF7DC069810F8041B0690C8B2BC428D
:101F800000D82070641C04E0BC4201D884F80090A2
:101F9000641C761E002EF7DC63E0069808C80690E5
:101FA00003B941A31846FFF7EDFBB8F1000F02DDBE
:101FB000404500DD4046E90605D508E0BC4201D8B1
:101FC00084F80090641C3146761E8142F6DC0021C4
:101FD00006E0BC4201D81A782270641C5B1C491CC4
:101FE0008142F6DB04E0BC4201D884F80090641C16
:101FF0003146761E8142F6DC33E01BE014E0701CB3
:1020000002D1082645F00105CDE900680698029541
:10201000102304C8069039462046FEF723FE0446E6
:102020001FE00FE00AE028E0BC4201D884F800B0CD
:10203000641C16E0082305E045F04005102301E08C
:1020400045F002056C291BD068291DD0069804C8EC
:102050000690CDE90068394620460295FEF702FE5B
:1020600004460598401C05900598007800287FF4E8
:10207000E8AEBC4211D8207010E0491E0591F0E78F
:10208000069804C80690E4E7069830F8041B06900A
:102090008AB2A807DDD512B2DBE7387007B0A4EB2F
:1020A0000A00BDE8F08F0000284E554C4C29000076
:1020B00000207047002070470020704700207047C4
:1020C00010B5FEF77DF8FEF74BFFFFF703FBFFF7B8
:1020D000FBFBFFF7CBFBFEF781FEFFF701FCFFF7F1
:1020E00097FCFFF7DDFB002010BD00000C4C4FF407
:1020F0007A7625462178491C21706420FFF717FC69
:102100006178491C6170E868FFF78DFA6278217880
:1021100004A0FFF76BF83046FFF709FCEAE7000080
:102120002400002053656E742076616C7565733AE7
:102130002025642C2025640A0000000010B502460A
:1021400000206FF02F0407E04B1C1360097800EBB0
:10215000800004EB4000084411680B78303B0A2BE8
:10216000F2D310BD000001000200010003000100D5
:102170000200010004000100020001000300010050
:10218000020001000500010002000100030001003F
:102190000200010004000100020001000300010030
:1021A000020001000600010002000100030001001E
:1021B0000200010004000100020001000300010010
:1021C00002000100050001000200010003000100FF
:1021D00002000100040001000200010003000100F0
:1021E00002000100070001000200010003000100DD
:1021F00002000100040001000200010003000100D0
:1022000002000100050001000200010003000100BE
:1022100002000100040001000200010003000100AF
:10222000020001000600010002000100030001009D
:10223000020001000400010002000100030001008F
:10224000020001000500010002000100030001007E
:10225000020001000400010002000100030001006F
:10226000020001003031323334353637383961629B
:10227000636465660030313233343536373839417E
:102280004243444546000000BD200008B520000838
:10229000B1200008B9200008B82200080000002082
:1022A000D4000000E80800088C230008D4000020B7
:1022B0005C160000F8080008007A030A000000001D
:1022C00000000000010203040607080900000000E6
:1022D00001020304010203040607080900000000CC
:1022E00000000000000000000000000000000000EE
:1022F00000000000000000000000000000000000DE
:1023000000000000000000000000000000000000CD
:102310005800002058000020780000000100000054
:102320006800002068000020200000000400000079
:102330007800002078000020300000000500000038
:102340008800002088000020340000000900000000
:1023500098000020980000202C00000000000000E1
:10236000000000000000000000000000000000006D
:10237000000000000000000000000000000000005D
:0C23800000000000000000000000000051
:040000050800018965
:00000001FF
