:020000040800F2
:10000000501700209D010008A5010008A302000868
:10001000A9010008AB010008AD01000800000000C4
:10002000000000000000000000000000AF01000818
:10003000B101000800000000EF01000849070008B6
:10004000B7010008B7010008B7010008B7010008B0
:10005000B7010008B7010008B7010008B7010008A0
:10006000B7010008B7010008B7010008B701000890
:10007000B7010008B7010008B7010008B701000880
:10008000B7010008B7010008B7010008B701000870
:10009000B7010008B7010008B7010008B701000860
:1000A000B7010008B7010008B7010008B701000850
:1000B000B7010008B7010008B7010008B701000840
:1000C000B7010008B7010008B7010008B701000830
:1000D000B7010008B7010008B7010008B701000820
:1000E000B7010008B7010008B7010008B701000810
:1000F000B7010008B7010008B7010008B701000800
:10010000B7010008B7010008B7010008B7010008EF
:10011000B7010008B7010008B7010008B7010008DF
:10012000B7010008B7010008B7010008B7010008CF
:10013000B7010008B7010008B7010008B7010008BF
:10014000B7010008B7010008B7010008B7010008AF
:10015000B7010008B7010008B7010008B70100089F
:10016000B7010008B7010008B7010008B70100088F
:10017000B7010008B7010008B7010008B70100087F
:10018000B7010008B7010008DFF80CD000F0A0F8B4
:1001900000480047F5020008501700200648804735
:1001A00006480047FEE7FEE7FEE7FEE7FEE7FEE75C
:1001B000FEE7FEE7FEE7FEE75D07000889010008AD
:1001C000EFF3108072B6704780F3108870473A4A98
:1001D0001368012B04D04FF001031360374A1060FD
:1001E000374A116037484FF0805101607047EFF394
:1001F000108272B63048016851B34FF000010160BF
:100200002E48016891B1EFF309811EF0100F08BF6D
:1002100021ED108B21E9F00F4FF000041EF0100FBC
:1002200008BF012441F8044D0068016024490968B1
:10023000096808C9B1E8F00F002B18BFB1EC108BAA
:1002400081F309884EF0100E002B18BF2EF0100E0F
:1002500082F310884EF0040E704719490860EFF3DE
:10026000148222F0040282F3148814494FF0000033
:10027000086011494FF00100086013484FF47F01F6
:10028000D0F8002041EA020101600E484FF0805191
:1002900001600E480068006880F3088861B662B6A5
:1002A0007047EFF3098000B500F07EFF5DF804EBC6
:1002B0004EF0040E70470000EC000020E400002027
:1002C000E800002004ED00E020ED00E008ED00E093
:1002D000064C074D06E0E06840F0010394E8070093
:1002E00098471034AC42F6D3FFF752FF4824000879
:1002F0006824000810B5FFF763FF01F0A3FF00209A
:1003000010BD000070B586B00121084600F052F91A
:100310000121102000F05CF900248DF81640012026
:100320008DF8170002258DF815508DF814504002F5
:1003300004901C4E04A9304600F038F88DF8145093
:100340006902049104A9304600F030F807220A211E
:10035000304600F069F807220921304600F064F8C1
:100360004FF4E1300090ADF80440ADF80640ADF830
:100370000840ADF80C400C20ADF80A000A4C694664
:10038000204600F047FA00F0C3F8012240F2255160
:10039000204600F024FA0121204600F00DFA06B0B4
:1003A00070BD000000000240001001402DE9F04146
:1003B000002201274FF0030C07FA02F50B682B40CF
:1003C000AB422CD1066853000CFA03F4A643066036
:1003D0000E79D0F800809E4046EA080606600E7945
:1003E000012E01D0022E12D18668A64386604E7976
:1003F000D0F808809E4046EA080686604668AE430C
:10040000466045688E799640B6B235434560C5680A
:10041000A543C560CC799C40C3681C43C460521C92
:10042000102AC9D3BDE8F08110B54B07DB0E9A4006
:10043000C90800EB8100016A0F249C40A1430162BE
:10044000016A1143016210BD0246002012690A428E
:1004500000D00120704700001CB50121052000F0EC
:10046000A9F80120009000208DF804008DF8070005
:1004700069460548FFF79AFF4FF40050009069461F
:100480000248FFF793FF1CBD000002400008024035
:1004900070B504460D4629462046FFF7D5FF0128D2
:1004A00001D0002070BD29462046FFF7CDFF01286E
:1004B000F9D0012070BD00002DE9FC410121202070
:1004C00000F078F84024009401208DF80400002109
:1004D0008DF806108DF807008DF805100B4F694652
:1004E0003846FFF763FF8026009669463846FFF7D7
:1004F0005DFFA500009569463846FFF757FF0348A2
:100500001830048006800580BDE8FC81001402409C
:1005100008B54FF4A06000F043F825208DF80000E6
:1005200001208DF801008DF802008DF80300684667
:1005300000F002F808BD000030B50F23C278012595
:100540000178002A1FD0154A126802F4E062C2F551
:10055000E062C2F30722C2F10404D3404278A24011
:1005600084781C401443220101F1E02181F8002429
:10057000007800F01F018D404009800000F1E0206C
:10058000C0F8005130BD01F01F00854048098000CF
:1005900000F1E020C0F8805130BD00000CED00E01B
:1005A0000249084302490860704700000000FA054C
:1005B0000CED00E0054A002903D0116801431160E9
:1005C0007047116881431160704700003038024065
:1005D000054A002903D01168014311607047116872
:1005E00081431160704700004438024070B5244BCD
:1005F000196801F00C01234C00291ED0224E042959
:100600001DD008291DD00460196801F0F001090906
:100610001E4A545C0168E14041601C6804F4E054E7
:10062000A40A145D21FA04F484601B6803F4604397
:100630005B0BD25CD140C16070BD0460E4E7066032
:10064000E2E70F4A121F1168C1F38055116801F0EB
:100650003F0135B1B6FBF1F11468C4F3881461436E
:1006600005E0B4FBF1F11468C4F388146143126827
:10067000C2F30142521C5200B1FBF2F10160C3E728
:10068000083802400024F40040787D011400002066
:100690000CB50022019200922749086840F480308E
:1006A00008604FF4A043086800F4003000900198FF
:1006B000401C0190009810B901989842F3D1086845
:1006C000800302D50120009000E0009200980128EC
:1006D00031D119484030026842F080520260174818
:1006E000026842F440420260134808300268026027
:1006F000026842F400420260026842F4A0520260C2
:10070000021F0F4B13600A6842F080720A600A6889
:100710009201FCD50B4A40F205711160016821F08D
:1007200003010160016841F0020101600168C1F349
:1007300081010229FAD10CBD00380240007000404E
:1007400019544007003C024010B500F0CFFD01F005
:100750001BFBBDE8104000F0D7BD000010B51248EB
:10076000016841F4700101601048016841F0010125
:1007700001600E4A00210832116002680C4B1A40D9
:100780000260031D0B4A1A60026822F48022026094
:1007900006480C300160FFF77BFF03494FF0006013
:1007A0008039086010BD000088ED00E0003802408C
:1007B000FFFFF6FE10300024002904D0818941F4A7
:1007C000005181817047818921F4005181817047F6
:1007D0000246002012880A4200D00120704710B55E
:1007E00040F66A13C1F3421301F01F040121A14036
:1007F000012B07D0022B07D014303AB102680A430C
:10080000026010BD0C30F8E71030F6E702688A434A
:10081000026010BD7FB504460D46208A20F4405189
:10082000E88808432082A08941F20C618843A988A6
:100830002A8911436A8902431143A181A08A20F4C5
:100840004071A8890843A0826846FFF7CFFE1E4882
:10085000844202D01D48844201D1039800E00298EE
:10086000A189090408D500EBC00101EB001029683B
:100870004900B0FBF1F007E000EBC00101EB001014
:1008800029688900B0FBF1F06422B0FBF2F10901A4
:100890000B096FF018056B4300EB8300A3891D045F
:1008A0004FF0320307D503EBC000B0FBF2F000F0CD
:1008B0000700084306E003EB0010B0FBF2F000F085
:1008C0000F00084320817FBD00100140001401404B
:1008D000C1F3080181807047002807D00F4910F04C
:1008E000FF0F05D0C0B2085C401C70470020704765
:1008F00010F47F4F04D0C0F30720085C0930704724
:1009000010F47F0F04D0C0F30740085C113070472B
:1009100001EB1060007819307047000014230008C4
:1009200002E008C8121F08C1002AFAD170477047B8
:10093000002001E001C1121F002AFBD17047000016
:1009400003480168814201D00120704700207047B0
:10095000CC0000202DE9FC411F46DDE90A65DDE9F8
:100960000831044604F11400406000601C346260E9
:10097000A760E36021610A462321184600F0D8FDF4
:10098000D4E903014218D4E90101121F0D4B00F014
:100990008DFC2060A67666760020E061A562E562A7
:1009A00060612076E06520661C3C00900190234643
:1009B000054A214604F14C0001F05CFA0020BDE834
:1009C000FC810000B91A0008FD1C000810B5029C4B
:1009D00024F001044472C161026200218162436219
:1009E00000EBC102143252601260491C0129F7DB8E
:1009F00010BD10B5002200EBC2011431D1E9004353
:100A00006360D1E90034236049600960521C012A07
:100A1000F1DB10BD2DE9FC4126A000F0B9FC00215E
:100A200033A000F02BFA354DA8604FF0FF340028BA
:100A300031D033A000F0ACFC02203226CDE9000614
:100A400047023B460022364936A001F00CF82860E8
:100A5000002825D001F01EF9014635A000F098FCD1
:100A60003BA000F095FC0320CDE900063B460022A8
:100A7000404941A000F0F7FF6860002815D001F060
:100A800009F901463FA000F083FC46A000F080FC7D
:100A90000020BDE8FC814CA000F07AFC2046F8E77D
:100AA0004FA000F075FC2046F3E755A000F070FC65
:100AB0002046EEE7D5E2CAC7D2BBB8F65BD2B0BBE0
:100AC000F05D2D2053544D333220C8ABCFB5C1D08B
:100AD000BFAAB7A2B0E52D52545420CAC2BCFEB181
:100AE000EAD6BED7E9CAB5D1E9A3A10A0000000041
:100AF000746573745F6576656E7400002400002071
:100B00004576656E742063726561746564207375E3
:100B1000636365737366756C6C79210A000000006D
:100B20007122000873656E645F74687265616400A9
:100B300073656E645F74687265616420737461725A
:100B4000747570207265743A2025640D0A000000E7
:100B500073656E645F74687265616420737461723A
:100B6000746564207375636365737366756C6C7903
:100B7000210D0A00AD0D0008726563765F7468721E
:100B800065616400726563765F7468726561642094
:100B900073746172747570207265743A2025640DE7
:100BA0000A000000726563765F7468726561642094
:100BB00073746172746564207375636365737366BF
:100BC000756C6C79210D0A004576656E7420637230
:100BD000656174696F6E206661696C6564210A00E5
:100BE00073656E645F7468726561642063726561C9
:100BF0007465206661696C6564210D0A000000005F
:100C0000726563765F7468726561642063726561A2
:100C10007465206661696C6564210D0A000000003E
:100C200010B500F00FF9BDE81040FFF7F3BE00006B
:100C300030B5134C41682268114402F10803884220
:100C40000DD04D885DB96568A94208D0A5688D4270
:100C500000D1A0604D6845604968851ACD50816813
:100C6000114481420BD04D88002D08D1A5688542E2
:100C700000D1A16044684C604068891AC15030BD01
:100C8000380000202DE9FF4FDDE90DB60F9D6C0601
:100C900002D5DFF814A103E0DFF80CA1AAF1110AD4
:100CA000EC0601D525F00105EC0702D04FF0300924
:100CB00001E04FF020090027AC070BD5002A02DA2B
:100CC0002D27524206E06C0701D52B2702E02C07A6
:100CD00000D520270024EE467AB9302201248DF871
:100CE00000200CE00A2B15D002F00F081209A446D0
:100CF0001AF80880641C0EF80C80002AF2D1B44265
:100D000000DD2646ABEB060215F0110F4FF0200375
:100D100009D016E04FF00A0CB2FBFCF80CFB1828C7
:100D2000B2FBFCF2E3E73FB1002A05DD521E03E00F
:100D3000884200D80370401CB2F1000CA2F10102FD
:100D4000F6DC27B1884201D80770521E401CED0620
:100D500005D508E0884201D880F80090401C151E97
:100D6000A2F10102F6DC302703E0884200D80770C8
:100D7000401C3546761EA542F7DC05E0884202D8C5
:100D80001EF804500570401C251EA4F10104F5DC7A
:100D900003E0884200D80370401C141EA2F1010237
:100DA000F7DC04B0BDE8F08F252400081CB50A4D1F
:100DB0000A4C01AE4FF0FF3700963B460622032156
:100DC000A86800F06BF806A000F0E2FA206880F056
:100DD00040002060F0E700002400002014140240CE
:100DE0004B45593120616E64204B45593220617268
:100DF000652070726573736564210A001CB5022159
:100E00001420CDE900100B020022044904A000F0D8
:100E10002AFEBDE81C4000F03DBF0000210C000888
:100E20006D61696E0000000070B5044C044D02E075
:100E300020688047241DAC42FAD370BD3C240008D2
:100E40004024000870B5044C044D02E0206880473F
:100E5000241DAC42FAD370BD40240008442400088D
:100E600010B5FFF7ADF9044A5188491C5180BDE81F
:100E70001040FFF7A9B90000C000002010B50C46D3
:100E80000146032000F077FB002806D0447200F1F1
:100E90001401496009600021C16110BD2DE9FF47BF
:100EA0000546DDF830900E4690464FF0FF30002E9C
:100EB00046D0074600F0C8FE044600202063FFF736
:100EC0007FF982465FEAC87005D0E86936EA00001B
:100ED00008D1002706E05FEA887003D5E869304250
:100EE00000D000277FB3039870B3E66384F8408096
:100EF0006A7A214605F1140000F01BFA03980028D5
:100F000009DD04F14C0003AA0021054600F088FF2A
:100F1000284600F0C5FF5046FFF756F900F0A8FB41
:100F2000206B00280CD1FFF74BF98246B9F1000F76
:100F300002D0E06BC9F800005046FFF745F9206B7E
:100F400004B0BDE8F08700E00DE0B9F1000F03D078
:100F5000E8693040C9F800005FEA4870ECD5E869FC
:100F6000B043E861E8E76FF001002063E4E72DE9B2
:100F7000F04704460D464FF0FF38002D0DD00027F6
:100F8000FFF71EF98246E0692843E06104F114008E
:100F9000814600F02BFA18B128E04046BDE8F08702
:100FA000656921E0A5F11400464690F84010CA0793
:100FB00005D0C16BE269914309D1002607E089079A
:100FC00005D5C16BE269114001D0C16300262D68CF
:100FD00056B990F84010490703D5E169C26B9143B7
:100FE000E16100F013FE01274D45DBD15046FFF7CC
:100FF000EBF8012F01D100F03BFB0020CEE7000011
:1010000010B5FFF7DDF8094A5188491E09B2518031
:10101000002907DC00215180FFF7D6F8BDE8104019
:1010200000F026BBBDE81040FFF7CEB8C00000209E
:1010300070B5002833D01A4D296888422FD36968CB
:1010400088422CD2A0F10C044FF0FF31154800F07B
:10105000CCFB60884FF4F55610B12088B04208D020
:1010600011A000F095F923886288214615A000F0B0
:101070008FF9002060802680A868844200D2AC608E
:1010800029686068611A401A2969081A286120468F
:10109000FFF7CEFDBDE87040024800F086BB70BD92
:1010A00038000020F0120020746F20667265652001
:1010B0006120626164206461746120626C6F636BA3
:1010C0003A0A00006D656D3A203078253038782C6A
:1010D000207573656420666C61673A2025642C2056
:1010E0006D6167696320636F64653A2030782530ED
:1010F00034780A0000487047F0000020004870472C
:10110000F010002010B513484FF47A710068B0FB5E
:10111000F1F0401EB0F1807F09D24FF0E02148612C
:101120000D4AF02010700020886107200861FFF749
:10113000C3F9FFF791F9FFF7E5F8FFF775FEFFF741
:10114000DDFF0446FFF7D6FF2146BDE8104000F062
:10115000F7BB00000000002023ED00E070B504465E
:10116000FFF77EFE0F4D16E00A2809D10D21284613
:10117000FFF7AEFB80212846FFF72AFB0028F9D0B5
:1011800014F8011B2846FFF7A3FB80212846FFF730
:101190001FFB0028F9D020780028E5D1BDE8704079
:1011A000FFF72EBF0010014010B504461748016834
:1011B000002903D020468847002826D014A0E169E2
:1011C00000F0E6F816A0A16900F0E2F818A0616945
:1011D00000F0DEF81AA0216900F0DAF81CA0E1683E
:1011E00000F0D6F81EA0A16800F0D2F820A0616837
:1011F00000F0CEF822A0216800F0CAF800F024FD2B
:10120000014623A000F0C4F8FEE710BDE000002076
:101210007073723A203078253038780A0000000068
:101220002070633A203078253038780A00000000BA
:10123000206C723A203078253038780A000000009F
:101240007231323A203078253038780A00000000B8
:101250007230333A203078253038780A00000000A8
:101260007230323A203078253038780A0000000099
:101270007230313A203078253038780A000000008A
:101280007230303A203078253038780A000000007B
:1012900068617264206661756C74206F6E2074687A
:1012A000726561643A2025730A00000070B5064635
:1012B000121D22F00700A0F14405284600220A4C26
:1012C00040F82240521C112AFAD341620021816267
:1012D000C162016341638363C6634FF0807202643D
:1012E0000160284670BD0000EFBEADDE10B5FEF710
:1012F00067FF044A1178491C1170BDE81040FEF7E1
:1013000063BF00003400002010B5FEF759FF044A07
:101310001178491E1170BDE81040FEF755BF00005E
:101320003400002010B50068143800F06FFC002075
:1013300010BD2DE9F04105460E461446304600F03A
:10134000BCFC06F1140714B1012C1DD104E0394690
:10135000284600F044F817E02C680DE0A4F11400D2
:1013600096F8351090F83520914204D23946143061
:1013700000F035F802E02468AC42EFD1AC4203D172
:101380003946284600F02BF80020BDE8F081000027
:101390000FB408B503AB00937F210548029A00F013
:1013A00001FE0348FFF7DAFE01B05DF814FB000010
:1013B000701200200268516002680A600160486093
:1013C00070470268516002680A60016048607047B7
:1013D0000268516002680A600160486070474268B4
:1013E000116042684A60416008607047016881424C
:1013F00001D101207047002070470168814201D16E
:101400000120704700207047D0E900215160D0E9E9
:1014100000121160406000607047D0E90021516007
:10142000D0E9001211604060006070472DE9F0477C
:10143000002809D0C01C20F003053B4EF06885420F
:1014400004D90020BDE8F0870020FBE70C2D00D276
:101450000C254FF0FF31354800F0C7F9B768316807
:10146000781AD6F80CC0ACEB050356E00C1862886D
:101470008ABB6268121A0C3AAA424DD3626805F11F
:101480001803121A0C3A4FF001094FF4F5589A421A
:1014900022D343190C33CA18A2F800804FF0000A77
:1014A000A2F802A0D4F804A0C2F804A0906063607F
:1014B000A4F8029050680CF10C0C604502D001F1C8
:1014C00008028350306928440C30306172698242CE
:1014D0000ED270610CE01FE0A4F802906068621AFE
:1014E000801A3269104430617269824200D27061A0
:1014F000A4F80080BC4203D008E040680844B06013
:10150000B068428812B172689042F6D1074800F084
:101510004CF904F10C0095E760688342A6D80348B3
:1015200000F043F900208DE738000020F012002081
:1015300010B50346CCB2042A15D3810713D1014656
:1015400044EA042343EA034305E00B604B608B60ED
:10155000CB601031103A102AF7D201E008C1121FF7
:10156000042AFBD20B46E1B201E003F8011B521E34
:10157000541CFAD110BD2DE9F04106460F46304605
:1015800000F03EF80546E868FFF750FF0446ACB1AE
:1015900026720020607208223946204600F0BCF90D
:1015A000FEF70EFE064604F10C01281DFFF702FFB0
:1015B0003046FEF709FE2046BDE8F0810020FBE73B
:1015C00070B50446FEF7FCFD054604F10C00FFF77C
:1015D0001BFF2846FEF7F8FD2046BDE87040FFF7E8
:1015E00027BD70B50446FEF7EBFD054604F10C007F
:1015F000FFF70AFF2846BDE87040FEF7E5BD000092
:101600000021074A02EB01131B78834202D102EB4F
:1016100001107047491C0729F4DB002070470000C7
:10162000500000202DE9F04104460D46174628469B
:10163000FFF7E6FF064645F0800020720822394693
:10164000204600F069F9FEF7BBFD054604F10C01E8
:10165000301DFFF7AFFE2846BDE8F041FEF7B4BDF0
:10166000007A000601D50120704700207047000075
:1016700070B5FEF7A5FD0546174C608820B12846D9
:10168000BDE87040FEF7A0BDA068FFF725F9421E37
:10169000124850F8321014396068814216D0227016
:1016A00061600F4A127842B11C311C30FEF78FFD89
:1016B0002846BDE87040FEF787BD1C311C30FEF7A0
:1016C00086FD2846BDE87040FEF77EBD2846BDE891
:1016D0007040FEF779BD0000C0000020101300200C
:1016E0003400002010B50446FEF76AFD024614F8E7
:1016F000340F20F00F00401C207060780A49343C01
:1017000001EBC00104F114004B6818604B684360A2
:10171000486001600548A16B836819438160BDE89A
:1017200010401046FEF750BD10130020C0000020EE
:1017300070B50546FEF744FD014605F11404D4E9F1
:1017400000205060D4E9000210606460246095F8C5
:1017500035000A4A02EBC0000268824201D1012032
:1017600000E0002020B10648AB6B82689A4382609B
:10177000BDE870400846FEF727BD000010130020AA
:10178000C00000202DE9F041054616461F460A46D6
:1017900001212846FFF746FF2C461434646024607C
:1017A000AE836F720020BDE8F0812DE9F041044660
:1017B0000025FEF705FD064604F114000746FFF775
:1017C00015FE40B1A08B401CA0833046FEF7FCFC08
:1017D000012D05D006E03846FFF7A4FD0125F4E70A
:1017E000FFF746FF0020BDE8F08173B50446FEF721
:1017F000E7FC0646A08B28B1401EA0833046FEF7CA
:10180000E3FC21E0019808B300F01EFA0546002031
:101810002863627A294604F11400FFF78AFD0198D3
:10182000002809DD05F14C0001AA0021044600F062
:10183000F7FA204600F034FB3046FEF7C5FCFFF710
:1018400017FF286B002800D100207CBD3046FEF732
:10185000BBFC6FF001007CBD08B509A0FFF798FD47
:101860000AA0FFF795FD12A003230090002219465D
:1018700012A0FFF78DFDBDE8084018A0FFF788BD56
:101880000A205C207C202F0A000000002D205254EA
:10189000202D2020202020546872656164204F7024
:1018A00065726174696E672053797374656D0A009F
:1018B0004A756E203135203230323500202F207CA1
:1018C000205C202020202025642E25642E256420E5
:1018D0006275696C642025730A0000002032303084
:1018E00036202D203230313820436F70797269678D
:1018F00068742062792072742D7468726561642046
:101900007465616D0A000000014600E0491C0A7818
:10191000002AFBD1081A704710B5002A07D00346E9
:1019200011F8014B03F8014B14B1521EF8D110BD50
:10193000002101E003F8011B521EFBD110BD000085
:1019400070B505460A46E81C20F0030122F00303A7
:10195000182B21D9A3F118048C421DD3114C5A1A0B
:10196000183AE26021604FF4F5530B800C324A6064
:101970000020886048804868084460600380012136
:101980004180426082600023012207A10848FFF7DE
:10199000F9FE2068A06070BD2946BDE8704005A032
:1019A000FFF7F6BC38000020686561700000000099
:1019B000F01200206D656D20696E69742C206572CF
:1019C000726F7220626567696E206164647265730C
:1019D0007320307825782C20616E6420656E642039
:1019E0006164647265737320307825780A000000A2
:1019F00010B50A4B00245C800020094A02EBC001AC
:101A000049600960401C0828F8DB072018705C60FA
:101A10009C6002480C304060006010BDC000002097
:101A20001013002010B5074CA068FEF755FF401EAC
:101A3000054951F8300014386060BDE810401C3092
:101A4000FEF70BBCC0000020101300200020044A49
:101A500002EBC00149600960401C0028F8D07047C3
:101A6000D800002070472DE9FF478046DDE90C676C
:101A7000894692461D4641460020FFF77CFD0446FC
:101A800020000FD02846FFF7D1FC68B18DE8E100B7
:101A900053464A4641462046FEF75CFF204604B0C6
:101AA000BDE8F0870020FAE72046FFF789FD002017
:101AB000F5E700F0CFB8000070B513480468FEF7F2
:101AC0007FFB05462046FFF733FE042084F83400F0
:101AD00004F14C0000F0BEF92046FFF7C1FD0128DB
:101AE00001D1A06F58B104F114010848FFF769FC57
:101AF0002846FEF769FBBDE87040FFF7B9BD2046F8
:101B0000FFF76FFDF4E70000C4000020CC000020C8
:101B100000F002F8FCE7000070B527E0FEF750FB8C
:101B20000646FEF70DFF68B319480468A4F11405D2
:101B3000D4E900104860D4E90001086064602460C2
:101B4000FFF78EF9A96F09B1284688472846FFF7A5
:101B500087FD01280FD0FFF753FA3046FEF734FB1C
:101B6000A86AFFF765FA2846FFF72AFDFEF7E8FEA8
:101B70000028D3D170BDFFF743FA3046BDE870406E
:101B8000FEF722BB3046BDE87040FEF71DBB0000EB
:101B9000CC0000201FB52020C2000721094BCDE951
:101BA0000210CDE9003207480023074A07A1803818
:101BB00000F010F804B00348BDE81040803800F091
:101BC00069B8000070110020111B00087469646C72
:101BD000650000002DE9FF5F8146DDE90E76DDE955
:101BE0001054884692469B46424600214846FFF7DD
:101BF00019FDCDE90076CDE902545B4652464146D7
:101C00004846FEF7A7FE04B0BDE8F09F70B5044655
:101C100094F8340000F00F00022802D04FF0FF309B
:101C200070BDFEF7CDFA054604F11400FFF7F5FB91
:101C300004F14C0000F09EF92846FEF7C5FA204654
:101C4000FFF750FD002070BD01480068704700009C
:101C5000C4000020F1B5FEF7B3FA05460C4804684D
:101C6000204600F02AF804F14C006A46002106469E
:101C700000F0D6F8304600F013F92846FEF7A4FA33
:101C8000FFF7F6FC206B801C00D120630020F8BD1C
:101C9000C400002010B534308178417001228A40A0
:101CA0004260022100F83419FFF7B0FFFFF7CCFFC4
:101CB00008B1FFF7DDFC002010BD70B5044694F8B4
:101CC000340000F00F00012802D04FF0FF3070BD4B
:101CD000FEF776FA054694F8340020F00F00801CD9
:101CE00084F834002046FFF723FD04F14C0000F097
:101CF00041F92846FEF768FA002070BD10B5044689
:101D00006FF00100206304F11400FFF786FB20460A
:101D1000FFF7E8FCBDE81040FFF7AABC70B5FEF77E
:101D20004FFA06461348046894F8340000F00F0098
:101D300001281AD1D4E90501884216D004F1140013
:101D40000546FFF76AFB94F835000B4901EBC0002C
:101D500041680D6041686960456028603046FEF763
:101D600033FAFFF785FC002070BD3046FEF72CFAF1
:101D7000002070BDC400002010130020014800683E
:101D8000704700003000002010B509490868401C69
:101D90000860FFF759FF816C491E816419B9416CD5
:101DA0008164FFF7BBFFBDE8104000F003B80000FE
:101DB0003000002070B5FFF7E1FF0646FEF700FA9D
:101DC000054620E015480468143C6FF00041A06A05
:101DD000301A88421CD22046FEF70BFED4E90710C9
:101DE0008847FFF7CBFF0646607A810708D5C10711
:101DF00006D020F001006072204600F051F802E0A9
:101E000020F0010060720548FFF7F7FA0028D9D0EA
:101E10002846BDE87040FEF7D7B90000D800002082
:101E2000002909D0012904D0022908D003290FD1A3
:101E30000AE0406A10600BE01168416208E0417AF4
:101E400021F00201417203E0417A41F00201417246
:101E50000020704770B50546FEF7B2F904462846E3
:101E6000FEF7C7FD2046FEF7AFF92846FFF7B9FB9E
:101E7000002070BD2DE9F8430746DDE908841546CA
:101E80001E460A4609213846FFF7CCFB4346324638
:101E9000294638460094FEF799FDBDE8F883000016
:101EA0002DE9F8430446FEF78BF905462046FEF778
:101EB000A0FD607A20F0010060722846FEF784F9E8
:101EC000FFF75CFF616A0844A062FEF779F90746F4
:101ED000DFF89CC0CDF800C000226E460CEBC200BB
:101EE00045680DE00068A0EBC201A36A4969994208
:101EF00004D0C91A6FF00043994205D346F8220076
:101F000056F82200A842EDD12AB156F82210083125
:101F1000531C46F82310521C002ADFD01448001F1F
:101F2000D0F8008008F10108C0F8008004F1140125
:101F30000098FFF74DFA02250EE05FEA88700DD198
:101F4000C5F1010004EBC001143156F82000FFF781
:101F50003FFA4FEA98086D1C012DEED9607A40F0E7
:101F6000010060723846FEF72FF90020BDE8F883C3
:101F7000D800002070B50446607AC0070ED0FEF786
:101F80001FF905462046FEF734FD2846FEF71CF9EA
:101F9000607A20F001006072002070BD4FF0FF30C9
:101FA00070BD00002DE9FF4F83B082460AEB0107A8
:101FB0007F1E5446A74201D24FF0FF374FF0200951
:101FC0004FF0250B12E1252804D0BC4200D8207028
:101FD000641C08E100250599491C059108782D2805
:101FE00014D02B2815D0202816D0232817D030281D
:101FF00018D04FF0FF384646059A1278303A0A2A30
:1020000013D205A800F072F906461AE045F0100553
:10201000E1E745F00405DEE745F00805DBE745F0BC
:102020002005D8E745F00105D5E72A2809D1491C44
:102030000591069840C80690002E02DA764245F0D7
:102040001005059801782E2918D1401C05900178BB
:10205000A1F130020A2A04D205A800F047F980460F
:1020600007E02A2905D1401C0590069850F8048BFA
:102070000690B8F1000F01DA4FF000080021059A30
:102080001078682801D06C2802D10146521C0592B4
:102090000A23059800786F2871D00CDC632820D0C3
:1020A00004DC25286CD058280DD187E0642801D0A5
:1020B000692808D186E0702863D073282FD075284E
:1020C00071D078287CD0BC4201D884F800B0641C60
:1020D00005990878002868D0BC4200D82070641C9C
:1020E00081E0E80605D507E0BC4201D884F80090FD
:1020F000641C761E002EF7DC069810F8041B069070
:10210000C8B2BC4200D82070641C04E0BC4201D8B4
:1021100084F80090641C761E002EF7DC63E00698BD
:1021200008C8069003B941A31846FFF7EDFBB8F1C4
:10213000000F02DD404500DD4046E90605D508E018
:10214000BC4201D884F80090641C3146761E81425E
:10215000F6DC002106E0BC4201D81A782270641C2B
:102160005B1C491C8142F6DB04E0BC4201D884F8C8
:102170000090641C3146761E8142F6DC33E01BE0A1
:1021800014E0701C02D1082645F00105CDE9006875
:1021900006980295102304C8069039462046FEF79B
:1021A00071FD04461FE00FE00AE028E0BC4201D8C0
:1021B00084F800B0641C16E0082305E045F04005F3
:1021C000102301E045F002056C291BD068291DD0C1
:1021D000069804C80690CDE9006839462046029565
:1021E000FEF750FD04460598401C059005980078C0
:1021F00000287FF4E8AEBC4211D8207010E0491EE0
:102200000591F0E7069804C80690E4E7069830F8D0
:10221000041B06908AB2A807DDD512B2DBE738703E
:1022200007B0A4EB0A00BDE8F08F0000284E554C23
:102230004C290000002070470020704700207047A4
:102240000020704710B5FDF7BBFFFEF75BFFFFF7FF
:1022500003FBFFF7FBFBFFF7CBFBFEF7CFFDFFF721
:1022600001FCFFF797FCFFF7DDFB002010BD00002D
:10227000114C4FF40055114E114F16E011A0FFF70D
:1022800087F80121A068FEF772FE29463046FEF766
:10229000FFF8012806D110A0FFF77AF80221A06804
:1022A000FEF765FE0A20FFF704FC01213846FEF721
:1022B000EFF80128E9D1E1E72400002000080240FE
:1022C000000002404B4559312069732070726573DC
:1022D000736564210A0000004B4559322069732060
:1022E00070726573736564210A00000010B50246C0
:1022F00000206FF02F0407E04B1C1360097800EBFF
:10230000800004EB4000084411680B78303B0A2B36
:10231000F2D310BD00000100020001000300010023
:10232000020001000400010002000100030001009E
:10233000020001000500010002000100030001008D
:10234000020001000400010002000100030001007E
:10235000020001000600010002000100030001006C
:10236000020001000400010002000100030001005E
:10237000020001000500010002000100030001004D
:10238000020001000400010002000100030001003E
:10239000020001000700010002000100030001002B
:1023A000020001000400010002000100030001001E
:1023B000020001000500010002000100030001000D
:1023C00002000100040001000200010003000100FE
:1023D00002000100060001000200010003000100EC
:1023E00002000100040001000200010003000100DE
:1023F00002000100050001000200010003000100CD
:1024000002000100040001000200010003000100BD
:1024100002000100303132333435363738396162E9
:1024200063646566003031323334353637383941CC
:10243000424344454600000041220008392200087A
:10244000352200083D220008682400080000002012
:10245000F00000002009000858250008F0000020C6
:102460006016000030090008007A030A000000002E
:102470000000000001020304060708090000000034
:10248000010203040102030406070809000000001A
:10249000000000000000000000000000000000003C
:1024A000000000000000000000000000000000002C
:1024B00000000000000000000000000054000020A8
:1024C0005400002080000000010000006400002093
:1024D00064000020200000000200000074000020C2
:1024E000740000202400000003000000840000208D
:1024F0008400002020000000040000009400002060
:10250000940000203000000005000000A40000201E
:10251000A40000203400000009000000B4000020E6
:10252000B40000202C0000000000000000000000AB
:10253000000000000000000000000000000000009B
:10254000000000000000000000000000000000008B
:08255000000000000000000083
:040000050800018965
:00000001FF
