:020000040800F2
:10000000401700209D010008A5010008A302000878
:10001000A9010008AB010008AD01000800000000C4
:10002000000000000000000000000000AF01000818
:10003000B101000800000000EF01000811070008EE
:10004000B7010008B7010008B7010008B7010008B0
:10005000B7010008B7010008B7010008B7010008A0
:10006000B7010008B7010008B7010008B701000890
:10007000B7010008B7010008B7010008B701000880
:10008000B7010008B7010008B7010008B701000870
:10009000B7010008B7010008B7010008B701000860
:1000A000B7010008B7010008B7010008B701000850
:1000B000B7010008B7010008B7010008B701000840
:1000C000B7010008B7010008B7010008B701000830
:1000D000B7010008B7010008B7010008B701000820
:1000E000B7010008B7010008B7010008B701000810
:1000F000B7010008B7010008B7010008B701000800
:10010000B7010008B7010008B7010008B7010008EF
:10011000B7010008B7010008B7010008B7010008DF
:10012000B7010008B7010008B7010008B7010008CF
:10013000B7010008B7010008B7010008B7010008BF
:10014000B7010008B7010008B7010008B7010008AF
:10015000B7010008B7010008B7010008B70100089F
:10016000B7010008B7010008B7010008B70100088F
:10017000B7010008B7010008B7010008B70100087F
:10018000B7010008B7010008DFF80CD000F0A0F8B4
:1001900000480047F5020008401700200648804745
:1001A00006480047FEE7FEE7FEE7FEE7FEE7FEE75C
:1001B000FEE7FEE7FEE7FEE72507000889010008E5
:1001C000EFF3108072B6704780F3108870473A4A98
:1001D0001368012B04D04FF001031360374A1060FD
:1001E000374A116037484FF0805101607047EFF394
:1001F000108272B63048016851B34FF000010160BF
:100200002E48016891B1EFF309811EF0100F08BF6D
:1002100021ED108B21E9F00F4FF000041EF0100FBC
:1002200008BF012441F8044D0068016024490968B1
:10023000096808C9B1E8F00F002B18BFB1EC108BAA
:1002400081F309884EF0100E002B18BF2EF0100E0F
:1002500082F310884EF0040E704719490860EFF3DE
:10026000148222F0040282F3148814494FF0000033
:10027000086011494FF00100086013484FF47F01F6
:10028000D0F8002041EA020101600E484FF0805191
:1002900001600E480068006880F3088861B662B6A5
:1002A0007047EFF3098000B500F0A8FE5DF804EB9D
:1002B0004EF0040E70470000E0000020D80000203F
:1002C000DC00002004ED00E020ED00E008ED00E09F
:1002D000064C074D06E0E06840F0010394E8070093
:1002E00098471034AC42F6D3FFF752FF8C24000835
:1002F000AC24000810B5FFF763FF01F0DBFF00201E
:1003000010BD000070B586B00121084600F036F936
:100310000121102000F040F900248DF81640012042
:100320008DF8170002258DF815508DF814504002F5
:1003300004901C4E04A9304600F038F88DF8145093
:100340006902049104A9304600F030F807220A211E
:10035000304600F069F807220921304600F064F8C1
:100360004FF4E1300090ADF80440ADF80640ADF830
:100370000840ADF80C400C20ADF80A000A4C694664
:10038000204600F02BFA00F0A7F8012240F2255198
:10039000204600F008FA0121204600F0F1F906B0ED
:1003A00070BD000000000240001001402DE9F04146
:1003B000002201274FF0030C07FA02F50B682B40CF
:1003C000AB422CD1066853000CFA03F4A643066036
:1003D0000E79D0F800809E4046EA080606600E7945
:1003E000012E01D0022E12D18668A64386604E7976
:1003F000D0F808809E4046EA080686604668AE430C
:10040000466045688E799640B6B235434560C5680A
:10041000A543C560CC799C40C3681C43C460521C92
:10042000102AC9D3BDE8F08110B54B07DB0E9A4006
:10043000C90800EB8100016A0F249C40A1430162BE
:10044000016A1143016210BD1CB50121052000F0B5
:1004500095F80120009000208DF804008DF8070029
:1004600069460548FFF7A2FF4FF400500090694627
:100470000248FFF79BFF1CBD00000240000802403D
:100480002DE9FC410121202000F078F8402400945F
:1004900001208DF8040000218DF806108DF807006A
:1004A0008DF805100B4F69463846FFF77FFF802611
:1004B000009669463846FFF779FFA5000095694622
:1004C0003846FFF773FF0348183004800680058024
:1004D000BDE8FC810014024008B54FF4A06000F0B4
:1004E00043F825208DF8000001208DF801008DF8DB
:1004F00002008DF80300684600F002F808BD000015
:1005000030B50F23C27801250178002A1FD0154A83
:10051000126802F4E062C2F5E062C2F30722C2F19F
:100520000404D3404278A24084781C401443220142
:1005300001F1E02181F80024007800F01F018D40D6
:100540004009800000F1E020C0F8005130BD01F00A
:100550001F0085404809800000F1E020C0F880516C
:1005600030BD00000CED00E002490843024908607C
:10057000704700000000FA050CED00E0054A002974
:1005800003D0116801431160704711688143116005
:100590007047000030380240054A002903D0116836
:1005A000014311607047116881431160704700007A
:1005B0004438024070B5244B196801F00C01234CFB
:1005C00000291ED0224E04291DD008291DD0046008
:1005D000196801F0F00109091E4A545C0168E14004
:1005E00041601C6804F4E054A40A145D21FA04F488
:1005F00084601B6803F460435B0BD25CD140C16034
:1006000070BD0460E4E70660E2E70F4A121F11685C
:10061000C1F38055116801F03F0135B1B6FBF1F12E
:100620001468C4F38814614305E0B4FBF1F1146865
:10063000C4F3881461431268C2F30142521C520091
:10064000B1FBF2F10160C3E7083802400024F40076
:1006500040787D01140000200CB500220192009228
:100660002749086840F4803008604FF4A0430868C8
:1006700000F4003000900198401C0190009810B9DF
:1006800001989842F3D10868800302D501200090B8
:1006900000E000920098012831D1194840300268EA
:1006A00042F0805202601748026842F44042026001
:1006B0001348083002680260026842F40042026097
:1006C000026842F4A0520260021F0F4B13600A68D6
:1006D00042F080720A600A689201FCD50B4A40F22F
:1006E00005711160016821F003010160016841F0AA
:1006F000020101600168C1F381010229FAD10CBD38
:10070000003802400070004019544007003C02408D
:1007100010B500F015FD01F06FFBBDE8104000F0D2
:100720001DBD000010B51248016841F47001016060
:100730001048016841F0010101600E4A00210832B1
:10074000116002680C4B1A400260031D0B4A1A60CC
:10075000026822F48022026006480C300160FFF734
:100760007BFF03494FF000608039086010BD000036
:1007700088ED00E000380240FFFFF6FE1030002454
:10078000002904D0818941F4005181817047818919
:1007900021F40051818170470246002012880A42EC
:1007A00000D00120704710B540F66A13C1F3421320
:1007B00001F01F040121A140012B07D0022B07D01B
:1007C00014303AB102680A43026010BD0C30F8E7F9
:1007D0001030F6E702688A43026010BD7FB5044618
:1007E0000D46208A20F44051E88808432082A089E1
:1007F00041F20C618843A9882A8911436A8902431E
:100800001143A181A08A20F44071A8890843A082E5
:100810006846FFF7CFFE1E48844202D01D4884423E
:1008200001D1039800E00298A189090408D500EBE2
:10083000C00101EB001029684900B0FBF1F007E0AE
:1008400000EBC00101EB001029688900B0FBF1F05A
:100850006422B0FBF2F109010B096FF018056B433C
:1008600000EB8300A3891D044FF0320307D503EB8F
:10087000C000B0FBF2F000F00700084306E003EB15
:100880000010B0FBF2F000F00F00084320817FBDA4
:100890000010014000140140C1F30801818070473D
:1008A000002807D00F4910F0FF0F05D0C0B2085C38
:1008B000401C70470020704710F47F4F04D0C0F3F5
:1008C0000720085C0930704710F47F0F04D0C0F394
:1008D0000740085C1130704701EB10600078193058
:1008E000704700005823000802E008C8121F08C122
:1008F000002AFAD170477047002001E001C1121FA1
:10090000002AFBD17047000003480168814201D0F2
:100910000120704700207047C00000202DE9FC41F5
:100920001F46DDE90A65DDE90831044604F11400DB
:10093000406000601C346260A760E36021610A4689
:100940002321184600F01EFDD4E903014218D4E922
:100950000101121F0D4B00F0D3FB2060A6766676D6
:100960000020E06125626562606120766065A065B7
:100970001C3C009001902346054A214604F14400A6
:1009800001F0B0FA0020BDE8FC810000291B00083E
:100990006D1D000810B5029C24F001044472C16171
:1009A000026200218162436200EBC1021432526094
:1009B0001260491C0129F7DB10BD10B5002200EBC5
:1009C000C2011431D1E900436360D1E900342360EE
:1009D00049600960521C012AF1DB10BD2DE9FC4180
:1009E00026A000F0FFFB34A000F0FCFB01213DA09D
:1009F00000F0EBFC3E4DE8604FF0FF3400282ED0B5
:100A000002203226CDE9000647023B460022394942
:100A100039A001F041F86860002825D001F072F992
:100A2000014638A000F0DEFB3EA000F0DBFB032017
:100A3000CDE900063B460022434944A001F02CF8D2
:100A4000A860002815D001F05DF9014642A000F031
:100A5000C9FB49A000F0C6FB0020BDE8FC814FA007
:100A600000F0C0FB2046F8E753A000F0BBFB204697
:100A7000F3E759A000F0B6FB2046EEE7D5E2CAC77F
:100A8000D2BBB8F65BD2B0BBF05D2D2053544D33D2
:100A90003220C8ABCFB5C1D0BFAAB7A2B0E52052B3
:100AA000545420BBA5B3E2CBF8CDACB2BDCAB5D18E
:100AB000E9A3A10A00000000CDACB2BDB3C9B9A63C
:100AC000D4F2CAE4B3F62053756363657373667535
:100AD0006C2CB7B4D6AECAE4B3F6204661696C0A92
:100AE00000000000746573745F7465780000000096
:100AF00024000020E122000873656E645F74687250
:100B00006561640073656E645F746872656164201A
:100B100073746172747570207265743A2025640D67
:100B20000A00000073656E645F746872656164201A
:100B3000737461727465642073756363657373663F
:100B4000756C6C79210D0A00850D0008726563765D
:100B50005F74687265616400726563765F74687261
:100B60006561642073746172747570207265743A83
:100B70002025640D0A000000726563765F74687258
:100B80006561642073746172746564207375636356
:100B900065737366756C6C79210D0A0074657374E6
:100BA0005F746578206372656174696F6E20666139
:100BB000696C6564210A000073656E645F74687215
:100BC00065616420637265617465206661696C6546
:100BD00064210D0A00000000726563765F7468721C
:100BE00065616420637265617465206661696C6526
:100BF00064210D0A0000000010B500F00FF9BDE8F7
:100C00001040FFF7EBBE000030B5134C416822687E
:100C1000114402F1080388420DD04D885DB9656822
:100C2000A94208D0A5688D4200D1A0604D684560FA
:100C30004968851ACD508168114481420BD04D8896
:100C4000002D08D1A568854200D1A16044684C60A0
:100C50004068891AC15030BD3C0000202DE9FF4F8B
:100C6000DDE90DB60F9D6C0602D5DFF814A103E097
:100C7000DFF80CA1AAF1110AEC0601D525F0010557
:100C8000EC0702D04FF0300901E04FF020090027B7
:100C9000AC070BD5002A02DA2D27524206E06C077A
:100CA00001D52B2702E02C0700D520270024EE4693
:100CB0007AB9302201248DF800200CE00A2B15D0DF
:100CC00002F00F081209A4461AF80880641C0EF8F6
:100CD0000C80002AF2D1B44200DD2646ABEB0602BE
:100CE00015F0110F4FF0200309D016E04FF00A0C59
:100CF000B2FBFCF80CFB1828B2FBFCF2E3E73FB1B7
:100D0000002A05DD521E03E0884200D80370401C13
:100D1000B2F1000CA2F10102F6DC27B1884201D841
:100D20000770521E401CED0605D508E0884201D828
:100D300080F80090401C151EA2F10102F6DC30275D
:100D400003E0884200D80770401C3546761EA54255
:100D5000F7DC05E0884202D81EF804500570401CFC
:100D6000251EA4F10104F5DC03E0884200D80370DD
:100D7000401C141EA2F10102F7DC04B0BDE8F08FA4
:100D8000692400080A4C4FF0FF36254606E009A00A
:100D900000F028FA02E00BA000F024FA3146E868DF
:100DA00000F071FB217860788142F4D1EFE7000018
:100DB00024000020436F6E73697374656E743A206B
:100DC00025640A00496E636F6E73697374656E748F
:100DD000210A00001CB502211420CDE900100B02ED
:100DE0000022044904A000F057FEBDE81C4000F0BA
:100DF00089BF0000F90B00086D61696E00000000FA
:100E000070B5044C044D02E020688047241DAC42BC
:100E1000FAD370BD802400088424000870B5044C07
:100E2000044D02E020688047241DAC42FAD370BD17
:100E3000842400088824000810B5FFF7C1F9044A8B
:100E40005188491C5180BDE81040FFF7BDB9000032
:100E5000B400002010B5FFF7B3F9094A5188491EC4
:100E600009B25180002907DC00215180FFF7ACF95D
:100E7000BDE8104000F0E0BBBDE81040FFF7A4B9AA
:100E8000B400002070B5002833D01A4D296888427C
:100E90002FD3696888422CD2A0F10C044FF0FF31A7
:100EA000154800F086FC60884FF4F55610B1208894
:100EB000B04208D011A000F095F92388628821463D
:100EC00015A000F08FF9002060802680A868844279
:100ED00000D2AC6029686068611A401A2969081A52
:100EE00028612046FFF790FEBDE87040024800F000
:100EF00040BC70BD3C000020DC120020746F2066F6
:100F000072656520612062616420646174612062A1
:100F10006C6F636B3A0A00006D656D3A203078257E
:100F20003038782C207573656420666C61673A20D0
:100F300025642C206D6167696320636F64653A20C6
:100F40003078253034780A0000487047E4000020EB
:100F500000487047E410002010B513484FF47A7130
:100F60000068B0FBF1F0401EB0F1807F09D24FF075
:100F7000E02148610D4AF0201070002088610720B0
:100F80000861FFF77DFAFFF75FFAFFF7BBF9FFF79C
:100F900037FFFFF7DDFF0446FFF7D6FF2146BDE828
:100FA000104000F0B1BC00000000002023ED00E084
:100FB00070B50446FFF740FF0F4D16E00A2809D12F
:100FC0000D212846FFF768FC80212846FFF7E4FB47
:100FD0000028F9D014F8011B2846FFF75DFC80219A
:100FE0002846FFF7D9FB0028F9D020780028E5D162
:100FF000BDE87040FFF72EBF0010014010B5044659
:1010000017480168002903D020468847002826D0C9
:1010100014A0E16900F0E6F816A0A16900F0E2F87A
:1010200018A0616900F0DEF81AA0216900F0DAF872
:101030001CA0E16800F0D6F81EA0A16800F0D2F86C
:1010400020A0616800F0CEF822A0216800F0CAF864
:1010500000F032FE014623A000F0C4F8FEE710BD08
:10106000D40000207073723A203078253038780A26
:10107000000000002070633A203078253038780A6C
:1010800000000000206C723A203078253038780A51
:10109000000000007231323A203078253038780A6A
:1010A000000000007230333A203078253038780A5A
:1010B000000000007230323A203078253038780A4B
:1010C000000000007230313A203078253038780A3C
:1010D000000000007230303A203078253038780A2D
:1010E0000000000068617264206661756C74206F96
:1010F0006E207468726561643A2025730A000000EE
:1011000070B50646121D22F00700A0F144052846DE
:1011100000220A4C40F82240521C112AFAD34162A4
:1011200000218162C162016341638363C6634FF042
:10113000807202640160284670BD0000EFBEADDE23
:1011400010B5FFF73DF8044A1178491C1170BDE84D
:101150001040FFF739B800003800002010B5FFF745
:101160002FF8044A1178491E1170BDE81040FFF7AE
:101170002BB800003800002010B50068143800F0CB
:101180007DFD002010BD2DE9F04105460E461446B8
:10119000304600F0CAFD06F1140714B1012C1DD130
:1011A00004E03946284600F044F817E02C680DE0CA
:1011B000A4F1140096F8351090F83520914204D22D
:1011C0003946143000F035F802E02468AC42EFD123
:1011D000AC4203D13946284600F02BF80020BDE888
:1011E000F08100000FB408B503AB00937F210548E0
:1011F000029A00F00FFF0348FFF7DAFE01B05DF836
:1012000014FB00005C1200200268516002680A6052
:101210000160486070470268516002680A600160BE
:10122000486070470268516002680A600160486067
:1012300070474268116042684A60416008607047C8
:101240000168814201D10120704700207047016888
:10125000814201D10120704700207047D0E9002170
:101260005160D0E900121160406000607047D0E921
:1012700000215160D0E900121160406000607047A9
:101280002DE9F047002809D0C01C20F003053B4E93
:10129000F068854204D90020BDE8F0870020FBE714
:1012A0000C2D00D20C254FF0FF31354800F081FAAB
:1012B000B7683168781AD6F80CC0ACEB050356E075
:1012C0000C1862888ABB6268121A0C3AAA424DD383
:1012D000626805F11803121A0C3A4FF001094FF435
:1012E000F5589A4222D343190C33CA18A2F8008049
:1012F0004FF0000AA2F802A0D4F804A0C2F804A09B
:1013000090606360A4F8029050680CF10C0C60458A
:1013100002D001F108028350306928440C3030615A
:10132000726982420ED270610CE01FE0A4F8029054
:101330006068621A801A32691044306172698242B0
:1013400000D27061A4F80080BC4203D008E040687D
:101350000844B060B068428812B172689042F6D119
:10136000074800F006FA04F10C0095E76068834234
:10137000A6D8034800F0FDF900208DE73C000020CE
:10138000DC12002010B50346CCB2042A15D3810725
:1013900013D1014644EA042343EA034305E00B600A
:1013A0004B608B60CB601031103A102AF7D201E00D
:1013B00008C1121F042AFBD20B46E1B201E003F878
:1013C000011B521E541CFAD110BD10B50C4601462B
:1013D000022000F0B4F800280BD000F1140149609D
:1013E00009600121818300210162FF228277C17798
:1013F000447210BD2DE9F0410446002500F05CFC6C
:101400000646FEF7DDFE0746206AB04207D06C1E96
:1014100034633846FEF7D8FE2046BDE8F081E17F10
:10142000491EC9B2E177B1B9A17F90F83520914248
:1014300004D004F11E02022100F0F9FA04F11400B4
:101440000646FFF7FDFE60B1A08B401CA083002084
:101450002062FF20A0773846FEF7B6FE012D0ED0A1
:101460000FE060691438206290F83500A077E07FC3
:10147000401CE0773046FFF77FFE0125EBE700F0E8
:10148000DBF80020C9E72DE9F341044600F014FC25
:101490000546FEF795FE064600202863206AA8420E
:1014A00003D1E07F401CE07744E0A08B50B1A08BDB
:1014B000401EA083256295F83500A077E07F401C90
:1014C000E07737E0019850B3206A95F8351090F82E
:1014D0003520914204D205F13502022100F0A7FA2D
:1014E000627A294604F11400FFF74DFE01980028A6
:1014F00009DD05F1440001AA0021074600F0C8FCFF
:10150000384600F005FD3046FEF75EFE00F094F828
:10151000286B60B10930C8D0286BBDE8FC816FF042
:1015200001042C633046FEF74FFE2046F5E7FEF738
:1015300047FE06463046FEF747FE0020EDE72DE960
:10154000F04106460F46304600F03EF80546E86892
:10155000FFF796FE0446ACB12672002060720822A6
:101560003946204600F0BCF9FEF72AFE064604F193
:101570000C01281DFFF748FE3046FEF725FE2046E9
:10158000BDE8F0810020FBE770B50446FEF718FEC9
:10159000054604F10C00FFF761FE2846FEF714FE35
:1015A0002046BDE87040FFF76DBC70B50446FEF7FD
:1015B00007FE054604F10C00FFF750FE2846BDE883
:1015C0007040FEF701BE00000021074A02EB011344
:1015D0001B78834202D102EB01107047491C062997
:1015E000F4DB002070470000540000202DE9F0419A
:1015F00004460D4617462846FFF7E6FF064645F027
:101600008000207208223946204600F069F9FEF772
:10161000D7FD054604F10C01301DFFF7F5FD284606
:10162000BDE8F041FEF7D0BD007A000601D50120EB
:10163000704700207047000070B5FEF7C1FD0546F9
:10164000174C608820B12846BDE87040FEF7BCBD4D
:10165000A068FFF725F9421E124850F832101439DD
:101660006068814216D0227061600F4A127842B1E0
:101670001C311C30FEF7ABFD2846BDE87040FEF77C
:10168000A3BD1C311C30FEF7A2FD2846BDE870400A
:10169000FEF79ABD2846BDE87040FEF795BD0000F4
:1016A000B4000020FC1200203800002010B50446D1
:1016B000FEF786FD024614F8340F20F00F00401CA0
:1016C000207060780A49343C01EBC00104F1140039
:1016D0004B6818604B684360486001600548A16B27
:1016E000836819438160BDE810401046FEF76CBD69
:1016F000FC120020B400002070B50546FEF760FD26
:10170000014605F11404D4E900205060D4E9000238
:1017100010606460246095F835000A4A02EBC0004E
:101720000268824201D1012000E0002020B1064879
:10173000AB6B82689A438260BDE870400846FEF752
:1017400043BD0000FC120020B40000202DE9F04150
:10175000054616461F460A4601212846FFF746FF62
:101760002C46143464602460AE836F720020BDE8A0
:10177000F0812DE9F04104460025FEF721FD0646E3
:1017800004F114000746FFF75BFD40B1A08B401C3D
:10179000A0833046FEF718FD012D05D006E038463F
:1017A000FFF7EAFC0125F4E7FFF746FF0020BDE85C
:1017B000F08173B50446FEF703FD0646A08B28B101
:1017C000401EA0833046FEF7FFFC21E0019808B3DD
:1017D00000F072FA054600202863627A294604F177
:1017E0001400FFF7D0FC0198002809DD05F1440042
:1017F00001AA0021044600F04BFB204600F088FBC4
:101800003046FEF7E1FCFFF717FF286B002800D1F8
:1018100000207CBD3046FEF7D7FC6FF001007CBD98
:1018200008B509A0FFF7DEFC0AA0FFF7DBFC12A059
:10183000032300900022194612A0FFF7D3FCBDE855
:10184000084018A0FFF7CEBC0A205C207C202F0A9D
:10185000000000002D205254202D20202020205454
:101860006872656164204F7065726174696E67208B
:1018700053797374656D0A004A756E2031342032D5
:1018800030323500202F207C205C20202020202595
:10189000642E25642E2564206275696C642025738E
:1018A0000A0000002032303036202D20323031380E
:1018B00020436F707972696768742062792072744E
:1018C0002D746872656164207465616D0A000000A2
:1018D000014600E0491C0A78002AFBD1081A70472B
:1018E00010B5002A07D0034611F8014B03F8014B4D
:1018F00014B1521EF8D110BD002101E003F8011B04
:10190000521EFBD110BD000070B505460A46E81C0A
:1019100020F0030122F00303182B21D9A3F11804AE
:101920008C421DD3114C5A1A183AE26021604FF4D0
:10193000F5530B800C324A6000208860488048686C
:10194000084460600380012141804260826000237E
:10195000012207A10848FFF7F9FE2068A06070BDCA
:101960002946BDE8704005A0FFF73CBC3C000020C4
:101970006865617000000000DC1200206D656D205C
:10198000696E69742C206572726F72206265676976
:101990006E206164647265737320307825782C2022
:1019A000616E6420656E6420616464726573732087
:1019B000307825780A00000010B50A4B00245C80BE
:1019C0000020094A02EBC00149600960401C082858
:1019D000F8DB072018705C609C6002480C304060A7
:1019E000006010BDB4000020FC12002010B5074CB0
:1019F000A068FEF755FF401E054951F83000143825
:101A00006060BDE810401C30FEF727BCB400002029
:101A1000FC1200200020044A02EBC001496009606A
:101A2000401C0028F8D07047CC00002070472DE9FA
:101A3000F04104461546002924D0012927D0022967
:101A400011D1FEF7BDFB074694F83400012600F0E3
:101A50000F0001280AD0287884F835008640A66354
:101A60003846FEF7B1FB0020BDE8F0812046FFF7C5
:101A700043FE287884F835008640A6632046FFF7A9
:101A800015FEEDE72046BDE8F04100F03BB92046E9
:101A9000BDE8F04100F028B82DE9FF478046DDE9B8
:101AA0000C67894692461D4641460020FFF747FDD8
:101AB000044620000FD02846FFF7E2FB68B18DE80E
:101AC000E10053464A4641462046FEF727FF20469E
:101AD00004B0BDE8F0870020FAE72046FFF754FD88
:101AE0000020F5E700F0EEB870B5044694F8340035
:101AF000000702D02046FFF7FFFD04F1440000F08C
:101B0000E1F9042084F83400FEF75AFB054604F19D
:101B100014010448FFF77FFB2846FEF755FB002021
:101B200070BD0000C000002070B513480468FEF7C7
:101B300047FB05462046FFF7DFFD042084F834000C
:101B400004F1440000F0BEF92046FFF76DFD0128C6
:101B500001D1206F58B104F114010848FFF75BFB75
:101B60002846FEF731FBBDE87040FFF765BD204613
:101B7000FFF71BFDF4E70000B8000020C0000020C4
:101B800000F002F8FCE7000070B527E0FEF718FB54
:101B90000646FEF7B9FE68B319480468A4F11405B7
:101BA000D4E900104860D4E9000108606460246052
:101BB000FFF742F9296F09B1284688472846FFF701
:101BC00033FD01280FD0FFF745F93046FEF7FCFA48
:101BD000A86AFFF757F92846FFF7D6FCFEF794FEF0
:101BE0000028D3D170BDFFF735F93046BDE870400D
:101BF000FEF7EABA3046BDE87040FEF7E5BA0000ED
:101C0000C00000201FB52020C2000721094BCDE9EC
:101C10000210CDE9003207480023074A07A17838AF
:101C200000F010F804B00348BDE81040783800F028
:101C300069B800005C110020811B00087469646CA5
:101C4000650000002DE9FF5F8146DDE90E76DDE9E4
:101C50001054884692469B46424600214846FFF76C
:101C6000C5FCCDE90076CDE902545B4652464146BB
:101C70004846FEF753FE04B0BDE8F09F70B5044639
:101C800094F8340000F00F00022802D04FF0FF302B
:101C900070BDFEF795FA054604F11400FFF7E7FA68
:101CA00004F1440000F09EF92846FEF78DFA204624
:101CB000FFF7FCFC002070BD014800687047000081
:101CC000B8000020F1B5FEF77BFA05460C48046821
:101CD000204600F02AF804F144006A460021064636
:101CE00000F0D6F8304600F013F92846FEF76CFAFB
:101CF000FFF7A2FC206B801C00D120630020F8BD00
:101D0000B800002010B534308178417001228A403B
:101D10004260022100F83419FFF7B0FFFFF7CCFF53
:101D200008B1FFF789FC002010BD70B5044694F897
:101D3000340000F00F00012802D04FF0FF3070BDDA
:101D4000FEF73EFA054694F8340020F00F00801CA0
:101D500084F834002046FFF7CFFC04F1440000F083
:101D600041F92846FEF730FA002070BD10B5044650
:101D70006FF00100206304F11400FFF778FA2046A9
:101D8000FFF794FCBDE81040FFF756BC70B5FEF7B6
:101D900017FA06461348046894F8340000F00F0060
:101DA00001281AD1D4E90501884216D004F11400A3
:101DB0000546FFF75CFA94F835000B4901EBC000CB
:101DC00041680D6041686960456028603046FEF7F3
:101DD000FBF9FFF731FC002070BD3046FEF7F4F947
:101DE000002070BDB8000020FC12002001480068EF
:101DF000704700003400002010B509490868401CF5
:101E00000860FFF759FF016C491E016419B9C16BE5
:101E10000164FFF7BBFFBDE8104000F003B800000D
:101E20003400002070B5FFF7E1FF0646FEF7C8F961
:101E3000054620E015480468143C6FF00041A06A94
:101E4000301A88421CD22046FEF7B7FDD4E90710AD
:101E50008847FFF7CBFF0646607A810708D5C107A0
:101E600006D020F001006072204600F051F802E038
:101E700020F0010060720548FFF7E9F90028D9D089
:101E80002846BDE87040FEF79FB90000CC00002056
:101E9000002909D0012904D0022908D003290FD133
:101EA0000AE0406A10600BE01168416208E0417A84
:101EB00021F00201417203E0417A41F002014172D6
:101EC0000020704770B50546FEF77AF904462846AB
:101ED000FEF773FD2046FEF777F92846FFF765FB0E
:101EE000002070BD2DE9F8430746DDE9088415465A
:101EF0001E460A4609213846FFF778FB434632461C
:101F0000294638460094FEF745FDBDE8F8830000F9
:101F10002DE9F8430446FEF753F905462046FEF73F
:101F20004CFD607A20F0010060722846FEF74CF903
:101F3000FFF75CFF616A0844A062FEF741F90746BB
:101F4000DFF89CC0CDF800C000226E460CEBC2004A
:101F500045680DE00068A0EBC201A36A4969994297
:101F600004D0C91A6FF00043994205D346F8220005
:101F700056F82200A842EDD12AB156F822100831B5
:101F8000531C46F82310521C002ADFD01448001FAF
:101F9000D0F8008008F10108C0F8008004F11401B5
:101FA0000098FFF73FF902250EE05FEA88700DD137
:101FB000C5F1010004EBC001143156F82000FFF711
:101FC00031F94FEA98086D1C012DEED9607A40F086
:101FD000010060723846FEF7F7F80020BDE8F8838C
:101FE000CC00002070B50446607AC0070ED0FEF722
:101FF000E7F805462046FEF7E0FC2846FEF7E4F841
:10200000607A20F001006072002070BD4FF0FF3058
:1020100070BD00002DE9FF4F83B082460AEB010737
:102020007F1E5446A74201D24FF0FF374FF02009E0
:102030004FF0250B12E1252804D0BC4200D82070B7
:10204000641C08E100250599491C059108782D2894
:1020500014D02B2815D0202816D0232817D03028AC
:1020600018D04FF0FF384646059A1278303A0A2ABF
:1020700013D205A800F05CF906461AE045F01005F9
:10208000E1E745F00405DEE745F00805DBE745F04C
:102090002005D8E745F00105D5E72A2809D1491CD4
:1020A0000591069840C80690002E02DA764245F067
:1020B0001005059801782E2918D1401C059001784B
:1020C000A1F130020A2A04D205A800F031F98046B5
:1020D00007E02A2905D1401C0590069850F8048B8A
:1020E0000690B8F1000F01DA4FF000080021059AC0
:1020F0001078682801D06C2802D10146521C059244
:102100000A23059800786F2871D00CDC632820D052
:1021100004DC25286CD058280DD187E0642801D034
:10212000692808D186E0702863D073282FD07528DD
:1021300071D078287CD0BC4201D884F800B0641CEF
:1021400005990878002868D0BC4200D82070641C2B
:1021500081E0E80605D507E0BC4201D884F800908C
:10216000641C761E002EF7DC069810F8041B0690FF
:10217000C8B2BC4200D82070641C04E0BC4201D844
:1021800084F80090641C761E002EF7DC63E006984D
:1021900008C8069003B941A31846FFF799FBB8F1A8
:1021A000000F02DD404500DD4046E90605D508E0A8
:1021B000BC4201D884F80090641C3146761E8142EE
:1021C000F6DC002106E0BC4201D81A782270641CBB
:1021D0005B1C491C8142F6DB04E0BC4201D884F858
:1021E0000090641C3146761E8142F6DC33E01BE031
:1021F00014E0701C02D1082645F00105CDE9006805
:1022000006980295102304C8069039462046FEF72A
:1022100025FD04461FE00FE00AE028E0BC4201D89B
:1022200084F800B0641C16E0082305E045F0400582
:10223000102301E045F002056C291BD068291DD050
:10224000069804C80690CDE90068394620460295F4
:10225000FEF704FD04460598401C0590059800789B
:1022600000287FF4E8AEBC4211D8207010E0491E6F
:102270000591F0E7069804C80690E4E7069830F860
:10228000041B06908AB2A807DDD512B2DBE73870CE
:1022900007B0A4EB0A00BDE8F08F0000284E554CB3
:1022A0004C29000000207047002070470020704734
:1022B0000020704710B5FDF783FFFEF74DFEFFF7D6
:1022C000AFFAFFF7A7FBFFF777FBFEF783FDFFF7FA
:1022D000ADFBFFF797FCFFF789FB002010BD000066
:1022E0000C4C4FF47A7625462178491C21706420E5
:1022F000FFF7F8FB6178491C6170E868FFF77AF82E
:102300006278217804A0FEF76DFF3046FFF7EAFB04
:10231000EAE700002400002053656E742076616CAB
:102320007565733A2025642C2025640A000000009E
:1023300010B5024600206FF02F0407E04B1C13601D
:10234000097800EB800004EB4000084411680B782A
:10235000303B0A2BF2D310BD000001000200010047
:10236000030001000200010004000100020001005E
:10237000030001000200010005000100020001004D
:10238000030001000200010004000100020001003E
:10239000030001000200010006000100020001002C
:1023A000030001000200010004000100020001001E
:1023B000030001000200010005000100020001000D
:1023C00003000100020001000400010002000100FE
:1023D00003000100020001000700010002000100EB
:1023E00003000100020001000400010002000100DE
:1023F00003000100020001000500010002000100CD
:1024000003000100020001000400010002000100BD
:1024100003000100020001000600010002000100AB
:10242000030001000200010004000100020001009D
:10243000030001000200010005000100020001008C
:10244000030001000200010004000100020001007D
:1024500003000100020001003031323334353637D9
:102460003839616263646566003031323334353641
:10247000373839414243444546000000B122000844
:10248000A9220008A5220008AD220008AC240008FB
:1024900000000020E4000000E80800089025000883
:1024A000E40000205C160000F8080008007A030A27
:1024B00000000000000000000102030406070809F4
:1024C00000000000010203040102030406070809DA
:1024D00000000000000000000000000000000000FC
:1024E00000000000000000000000000000000000EC
:1024F00000000000000000000000000000000000DC
:102500000000000058000020580000207800000063
:10251000010000006800002068000020200000008A
:102520000200000078000020780000202400000055
:102530000400000088000020880000203000000017
:1025400005000000980000209800002034000000E2
:1025500009000000A8000020A80000202C000000B6
:10256000000000000000000000000000000000006B
:10257000000000000000000000000000000000005B
:10258000000000000000000000000000000000004B
:040000050800018965
:00000001FF
